{"contracts/RentalTokenOwnership.sol":{"PropertyERC20":{"abi":[{"inputs":[{"internalType":"string","name":"_name","type":"string"},{"internalType":"string","name":"_symbol","type":"string"}],"stateMutability":"nonpayable","type":"constructor"},{"inputs":[{"internalType":"address","name":"spender","type":"address"},{"internalType":"uint256","name":"allowance","type":"uint256"},{"internalType":"uint256","name":"needed","type":"uint256"}],"name":"ERC20InsufficientAllowance","type":"error"},{"inputs":[{"internalType":"address","name":"sender","type":"address"},{"internalType":"uint256","name":"balance","type":"uint256"},{"internalType":"uint256","name":"needed","type":"uint256"}],"name":"ERC20InsufficientBalance","type":"error"},{"inputs":[{"internalType":"address","name":"approver","type":"address"}],"name":"ERC20InvalidApprover","type":"error"},{"inputs":[{"internalType":"address","name":"receiver","type":"address"}],"name":"ERC20InvalidReceiver","type":"error"},{"inputs":[{"internalType":"address","name":"sender","type":"address"}],"name":"ERC20InvalidSender","type":"error"},{"inputs":[{"internalType":"address","name":"spender","type":"address"}],"name":"ERC20InvalidSpender","type":"error"},{"inputs":[],"name":"ReentrancyGuardReentrantCall","type":"error"},{"anonymous":false,"inputs":[{"indexed":true,"internalType":"address","name":"owner","type":"address"},{"indexed":true,"internalType":"address","name":"spender","type":"address"},{"indexed":false,"internalType":"uint256","name":"value","type":"uint256"}],"name":"Approval","type":"event"},{"anonymous":false,"inputs":[{"indexed":true,"internalType":"address","name":"from","type":"address"},{"indexed":true,"internalType":"address","name":"to","type":"address"},{"indexed":false,"internalType":"uint256","name":"value","type":"uint256"}],"name":"Transfer","type":"event"},{"inputs":[{"internalType":"address","name":"owner","type":"address"},{"internalType":"address","name":"spender","type":"address"}],"name":"allowance","outputs":[{"internalType":"uint256","name":"","type":"uint256"}],"stateMutability":"view","type":"function"},{"inputs":[{"internalType":"address","name":"spender","type":"address"},{"internalType":"uint256","name":"value","type":"uint256"}],"name":"approve","outputs":[{"internalType":"bool","name":"","type":"bool"}],"stateMutability":"nonpayable","type":"function"},{"inputs":[{"internalType":"address","name":"account","type":"address"}],"name":"balanceOf","outputs":[{"internalType":"uint256","name":"","type":"uint256"}],"stateMutability":"view","type":"function"},{"inputs":[{"internalType":"uint256","name":"_tokenAmount","type":"uint256"}],"name":"buyTokens","outputs":[],"stateMutability":"payable","type":"function"},{"inputs":[{"internalType":"address","name":"","type":"address"}],"name":"buyerTokens","outputs":[{"internalType":"uint256","name":"","type":"uint256"}],"stateMutability":"view","type":"function"},{"inputs":[{"internalType":"uint256","name":"","type":"uint256"}],"name":"buyers","outputs":[{"internalType":"address","name":"","type":"address"}],"stateMutability":"view","type":"function"},{"inputs":[],"name":"decimals","outputs":[{"internalType":"uint8","name":"","type":"uint8"}],"stateMutability":"view","type":"function"},{"inputs":[],"name":"distributeIncome","outputs":[],"stateMutability":"payable","type":"function"},{"inputs":[],"name":"getBuyers","outputs":[{"internalType":"address[]","name":"","type":"address[]"}],"stateMutability":"view","type":"function"},{"inputs":[],"name":"getIsRentalProperty","outputs":[{"internalType":"bool","name":"","type":"bool"}],"stateMutability":"view","type":"function"},{"inputs":[],"name":"getLastIncomeDistribution","outputs":[{"internalType":"uint256","name":"","type":"uint256"}],"stateMutability":"view","type":"function"},{"inputs":[],"name":"getMonthlyIncome","outputs":[{"internalType":"uint256","name":"","type":"uint256"}],"stateMutability":"view","type":"function"},{"inputs":[],"name":"getTokenSupply","outputs":[{"internalType":"uint256","name":"","type":"uint256"}],"stateMutability":"view","type":"function"},{"inputs":[{"internalType":"address","name":"buyer","type":"address"}],"name":"getTokensBought","outputs":[{"internalType":"uint256","name":"","type":"uint256"}],"stateMutability":"view","type":"function"},{"inputs":[],"name":"getWhatRentalIncome","outputs":[{"internalType":"uint256","name":"","type":"uint256"}],"stateMutability":"view","type":"function"},{"inputs":[{"internalType":"uint256","name":"_totalSupply","type":"uint256"},{"internalType":"uint256","name":"_tokenPrice","type":"uint256"},{"internalType":"address","name":"_propertyOwner","type":"address"},{"internalType":"bool","name":"_isRentalProperty","type":"bool"},{"internalType":"uint256","name":"_monthlyIncome","type":"uint256"}],"name":"initializeSale","outputs":[],"stateMutability":"nonpayable","type":"function"},{"inputs":[],"name":"isRentalProperty","outputs":[{"internalType":"bool","name":"","type":"bool"}],"stateMutability":"view","type":"function"},{"inputs":[],"name":"lastIncomeDistribution","outputs":[{"internalType":"uint256","name":"","type":"uint256"}],"stateMutability":"view","type":"function"},{"inputs":[],"name":"monthlyIncome","outputs":[{"internalType":"uint256","name":"","type":"uint256"}],"stateMutability":"view","type":"function"},{"inputs":[],"name":"name","outputs":[{"internalType":"string","name":"","type":"string"}],"stateMutability":"view","type":"function"},{"inputs":[],"name":"ownerOf","outputs":[{"internalType":"address","name":"","type":"address"}],"stateMutability":"view","type":"function"},{"inputs":[],"name":"propertyOwner","outputs":[{"internalType":"address","name":"","type":"address"}],"stateMutability":"view","type":"function"},{"inputs":[],"name":"propertyTokenSupply","outputs":[{"internalType":"uint256","name":"","type":"uint256"}],"stateMutability":"view","type":"function"},{"inputs":[],"name":"propertyTotalSupplyLeft","outputs":[{"internalType":"uint256","name":"","type":"uint256"}],"stateMutability":"view","type":"function"},{"inputs":[{"internalType":"uint256","name":"_timestamp","type":"uint256"}],"name":"setLastIncomeDistribution","outputs":[],"stateMutability":"nonpayable","type":"function"},{"inputs":[{"internalType":"uint256","name":"_newMonthlyIncome","type":"uint256"}],"name":"setMonthlyIncome","outputs":[],"stateMutability":"nonpayable","type":"function"},{"inputs":[],"name":"symbol","outputs":[{"internalType":"string","name":"","type":"string"}],"stateMutability":"view","type":"function"},{"inputs":[],"name":"tokenPrice","outputs":[{"internalType":"uint256","name":"","type":"uint256"}],"stateMutability":"view","type":"function"},{"inputs":[],"name":"totalSupply","outputs":[{"internalType":"uint256","name":"","type":"uint256"}],"stateMutability":"view","type":"function"},{"inputs":[{"internalType":"address","name":"to","type":"address"},{"internalType":"uint256","name":"value","type":"uint256"}],"name":"transfer","outputs":[{"internalType":"bool","name":"","type":"bool"}],"stateMutability":"nonpayable","type":"function"},{"inputs":[{"internalType":"address","name":"from","type":"address"},{"internalType":"address","name":"to","type":"address"},{"internalType":"uint256","name":"value","type":"uint256"}],"name":"transferFrom","outputs":[{"internalType":"bool","name":"","type":"bool"}],"stateMutability":"nonpayable","type":"function"}],"evm":{"bytecode":{"linkReferences":{},"object":"608060405234801561001057600080fd5b506040516134d63803806134d6833981810160405281019061003291906101da565b818181600390816100439190610473565b5080600490816100539190610473565b50505060016005819055505050610545565b6000604051905090565b600080fd5b600080fd5b600080fd5b600080fd5b6000601f19601f8301169050919050565b7f4e487b7100000000000000000000000000000000000000000000000000000000600052604160045260246000fd5b6100cc82610083565b810181811067ffffffffffffffff821117156100eb576100ea610094565b5b80604052505050565b60006100fe610065565b905061010a82826100c3565b919050565b600067ffffffffffffffff82111561012a57610129610094565b5b61013382610083565b9050602081019050919050565b60005b8381101561015e578082015181840152602081019050610143565b60008484015250505050565b600061017d6101788461010f565b6100f4565b9050828152602081018484840111156101995761019861007e565b5b6101a4848285610140565b509392505050565b600082601f8301126101c1576101c0610079565b5b81516101d184826020860161016a565b91505092915050565b600080604083850312156101f1576101f061006f565b5b600083015167ffffffffffffffff81111561020f5761020e610074565b5b61021b858286016101ac565b925050602083015167ffffffffffffffff81111561023c5761023b610074565b5b610248858286016101ac565b9150509250929050565b600081519050919050565b7f4e487b7100000000000000000000000000000000000000000000000000000000600052602260045260246000fd5b600060028204905060018216806102a457607f821691505b6020821081036102b7576102b661025d565b5b50919050565b60008190508160005260206000209050919050565b60006020601f8301049050919050565b600082821b905092915050565b60006008830261031f7fffffffffffffffffffffffffffffffffffffffffffffffffffffffffffffffff826102e2565b61032986836102e2565b95508019841693508086168417925050509392505050565b6000819050919050565b6000819050919050565b600061037061036b61036684610341565b61034b565b610341565b9050919050565b6000819050919050565b61038a83610355565b61039e61039682610377565b8484546102ef565b825550505050565b600090565b6103b36103a6565b6103be818484610381565b505050565b5b818110156103e2576103d76000826103ab565b6001810190506103c4565b5050565b601f821115610427576103f8816102bd565b610401846102d2565b81016020851015610410578190505b61042461041c856102d2565b8301826103c3565b50505b505050565b600082821c905092915050565b600061044a6000198460080261042c565b1980831691505092915050565b60006104638383610439565b9150826002028217905092915050565b61047c82610252565b67ffffffffffffffff81111561049557610494610094565b5b61049f825461028c565b6104aa8282856103e6565b600060209050601f8311600181146104dd57600084156104cb578287015190505b6104d58582610457565b86555061053d565b601f1984166104eb866102bd565b60005b82811015610513578489015182556001820191506020850194506020810190506104ee565b86831015610530578489015161052c601f891682610439565b8355505b6001600288020188555050505b505050505050565b612f82806105546000396000f3fe6080604052600436106101d85760003560e01c80637eb0126911610102578063ce8fcab111610095578063f2aa821811610064578063f2aa8218146106b0578063f446c38f146106ed578063f4593c1114610718578063f64bfaba14610741576101d8565b8063ce8fcab1146105ef578063d74a375d146105f9578063dd62ed3e14610636578063f13656eb14610673576101d8565b8063a9059cbb116100d1578063a9059cbb14610533578063ad974f4c14610570578063ae0e16d61461059b578063ca9013cb146105c6576101d8565b80637eb01269146104875780637ff9b596146104b257806395500d19146104dd57806395d89b4114610508576101d8565b806323b872dd1161017a57806338d79ad51161014957806338d79ad5146103cb5780635a33e992146103f45780635e73018c1461041f57806370a082311461044a576101d8565b806323b872dd1461031c5780632da8c5fd14610359578063313ce567146103845780633610724e146103af576101d8565b8063095ea7b3116101b6578063095ea7b31461025e57806318160ddd1461029b578063197a65f3146102c65780631e6e1f04146102f1576101d8565b80630605062f146101dd57806306fdde0314610208578063082a14f814610233575b600080fd5b3480156101e957600080fd5b506101f261076c565b6040516101ff9190611ffc565b60405180910390f35b34801561021457600080fd5b5061021d610796565b60405161022a91906120a7565b60405180910390f35b34801561023f57600080fd5b50610248610828565b60405161025591906120e2565b60405180910390f35b34801561026a57600080fd5b506102856004803603810190610280919061215a565b61082e565b60405161029291906121b5565b60405180910390f35b3480156102a757600080fd5b506102b0610851565b6040516102bd91906120e2565b60405180910390f35b3480156102d257600080fd5b506102db61085b565b6040516102e891906120e2565b60405180910390f35b3480156102fd57600080fd5b50610306610861565b60405161031391906121b5565b60405180910390f35b34801561032857600080fd5b50610343600480360381019061033e91906121d0565b610878565b60405161035091906121b5565b60405180910390f35b34801561036557600080fd5b5061036e6108a7565b60405161037b91906120e2565b60405180910390f35b34801561039057600080fd5b506103996108ad565b6040516103a6919061223f565b60405180910390f35b6103c960048036038101906103c4919061225a565b6108b6565b005b3480156103d757600080fd5b506103f260048036038101906103ed919061225a565b610b36565b005b34801561040057600080fd5b50610409610c1f565b60405161041691906120e2565b60405180910390f35b34801561042b57600080fd5b50610434610c29565b60405161044191906120e2565b60405180910390f35b34801561045657600080fd5b50610471600480360381019061046c9190612287565b610c2f565b60405161047e91906120e2565b60405180910390f35b34801561049357600080fd5b5061049c610c77565b6040516104a991906121b5565b60405180910390f35b3480156104be57600080fd5b506104c7610c8a565b6040516104d491906120e2565b60405180910390f35b3480156104e957600080fd5b506104f2610c90565b6040516104ff91906120e2565b60405180910390f35b34801561051457600080fd5b5061051d610c9a565b60405161052a91906120a7565b60405180910390f35b34801561053f57600080fd5b5061055a6004803603810190610555919061215a565b610d2c565b60405161056791906121b5565b60405180910390f35b34801561057c57600080fd5b50610585610d4f565b60405161059291906120e2565b60405180910390f35b3480156105a757600080fd5b506105b0610d59565b6040516105bd91906120e2565b60405180910390f35b3480156105d257600080fd5b506105ed60048036038101906105e891906122e0565b610db2565b005b6105f7611022565b005b34801561060557600080fd5b50610620600480360381019061061b9190612287565b611406565b60405161062d91906120e2565b60405180910390f35b34801561064257600080fd5b5061065d6004803603810190610658919061235b565b61144f565b60405161066a91906120e2565b60405180910390f35b34801561067f57600080fd5b5061069a60048036038101906106959190612287565b6114d6565b6040516106a791906120e2565b60405180910390f35b3480156106bc57600080fd5b506106d760048036038101906106d2919061225a565b6114ee565b6040516106e49190611ffc565b60405180910390f35b3480156106f957600080fd5b5061070261152d565b60405161070f9190611ffc565b60405180910390f35b34801561072457600080fd5b5061073f600480360381019061073a919061225a565b611553565b005b34801561074d57600080fd5b506107566115ed565b6040516107639190612459565b60405180910390f35b6000600960009054906101000a900473ffffffffffffffffffffffffffffffffffffffff16905090565b6060600380546107a5906124aa565b80601f01602080910402602001604051908101604052809291908181526020018280546107d1906124aa565b801561081e5780601f106107f35761010080835404028352916020019161081e565b820191906000526020600020905b81548152906001019060200180831161080157829003601f168201915b5050505050905090565b60065481565b60008061083961167b565b9050610846818585611683565b600191505092915050565b6000600254905090565b600c5481565b6000600e60009054906101000a900460ff16905090565b60008061088361167b565b9050610890858285611695565b61089b85858561172a565b60019150509392505050565b60075481565b60006012905090565b6108be61181e565b6000600854826108ce919061250a565b9050600060075411610915576040517f08c379a000000000000000000000000000000000000000000000000000000000815260040161090c90612598565b60405180910390fd5b80341015610958576040517f08c379a000000000000000000000000000000000000000000000000000000000815260040161094f90612604565b60405180910390fd5b81600754101561099d576040517f08c379a000000000000000000000000000000000000000000000000000000000815260040161099490612670565b60405180910390fd5b6109a830338461172a565b81600a60003373ffffffffffffffffffffffffffffffffffffffff1673ffffffffffffffffffffffffffffffffffffffff16815260200190815260200160002060008282546109f79190612690565b925050819055508160076000828254610a1091906126c4565b92505081905550600960009054906101000a900473ffffffffffffffffffffffffffffffffffffffff1673ffffffffffffffffffffffffffffffffffffffff166108fc349081150290604051600060405180830381858888f19350505050158015610a7f573d6000803e3d6000fd5b5081600a60003373ffffffffffffffffffffffffffffffffffffffff1673ffffffffffffffffffffffffffffffffffffffff1681526020019081526020016000205403610b2a57600b339080600181540180825580915050600190039060005260206000200160009091909190916101000a81548173ffffffffffffffffffffffffffffffffffffffff021916908373ffffffffffffffffffffffffffffffffffffffff1602179055505b50610b33611864565b50565b600960009054906101000a900473ffffffffffffffffffffffffffffffffffffffff1673ffffffffffffffffffffffffffffffffffffffff163373ffffffffffffffffffffffffffffffffffffffff1614610bc6576040517f08c379a0000000000000000000000000000000000000000000000000000000008152600401610bbd9061276a565b60405180910390fd5b600e60009054906101000a900460ff16610c15576040517f08c379a0000000000000000000000000000000000000000000000000000000008152600401610c0c906127d6565b60405180910390fd5b80600c8190555050565b6000600c54905090565b600d5481565b60008060008373ffffffffffffffffffffffffffffffffffffffff1673ffffffffffffffffffffffffffffffffffffffff168152602001908152602001600020549050919050565b600e60009054906101000a900460ff1681565b60085481565b6000600d54905090565b606060048054610ca9906124aa565b80601f0160208091040260200160405190810160405280929190818152602001828054610cd5906124aa565b8015610d225780601f10610cf757610100808354040283529160200191610d22565b820191906000526020600020905b815481529060010190602001808311610d0557829003601f168201915b5050505050905090565b600080610d3761167b565b9050610d4481858561172a565b600191505092915050565b6000600754905090565b6000600e60009054906101000a900460ff16610daa576040517f08c379a0000000000000000000000000000000000000000000000000000000008152600401610da1906127d6565b60405180910390fd5b600c54905090565b600060075414610df7576040517f08c379a0000000000000000000000000000000000000000000000000000000008152600401610dee90612842565b60405180910390fd5b8460068190555084600781905550600060075411610e4a576040517f08c379a0000000000000000000000000000000000000000000000000000000008152600401610e41906128d4565b60405180910390fd5b69d3c21bcecceda10000006007541115610e99576040517f08c379a0000000000000000000000000000000000000000000000000000000008152600401610e9090612940565b60405180910390fd5b8360088190555060008411610ee3576040517f08c379a0000000000000000000000000000000000000000000000000000000008152600401610eda906129d2565b60405180910390fd5b82600960006101000a81548173ffffffffffffffffffffffffffffffffffffffff021916908373ffffffffffffffffffffffffffffffffffffffff160217905550600073ffffffffffffffffffffffffffffffffffffffff168373ffffffffffffffffffffffffffffffffffffffff1603610f93576040517f08c379a0000000000000000000000000000000000000000000000000000000008152600401610f8a90612a3e565b60405180910390fd5b81600e60006101000a81548160ff021916908315150217905550610fb93060075461186e565b600e60009054906101000a900460ff161561101b5760008111611011576040517f08c379a000000000000000000000000000000000000000000000000000000000815260040161100890612ad0565b60405180910390fd5b61101a816118f0565b5b5050505050565b61102a61181e565b600e60009054906101000a900460ff16611079576040517f08c379a0000000000000000000000000000000000000000000000000000000008152600401611070906127d6565b60405180910390fd5b600960009054906101000a900473ffffffffffffffffffffffffffffffffffffffff1673ffffffffffffffffffffffffffffffffffffffff163373ffffffffffffffffffffffffffffffffffffffff1614611109576040517f08c379a000000000000000000000000000000000000000000000000000000000815260040161110090612b62565b60405180910390fd5b62278d00600d5461111a9190612690565b42101561115c576040517f08c379a000000000000000000000000000000000000000000000000000000000815260040161115390612bf4565b60405180910390fd5b600c543410156111a1576040517f08c379a000000000000000000000000000000000000000000000000000000000815260040161119890612c86565b60405180910390fd5b6000600654116111e6576040517f08c379a00000000000000000000000000000000000000000000000000000000081526004016111dd90612d18565b60405180910390fd5b60006006549050600034905060005b600b805490508110156113f9576000600b828154811061121857611217612d38565b5b9060005260206000200160009054906101000a900473ffffffffffffffffffffffffffffffffffffffff1690506000600a60008373ffffffffffffffffffffffffffffffffffffffff1673ffffffffffffffffffffffffffffffffffffffff1681526020019081526020016000205490506112c86040518060400160405280600f81526020017f427579657220616464726573733a20000000000000000000000000000000000081525083611995565b6113076040518060400160405280601781526020017f546f6b656e73206f776e65642062792062757965723a2000000000000000000081525082611a31565b60008111156113ea57600085858361131f919061250a565b6113299190612d96565b90508273ffffffffffffffffffffffffffffffffffffffff166108fc829081150290604051600060405180830381858888f19350505050158015611371573d6000803e3d6000fd5b506113e86040518060400160405280600c81526020017f5472616e73666572726564200000000000000000000000000000000000000000815250826040518060400160405280600f81526020017f2045544820746f2062757965723a20000000000000000000000000000000000081525086611acd565b505b505080806001019150506111f5565b505050611404611864565b565b6000600a60008373ffffffffffffffffffffffffffffffffffffffff1673ffffffffffffffffffffffffffffffffffffffff168152602001908152602001600020549050919050565b6000600160008473ffffffffffffffffffffffffffffffffffffffff1673ffffffffffffffffffffffffffffffffffffffff16815260200190815260200160002060008373ffffffffffffffffffffffffffffffffffffffff1673ffffffffffffffffffffffffffffffffffffffff16815260200190815260200160002054905092915050565b600a6020528060005260406000206000915090505481565b600b81815481106114fe57600080fd5b906000526020600020016000915054906101000a900473ffffffffffffffffffffffffffffffffffffffff1681565b600960009054906101000a900473ffffffffffffffffffffffffffffffffffffffff1681565b600960009054906101000a900473ffffffffffffffffffffffffffffffffffffffff1673ffffffffffffffffffffffffffffffffffffffff163373ffffffffffffffffffffffffffffffffffffffff16146115e3576040517f08c379a00000000000000000000000000000000000000000000000000000000081526004016115da90612e13565b60405180910390fd5b80600d8190555050565b6060600b80548060200260200160405190810160405280929190818152602001828054801561167157602002820191906000526020600020905b8160009054906101000a900473ffffffffffffffffffffffffffffffffffffffff1673ffffffffffffffffffffffffffffffffffffffff1681526020019060010190808311611627575b5050505050905090565b600033905090565b6116908383836001611b6f565b505050565b60006116a1848461144f565b90507fffffffffffffffffffffffffffffffffffffffffffffffffffffffffffffffff8110156117245781811015611714578281836040517ffb8f41b200000000000000000000000000000000000000000000000000000000815260040161170b93929190612e33565b60405180910390fd5b61172384848484036000611b6f565b5b50505050565b600073ffffffffffffffffffffffffffffffffffffffff168373ffffffffffffffffffffffffffffffffffffffff160361179c5760006040517f96c6fd1e0000000000000000000000000000000000000000000000000000000081526004016117939190611ffc565b60405180910390fd5b600073ffffffffffffffffffffffffffffffffffffffff168273ffffffffffffffffffffffffffffffffffffffff160361180e5760006040517fec442f050000000000000000000000000000000000000000000000000000000081526004016118059190611ffc565b60405180910390fd5b611819838383611d46565b505050565b60026005540361185a576040517f3ee5aeb500000000000000000000000000000000000000000000000000000000815260040160405180910390fd5b6002600581905550565b6001600581905550565b600073ffffffffffffffffffffffffffffffffffffffff168273ffffffffffffffffffffffffffffffffffffffff16036118e05760006040517fec442f050000000000000000000000000000000000000000000000000000000081526004016118d79190611ffc565b60405180910390fd5b6118ec60008383611d46565b5050565b600e60009054906101000a900460ff1661193f576040517f08c379a0000000000000000000000000000000000000000000000000000000008152600401611936906127d6565b60405180910390fd5b6000600c5414611984576040517f08c379a000000000000000000000000000000000000000000000000000000000815260040161197b90612842565b60405180910390fd5b80600c8190555042600d8190555050565b611a2d82826040516024016119ab929190612e6a565b6040516020818303038152906040527f319af333000000000000000000000000000000000000000000000000000000007bffffffffffffffffffffffffffffffffffffffffffffffffffffffff19166020820180517bffffffffffffffffffffffffffffffffffffffffffffffffffffffff8381831617835250505050611f6b565b5050565b611ac98282604051602401611a47929190612e9a565b6040516020818303038152906040527fb60e72cc000000000000000000000000000000000000000000000000000000007bffffffffffffffffffffffffffffffffffffffffffffffffffffffff19166020820180517bffffffffffffffffffffffffffffffffffffffffffffffffffffffff8381831617835250505050611f6b565b5050565b611b6984848484604051602401611ae79493929190612eca565b6040516020818303038152906040527f7c4632a4000000000000000000000000000000000000000000000000000000007bffffffffffffffffffffffffffffffffffffffffffffffffffffffff19166020820180517bffffffffffffffffffffffffffffffffffffffffffffffffffffffff8381831617835250505050611f6b565b50505050565b600073ffffffffffffffffffffffffffffffffffffffff168473ffffffffffffffffffffffffffffffffffffffff1603611be15760006040517fe602df05000000000000000000000000000000000000000000000000000000008152600401611bd89190611ffc565b60405180910390fd5b600073ffffffffffffffffffffffffffffffffffffffff168373ffffffffffffffffffffffffffffffffffffffff1603611c535760006040517f94280d62000000000000000000000000000000000000000000000000000000008152600401611c4a9190611ffc565b60405180910390fd5b81600160008673ffffffffffffffffffffffffffffffffffffffff1673ffffffffffffffffffffffffffffffffffffffff16815260200190815260200160002060008573ffffffffffffffffffffffffffffffffffffffff1673ffffffffffffffffffffffffffffffffffffffff168152602001908152602001600020819055508015611d40578273ffffffffffffffffffffffffffffffffffffffff168473ffffffffffffffffffffffffffffffffffffffff167f8c5be1e5ebec7d5bd14f71427d1e84f3dd0314c0f7b2291e5b200ac8c7c3b92584604051611d3791906120e2565b60405180910390a35b50505050565b600073ffffffffffffffffffffffffffffffffffffffff168373ffffffffffffffffffffffffffffffffffffffff1603611d98578060026000828254611d8c9190612690565b92505081905550611e6b565b60008060008573ffffffffffffffffffffffffffffffffffffffff1673ffffffffffffffffffffffffffffffffffffffff16815260200190815260200160002054905081811015611e24578381836040517fe450d38c000000000000000000000000000000000000000000000000000000008152600401611e1b93929190612e33565b60405180910390fd5b8181036000808673ffffffffffffffffffffffffffffffffffffffff1673ffffffffffffffffffffffffffffffffffffffff16815260200190815260200160002081905550505b600073ffffffffffffffffffffffffffffffffffffffff168273ffffffffffffffffffffffffffffffffffffffff1603611eb45780600260008282540392505081905550611f01565b806000808473ffffffffffffffffffffffffffffffffffffffff1673ffffffffffffffffffffffffffffffffffffffff168152602001908152602001600020600082825401925050819055505b8173ffffffffffffffffffffffffffffffffffffffff168373ffffffffffffffffffffffffffffffffffffffff167fddf252ad1be2c89b69c2b068fc378daa952ba7f163c4a11628f55a4df523b3ef83604051611f5e91906120e2565b60405180910390a3505050565b611f8281611f7a611f85611fa6565b63ffffffff16565b50565b60006a636f6e736f6c652e6c6f679050600080835160208501845afa505050565b611fb1819050919050565b611fb9612f1d565b565b600073ffffffffffffffffffffffffffffffffffffffff82169050919050565b6000611fe682611fbb565b9050919050565b611ff681611fdb565b82525050565b60006020820190506120116000830184611fed565b92915050565b600081519050919050565b600082825260208201905092915050565b60005b83811015612051578082015181840152602081019050612036565b60008484015250505050565b6000601f19601f8301169050919050565b600061207982612017565b6120838185612022565b9350612093818560208601612033565b61209c8161205d565b840191505092915050565b600060208201905081810360008301526120c1818461206e565b905092915050565b6000819050919050565b6120dc816120c9565b82525050565b60006020820190506120f760008301846120d3565b92915050565b600080fd5b61210b81611fdb565b811461211657600080fd5b50565b60008135905061212881612102565b92915050565b612137816120c9565b811461214257600080fd5b50565b6000813590506121548161212e565b92915050565b60008060408385031215612171576121706120fd565b5b600061217f85828601612119565b925050602061219085828601612145565b9150509250929050565b60008115159050919050565b6121af8161219a565b82525050565b60006020820190506121ca60008301846121a6565b92915050565b6000806000606084860312156121e9576121e86120fd565b5b60006121f786828701612119565b935050602061220886828701612119565b925050604061221986828701612145565b9150509250925092565b600060ff82169050919050565b61223981612223565b82525050565b60006020820190506122546000830184612230565b92915050565b6000602082840312156122705761226f6120fd565b5b600061227e84828501612145565b91505092915050565b60006020828403121561229d5761229c6120fd565b5b60006122ab84828501612119565b91505092915050565b6122bd8161219a565b81146122c857600080fd5b50565b6000813590506122da816122b4565b92915050565b600080600080600060a086880312156122fc576122fb6120fd565b5b600061230a88828901612145565b955050602061231b88828901612145565b945050604061232c88828901612119565b935050606061233d888289016122cb565b925050608061234e88828901612145565b9150509295509295909350565b60008060408385031215612372576123716120fd565b5b600061238085828601612119565b925050602061239185828601612119565b9150509250929050565b600081519050919050565b600082825260208201905092915050565b6000819050602082019050919050565b6123d081611fdb565b82525050565b60006123e283836123c7565b60208301905092915050565b6000602082019050919050565b60006124068261239b565b61241081856123a6565b935061241b836123b7565b8060005b8381101561244c57815161243388826123d6565b975061243e836123ee565b92505060018101905061241f565b5085935050505092915050565b6000602082019050818103600083015261247381846123fb565b905092915050565b7f4e487b7100000000000000000000000000000000000000000000000000000000600052602260045260246000fd5b600060028204905060018216806124c257607f821691505b6020821081036124d5576124d461247b565b5b50919050565b7f4e487b7100000000000000000000000000000000000000000000000000000000600052601160045260246000fd5b6000612515826120c9565b9150612520836120c9565b925082820261252e816120c9565b91508282048414831517612545576125446124db565b5b5092915050565b7f496e73756666696369656e7420546f6b656e73204c6566740000000000000000600082015250565b6000612582601883612022565b915061258d8261254c565b602082019050919050565b600060208201905081810360008301526125b181612575565b9050919050565b7f496e73756666696369656e74204554482073656e740000000000000000000000600082015250565b60006125ee601583612022565b91506125f9826125b8565b602082019050919050565b6000602082019050818103600083015261261d816125e1565b9050919050565b7f4e6f7420656e6f75676820746f6b656e7320617661696c61626c650000000000600082015250565b600061265a601b83612022565b915061266582612624565b602082019050919050565b600060208201905081810360008301526126898161264d565b9050919050565b600061269b826120c9565b91506126a6836120c9565b92508282019050808211156126be576126bd6124db565b5b92915050565b60006126cf826120c9565b91506126da836120c9565b92508282039050818111156126f2576126f16124db565b5b92915050565b7f4f6e6c79207468652070726f7065727479206f776e65722063616e207365742060008201527f74686520696e636f6d6500000000000000000000000000000000000000000000602082015250565b6000612754602a83612022565b915061275f826126f8565b604082019050919050565b6000602082019050818103600083015261278381612747565b9050919050565b7f54686973206973206e6f7420612072656e74616c2070726f7065727479000000600082015250565b60006127c0601d83612022565b91506127cb8261278a565b602082019050919050565b600060208201905081810360008301526127ef816127b3565b9050919050565b7f53616c6520616c726561647920696e697469616c697a65640000000000000000600082015250565b600061282c601883612022565b9150612837826127f6565b602082019050919050565b6000602082019050818103600083015261285b8161281f565b9050919050565b7f50726f706572747920546f6b656e20537570706c79206d75737420626520677260008201527f6561746572207468616e20300000000000000000000000000000000000000000602082015250565b60006128be602c83612022565b91506128c982612862565b604082019050919050565b600060208201905081810360008301526128ed816128b1565b9050919050565b7f546f74616c20737570706c7920697320746f6f206c6172676500000000000000600082015250565b600061292a601983612022565b9150612935826128f4565b602082019050919050565b600060208201905081810360008301526129598161291d565b9050919050565b7f546f6b656e207072696365206d7573742062652067726561746572207468616e60008201527f207a65726f000000000000000000000000000000000000000000000000000000602082015250565b60006129bc602583612022565b91506129c782612960565b604082019050919050565b600060208201905081810360008301526129eb816129af565b9050919050565b7f496e76616c69642070726f7065727479206f776e657220616464726573730000600082015250565b6000612a28601e83612022565b9150612a33826129f2565b602082019050919050565b60006020820190508181036000830152612a5781612a1b565b9050919050565b7f52656e74616c20696e636f6d65206d757374206265206772656174657220746860008201527f616e207a65726f00000000000000000000000000000000000000000000000000602082015250565b6000612aba602783612022565b9150612ac582612a5e565b604082019050919050565b60006020820190508181036000830152612ae981612aad565b9050919050565b7f4f6e6c79207468652070726f7065727479206f776e65722063616e206469737460008201527f72696275746520696e636f6d6500000000000000000000000000000000000000602082015250565b6000612b4c602d83612022565b9150612b5782612af0565b604082019050919050565b60006020820190508181036000830152612b7b81612b3f565b9050919050565b7f4d6f6e74686c7920696e636f6d6520646973747269627574696f6e206973206e60008201527f6f74206475652079657400000000000000000000000000000000000000000000602082015250565b6000612bde602a83612022565b9150612be982612b82565b604082019050919050565b60006020820190508181036000830152612c0d81612bd1565b9050919050565b7f4e6f7420656e6f756768204554482073656e7420666f7220646973747269627560008201527f74696f6e00000000000000000000000000000000000000000000000000000000602082015250565b6000612c70602483612022565b9150612c7b82612c14565b604082019050919050565b60006020820190508181036000830152612c9f81612c63565b9050919050565b7f546f74616c20746f6b656e20737570706c792063616e6e6f74206265207a657260008201527f6f00000000000000000000000000000000000000000000000000000000000000602082015250565b6000612d02602183612022565b9150612d0d82612ca6565b604082019050919050565b60006020820190508181036000830152612d3181612cf5565b9050919050565b7f4e487b7100000000000000000000000000000000000000000000000000000000600052603260045260246000fd5b7f4e487b7100000000000000000000000000000000000000000000000000000000600052601260045260246000fd5b6000612da1826120c9565b9150612dac836120c9565b925082612dbc57612dbb612d67565b5b828204905092915050565b7f4f6e6c7920746865206f776e65722063616e2073657420746869730000000000600082015250565b6000612dfd601b83612022565b9150612e0882612dc7565b602082019050919050565b60006020820190508181036000830152612e2c81612df0565b9050919050565b6000606082019050612e486000830186611fed565b612e5560208301856120d3565b612e6260408301846120d3565b949350505050565b60006040820190508181036000830152612e84818561206e565b9050612e936020830184611fed565b9392505050565b60006040820190508181036000830152612eb4818561206e565b9050612ec360208301846120d3565b9392505050565b60006080820190508181036000830152612ee4818761206e565b9050612ef360208301866120d3565b8181036040830152612f05818561206e565b9050612f146060830184611fed565b95945050505050565b7f4e487b7100000000000000000000000000000000000000000000000000000000600052605160045260246000fdfea26469706673582212203ca18aa77a8d10878278819a14647ea2d41be1db8cbaa0179518f5fe2a3907c264736f6c634300081c0033","opcodes":"PUSH1 0x80 PUSH1 0x40 MSTORE CALLVALUE DUP1 ISZERO PUSH2 0x10 JUMPI PUSH1 0x0 DUP1 REVERT JUMPDEST POP PUSH1 0x40 MLOAD PUSH2 0x34D6 CODESIZE SUB DUP1 PUSH2 0x34D6 DUP4 CODECOPY DUP2 DUP2 ADD PUSH1 0x40 MSTORE DUP2 ADD SWAP1 PUSH2 0x32 SWAP2 SWAP1 PUSH2 0x1DA JUMP JUMPDEST DUP2 DUP2 DUP2 PUSH1 0x3 SWAP1 DUP2 PUSH2 0x43 SWAP2 SWAP1 PUSH2 0x473 JUMP JUMPDEST POP DUP1 PUSH1 0x4 SWAP1 DUP2 PUSH2 0x53 SWAP2 SWAP1 PUSH2 0x473 JUMP JUMPDEST POP POP POP PUSH1 0x1 PUSH1 0x5 DUP2 SWAP1 SSTORE POP POP POP PUSH2 0x545 JUMP JUMPDEST PUSH1 0x0 PUSH1 0x40 MLOAD SWAP1 POP SWAP1 JUMP JUMPDEST PUSH1 0x0 DUP1 REVERT JUMPDEST PUSH1 0x0 DUP1 REVERT JUMPDEST PUSH1 0x0 DUP1 REVERT JUMPDEST PUSH1 0x0 DUP1 REVERT JUMPDEST PUSH1 0x0 PUSH1 0x1F NOT PUSH1 0x1F DUP4 ADD AND SWAP1 POP SWAP2 SWAP1 POP JUMP JUMPDEST PUSH32 0x4E487B7100000000000000000000000000000000000000000000000000000000 PUSH1 0x0 MSTORE PUSH1 0x41 PUSH1 0x4 MSTORE PUSH1 0x24 PUSH1 0x0 REVERT JUMPDEST PUSH2 0xCC DUP3 PUSH2 0x83 JUMP JUMPDEST DUP2 ADD DUP2 DUP2 LT PUSH8 0xFFFFFFFFFFFFFFFF DUP3 GT OR ISZERO PUSH2 0xEB JUMPI PUSH2 0xEA PUSH2 0x94 JUMP JUMPDEST JUMPDEST DUP1 PUSH1 0x40 MSTORE POP POP POP JUMP JUMPDEST PUSH1 0x0 PUSH2 0xFE PUSH2 0x65 JUMP JUMPDEST SWAP1 POP PUSH2 0x10A DUP3 DUP3 PUSH2 0xC3 JUMP JUMPDEST SWAP2 SWAP1 POP JUMP JUMPDEST PUSH1 0x0 PUSH8 0xFFFFFFFFFFFFFFFF DUP3 GT ISZERO PUSH2 0x12A JUMPI PUSH2 0x129 PUSH2 0x94 JUMP JUMPDEST JUMPDEST PUSH2 0x133 DUP3 PUSH2 0x83 JUMP JUMPDEST SWAP1 POP PUSH1 0x20 DUP2 ADD SWAP1 POP SWAP2 SWAP1 POP JUMP JUMPDEST PUSH1 0x0 JUMPDEST DUP4 DUP2 LT ISZERO PUSH2 0x15E JUMPI DUP1 DUP3 ADD MLOAD DUP2 DUP5 ADD MSTORE PUSH1 0x20 DUP2 ADD SWAP1 POP PUSH2 0x143 JUMP JUMPDEST PUSH1 0x0 DUP5 DUP5 ADD MSTORE POP POP POP POP JUMP JUMPDEST PUSH1 0x0 PUSH2 0x17D PUSH2 0x178 DUP5 PUSH2 0x10F JUMP JUMPDEST PUSH2 0xF4 JUMP JUMPDEST SWAP1 POP DUP3 DUP2 MSTORE PUSH1 0x20 DUP2 ADD DUP5 DUP5 DUP5 ADD GT ISZERO PUSH2 0x199 JUMPI PUSH2 0x198 PUSH2 0x7E JUMP JUMPDEST JUMPDEST PUSH2 0x1A4 DUP5 DUP3 DUP6 PUSH2 0x140 JUMP JUMPDEST POP SWAP4 SWAP3 POP POP POP JUMP JUMPDEST PUSH1 0x0 DUP3 PUSH1 0x1F DUP4 ADD SLT PUSH2 0x1C1 JUMPI PUSH2 0x1C0 PUSH2 0x79 JUMP JUMPDEST JUMPDEST DUP2 MLOAD PUSH2 0x1D1 DUP5 DUP3 PUSH1 0x20 DUP7 ADD PUSH2 0x16A JUMP JUMPDEST SWAP2 POP POP SWAP3 SWAP2 POP POP JUMP JUMPDEST PUSH1 0x0 DUP1 PUSH1 0x40 DUP4 DUP6 SUB SLT ISZERO PUSH2 0x1F1 JUMPI PUSH2 0x1F0 PUSH2 0x6F JUMP JUMPDEST JUMPDEST PUSH1 0x0 DUP4 ADD MLOAD PUSH8 0xFFFFFFFFFFFFFFFF DUP2 GT ISZERO PUSH2 0x20F JUMPI PUSH2 0x20E PUSH2 0x74 JUMP JUMPDEST JUMPDEST PUSH2 0x21B DUP6 DUP3 DUP7 ADD PUSH2 0x1AC JUMP JUMPDEST SWAP3 POP POP PUSH1 0x20 DUP4 ADD MLOAD PUSH8 0xFFFFFFFFFFFFFFFF DUP2 GT ISZERO PUSH2 0x23C JUMPI PUSH2 0x23B PUSH2 0x74 JUMP JUMPDEST JUMPDEST PUSH2 0x248 DUP6 DUP3 DUP7 ADD PUSH2 0x1AC JUMP JUMPDEST SWAP2 POP POP SWAP3 POP SWAP3 SWAP1 POP JUMP JUMPDEST PUSH1 0x0 DUP2 MLOAD SWAP1 POP SWAP2 SWAP1 POP JUMP JUMPDEST PUSH32 0x4E487B7100000000000000000000000000000000000000000000000000000000 PUSH1 0x0 MSTORE PUSH1 0x22 PUSH1 0x4 MSTORE PUSH1 0x24 PUSH1 0x0 REVERT JUMPDEST PUSH1 0x0 PUSH1 0x2 DUP3 DIV SWAP1 POP PUSH1 0x1 DUP3 AND DUP1 PUSH2 0x2A4 JUMPI PUSH1 0x7F DUP3 AND SWAP2 POP JUMPDEST PUSH1 0x20 DUP3 LT DUP2 SUB PUSH2 0x2B7 JUMPI PUSH2 0x2B6 PUSH2 0x25D JUMP JUMPDEST JUMPDEST POP SWAP2 SWAP1 POP JUMP JUMPDEST PUSH1 0x0 DUP2 SWAP1 POP DUP2 PUSH1 0x0 MSTORE PUSH1 0x20 PUSH1 0x0 KECCAK256 SWAP1 POP SWAP2 SWAP1 POP JUMP JUMPDEST PUSH1 0x0 PUSH1 0x20 PUSH1 0x1F DUP4 ADD DIV SWAP1 POP SWAP2 SWAP1 POP JUMP JUMPDEST PUSH1 0x0 DUP3 DUP3 SHL SWAP1 POP SWAP3 SWAP2 POP POP JUMP JUMPDEST PUSH1 0x0 PUSH1 0x8 DUP4 MUL PUSH2 0x31F PUSH32 0xFFFFFFFFFFFFFFFFFFFFFFFFFFFFFFFFFFFFFFFFFFFFFFFFFFFFFFFFFFFFFFFF DUP3 PUSH2 0x2E2 JUMP JUMPDEST PUSH2 0x329 DUP7 DUP4 PUSH2 0x2E2 JUMP JUMPDEST SWAP6 POP DUP1 NOT DUP5 AND SWAP4 POP DUP1 DUP7 AND DUP5 OR SWAP3 POP POP POP SWAP4 SWAP3 POP POP POP JUMP JUMPDEST PUSH1 0x0 DUP2 SWAP1 POP SWAP2 SWAP1 POP JUMP JUMPDEST PUSH1 0x0 DUP2 SWAP1 POP SWAP2 SWAP1 POP JUMP JUMPDEST PUSH1 0x0 PUSH2 0x370 PUSH2 0x36B PUSH2 0x366 DUP5 PUSH2 0x341 JUMP JUMPDEST PUSH2 0x34B JUMP JUMPDEST PUSH2 0x341 JUMP JUMPDEST SWAP1 POP SWAP2 SWAP1 POP JUMP JUMPDEST PUSH1 0x0 DUP2 SWAP1 POP SWAP2 SWAP1 POP JUMP JUMPDEST PUSH2 0x38A DUP4 PUSH2 0x355 JUMP JUMPDEST PUSH2 0x39E PUSH2 0x396 DUP3 PUSH2 0x377 JUMP JUMPDEST DUP5 DUP5 SLOAD PUSH2 0x2EF JUMP JUMPDEST DUP3 SSTORE POP POP POP POP JUMP JUMPDEST PUSH1 0x0 SWAP1 JUMP JUMPDEST PUSH2 0x3B3 PUSH2 0x3A6 JUMP JUMPDEST PUSH2 0x3BE DUP2 DUP5 DUP5 PUSH2 0x381 JUMP JUMPDEST POP POP POP JUMP JUMPDEST JUMPDEST DUP2 DUP2 LT ISZERO PUSH2 0x3E2 JUMPI PUSH2 0x3D7 PUSH1 0x0 DUP3 PUSH2 0x3AB JUMP JUMPDEST PUSH1 0x1 DUP2 ADD SWAP1 POP PUSH2 0x3C4 JUMP JUMPDEST POP POP JUMP JUMPDEST PUSH1 0x1F DUP3 GT ISZERO PUSH2 0x427 JUMPI PUSH2 0x3F8 DUP2 PUSH2 0x2BD JUMP JUMPDEST PUSH2 0x401 DUP5 PUSH2 0x2D2 JUMP JUMPDEST DUP2 ADD PUSH1 0x20 DUP6 LT ISZERO PUSH2 0x410 JUMPI DUP2 SWAP1 POP JUMPDEST PUSH2 0x424 PUSH2 0x41C DUP6 PUSH2 0x2D2 JUMP JUMPDEST DUP4 ADD DUP3 PUSH2 0x3C3 JUMP JUMPDEST POP POP JUMPDEST POP POP POP JUMP JUMPDEST PUSH1 0x0 DUP3 DUP3 SHR SWAP1 POP SWAP3 SWAP2 POP POP JUMP JUMPDEST PUSH1 0x0 PUSH2 0x44A PUSH1 0x0 NOT DUP5 PUSH1 0x8 MUL PUSH2 0x42C JUMP JUMPDEST NOT DUP1 DUP4 AND SWAP2 POP POP SWAP3 SWAP2 POP POP JUMP JUMPDEST PUSH1 0x0 PUSH2 0x463 DUP4 DUP4 PUSH2 0x439 JUMP JUMPDEST SWAP2 POP DUP3 PUSH1 0x2 MUL DUP3 OR SWAP1 POP SWAP3 SWAP2 POP POP JUMP JUMPDEST PUSH2 0x47C DUP3 PUSH2 0x252 JUMP JUMPDEST PUSH8 0xFFFFFFFFFFFFFFFF DUP2 GT ISZERO PUSH2 0x495 JUMPI PUSH2 0x494 PUSH2 0x94 JUMP JUMPDEST JUMPDEST PUSH2 0x49F DUP3 SLOAD PUSH2 0x28C JUMP JUMPDEST PUSH2 0x4AA DUP3 DUP3 DUP6 PUSH2 0x3E6 JUMP JUMPDEST PUSH1 0x0 PUSH1 0x20 SWAP1 POP PUSH1 0x1F DUP4 GT PUSH1 0x1 DUP2 EQ PUSH2 0x4DD JUMPI PUSH1 0x0 DUP5 ISZERO PUSH2 0x4CB JUMPI DUP3 DUP8 ADD MLOAD SWAP1 POP JUMPDEST PUSH2 0x4D5 DUP6 DUP3 PUSH2 0x457 JUMP JUMPDEST DUP7 SSTORE POP PUSH2 0x53D JUMP JUMPDEST PUSH1 0x1F NOT DUP5 AND PUSH2 0x4EB DUP7 PUSH2 0x2BD JUMP JUMPDEST PUSH1 0x0 JUMPDEST DUP3 DUP2 LT ISZERO PUSH2 0x513 JUMPI DUP5 DUP10 ADD MLOAD DUP3 SSTORE PUSH1 0x1 DUP3 ADD SWAP2 POP PUSH1 0x20 DUP6 ADD SWAP5 POP PUSH1 0x20 DUP2 ADD SWAP1 POP PUSH2 0x4EE JUMP JUMPDEST DUP7 DUP4 LT ISZERO PUSH2 0x530 JUMPI DUP5 DUP10 ADD MLOAD PUSH2 0x52C PUSH1 0x1F DUP10 AND DUP3 PUSH2 0x439 JUMP JUMPDEST DUP4 SSTORE POP JUMPDEST PUSH1 0x1 PUSH1 0x2 DUP9 MUL ADD DUP9 SSTORE POP POP POP JUMPDEST POP POP POP POP POP POP JUMP JUMPDEST PUSH2 0x2F82 DUP1 PUSH2 0x554 PUSH1 0x0 CODECOPY PUSH1 0x0 RETURN INVALID PUSH1 0x80 PUSH1 0x40 MSTORE PUSH1 0x4 CALLDATASIZE LT PUSH2 0x1D8 JUMPI PUSH1 0x0 CALLDATALOAD PUSH1 0xE0 SHR DUP1 PUSH4 0x7EB01269 GT PUSH2 0x102 JUMPI DUP1 PUSH4 0xCE8FCAB1 GT PUSH2 0x95 JUMPI DUP1 PUSH4 0xF2AA8218 GT PUSH2 0x64 JUMPI DUP1 PUSH4 0xF2AA8218 EQ PUSH2 0x6B0 JUMPI DUP1 PUSH4 0xF446C38F EQ PUSH2 0x6ED JUMPI DUP1 PUSH4 0xF4593C11 EQ PUSH2 0x718 JUMPI DUP1 PUSH4 0xF64BFABA EQ PUSH2 0x741 JUMPI PUSH2 0x1D8 JUMP JUMPDEST DUP1 PUSH4 0xCE8FCAB1 EQ PUSH2 0x5EF JUMPI DUP1 PUSH4 0xD74A375D EQ PUSH2 0x5F9 JUMPI DUP1 PUSH4 0xDD62ED3E EQ PUSH2 0x636 JUMPI DUP1 PUSH4 0xF13656EB EQ PUSH2 0x673 JUMPI PUSH2 0x1D8 JUMP JUMPDEST DUP1 PUSH4 0xA9059CBB GT PUSH2 0xD1 JUMPI DUP1 PUSH4 0xA9059CBB EQ PUSH2 0x533 JUMPI DUP1 PUSH4 0xAD974F4C EQ PUSH2 0x570 JUMPI DUP1 PUSH4 0xAE0E16D6 EQ PUSH2 0x59B JUMPI DUP1 PUSH4 0xCA9013CB EQ PUSH2 0x5C6 JUMPI PUSH2 0x1D8 JUMP JUMPDEST DUP1 PUSH4 0x7EB01269 EQ PUSH2 0x487 JUMPI DUP1 PUSH4 0x7FF9B596 EQ PUSH2 0x4B2 JUMPI DUP1 PUSH4 0x95500D19 EQ PUSH2 0x4DD JUMPI DUP1 PUSH4 0x95D89B41 EQ PUSH2 0x508 JUMPI PUSH2 0x1D8 JUMP JUMPDEST DUP1 PUSH4 0x23B872DD GT PUSH2 0x17A JUMPI DUP1 PUSH4 0x38D79AD5 GT PUSH2 0x149 JUMPI DUP1 PUSH4 0x38D79AD5 EQ PUSH2 0x3CB JUMPI DUP1 PUSH4 0x5A33E992 EQ PUSH2 0x3F4 JUMPI DUP1 PUSH4 0x5E73018C EQ PUSH2 0x41F JUMPI DUP1 PUSH4 0x70A08231 EQ PUSH2 0x44A JUMPI PUSH2 0x1D8 JUMP JUMPDEST DUP1 PUSH4 0x23B872DD EQ PUSH2 0x31C JUMPI DUP1 PUSH4 0x2DA8C5FD EQ PUSH2 0x359 JUMPI DUP1 PUSH4 0x313CE567 EQ PUSH2 0x384 JUMPI DUP1 PUSH4 0x3610724E EQ PUSH2 0x3AF JUMPI PUSH2 0x1D8 JUMP JUMPDEST DUP1 PUSH4 0x95EA7B3 GT PUSH2 0x1B6 JUMPI DUP1 PUSH4 0x95EA7B3 EQ PUSH2 0x25E JUMPI DUP1 PUSH4 0x18160DDD EQ PUSH2 0x29B JUMPI DUP1 PUSH4 0x197A65F3 EQ PUSH2 0x2C6 JUMPI DUP1 PUSH4 0x1E6E1F04 EQ PUSH2 0x2F1 JUMPI PUSH2 0x1D8 JUMP JUMPDEST DUP1 PUSH4 0x605062F EQ PUSH2 0x1DD JUMPI DUP1 PUSH4 0x6FDDE03 EQ PUSH2 0x208 JUMPI DUP1 PUSH4 0x82A14F8 EQ PUSH2 0x233 JUMPI JUMPDEST PUSH1 0x0 DUP1 REVERT JUMPDEST CALLVALUE DUP1 ISZERO PUSH2 0x1E9 JUMPI PUSH1 0x0 DUP1 REVERT JUMPDEST POP PUSH2 0x1F2 PUSH2 0x76C JUMP JUMPDEST PUSH1 0x40 MLOAD PUSH2 0x1FF SWAP2 SWAP1 PUSH2 0x1FFC JUMP JUMPDEST PUSH1 0x40 MLOAD DUP1 SWAP2 SUB SWAP1 RETURN JUMPDEST CALLVALUE DUP1 ISZERO PUSH2 0x214 JUMPI PUSH1 0x0 DUP1 REVERT JUMPDEST POP PUSH2 0x21D PUSH2 0x796 JUMP JUMPDEST PUSH1 0x40 MLOAD PUSH2 0x22A SWAP2 SWAP1 PUSH2 0x20A7 JUMP JUMPDEST PUSH1 0x40 MLOAD DUP1 SWAP2 SUB SWAP1 RETURN JUMPDEST CALLVALUE DUP1 ISZERO PUSH2 0x23F JUMPI PUSH1 0x0 DUP1 REVERT JUMPDEST POP PUSH2 0x248 PUSH2 0x828 JUMP JUMPDEST PUSH1 0x40 MLOAD PUSH2 0x255 SWAP2 SWAP1 PUSH2 0x20E2 JUMP JUMPDEST PUSH1 0x40 MLOAD DUP1 SWAP2 SUB SWAP1 RETURN JUMPDEST CALLVALUE DUP1 ISZERO PUSH2 0x26A JUMPI PUSH1 0x0 DUP1 REVERT JUMPDEST POP PUSH2 0x285 PUSH1 0x4 DUP1 CALLDATASIZE SUB DUP2 ADD SWAP1 PUSH2 0x280 SWAP2 SWAP1 PUSH2 0x215A JUMP JUMPDEST PUSH2 0x82E JUMP JUMPDEST PUSH1 0x40 MLOAD PUSH2 0x292 SWAP2 SWAP1 PUSH2 0x21B5 JUMP JUMPDEST PUSH1 0x40 MLOAD DUP1 SWAP2 SUB SWAP1 RETURN JUMPDEST CALLVALUE DUP1 ISZERO PUSH2 0x2A7 JUMPI PUSH1 0x0 DUP1 REVERT JUMPDEST POP PUSH2 0x2B0 PUSH2 0x851 JUMP JUMPDEST PUSH1 0x40 MLOAD PUSH2 0x2BD SWAP2 SWAP1 PUSH2 0x20E2 JUMP JUMPDEST PUSH1 0x40 MLOAD DUP1 SWAP2 SUB SWAP1 RETURN JUMPDEST CALLVALUE DUP1 ISZERO PUSH2 0x2D2 JUMPI PUSH1 0x0 DUP1 REVERT JUMPDEST POP PUSH2 0x2DB PUSH2 0x85B JUMP JUMPDEST PUSH1 0x40 MLOAD PUSH2 0x2E8 SWAP2 SWAP1 PUSH2 0x20E2 JUMP JUMPDEST PUSH1 0x40 MLOAD DUP1 SWAP2 SUB SWAP1 RETURN JUMPDEST CALLVALUE DUP1 ISZERO PUSH2 0x2FD JUMPI PUSH1 0x0 DUP1 REVERT JUMPDEST POP PUSH2 0x306 PUSH2 0x861 JUMP JUMPDEST PUSH1 0x40 MLOAD PUSH2 0x313 SWAP2 SWAP1 PUSH2 0x21B5 JUMP JUMPDEST PUSH1 0x40 MLOAD DUP1 SWAP2 SUB SWAP1 RETURN JUMPDEST CALLVALUE DUP1 ISZERO PUSH2 0x328 JUMPI PUSH1 0x0 DUP1 REVERT JUMPDEST POP PUSH2 0x343 PUSH1 0x4 DUP1 CALLDATASIZE SUB DUP2 ADD SWAP1 PUSH2 0x33E SWAP2 SWAP1 PUSH2 0x21D0 JUMP JUMPDEST PUSH2 0x878 JUMP JUMPDEST PUSH1 0x40 MLOAD PUSH2 0x350 SWAP2 SWAP1 PUSH2 0x21B5 JUMP JUMPDEST PUSH1 0x40 MLOAD DUP1 SWAP2 SUB SWAP1 RETURN JUMPDEST CALLVALUE DUP1 ISZERO PUSH2 0x365 JUMPI PUSH1 0x0 DUP1 REVERT JUMPDEST POP PUSH2 0x36E PUSH2 0x8A7 JUMP JUMPDEST PUSH1 0x40 MLOAD PUSH2 0x37B SWAP2 SWAP1 PUSH2 0x20E2 JUMP JUMPDEST PUSH1 0x40 MLOAD DUP1 SWAP2 SUB SWAP1 RETURN JUMPDEST CALLVALUE DUP1 ISZERO PUSH2 0x390 JUMPI PUSH1 0x0 DUP1 REVERT JUMPDEST POP PUSH2 0x399 PUSH2 0x8AD JUMP JUMPDEST PUSH1 0x40 MLOAD PUSH2 0x3A6 SWAP2 SWAP1 PUSH2 0x223F JUMP JUMPDEST PUSH1 0x40 MLOAD DUP1 SWAP2 SUB SWAP1 RETURN JUMPDEST PUSH2 0x3C9 PUSH1 0x4 DUP1 CALLDATASIZE SUB DUP2 ADD SWAP1 PUSH2 0x3C4 SWAP2 SWAP1 PUSH2 0x225A JUMP JUMPDEST PUSH2 0x8B6 JUMP JUMPDEST STOP JUMPDEST CALLVALUE DUP1 ISZERO PUSH2 0x3D7 JUMPI PUSH1 0x0 DUP1 REVERT JUMPDEST POP PUSH2 0x3F2 PUSH1 0x4 DUP1 CALLDATASIZE SUB DUP2 ADD SWAP1 PUSH2 0x3ED SWAP2 SWAP1 PUSH2 0x225A JUMP JUMPDEST PUSH2 0xB36 JUMP JUMPDEST STOP JUMPDEST CALLVALUE DUP1 ISZERO PUSH2 0x400 JUMPI PUSH1 0x0 DUP1 REVERT JUMPDEST POP PUSH2 0x409 PUSH2 0xC1F JUMP JUMPDEST PUSH1 0x40 MLOAD PUSH2 0x416 SWAP2 SWAP1 PUSH2 0x20E2 JUMP JUMPDEST PUSH1 0x40 MLOAD DUP1 SWAP2 SUB SWAP1 RETURN JUMPDEST CALLVALUE DUP1 ISZERO PUSH2 0x42B JUMPI PUSH1 0x0 DUP1 REVERT JUMPDEST POP PUSH2 0x434 PUSH2 0xC29 JUMP JUMPDEST PUSH1 0x40 MLOAD PUSH2 0x441 SWAP2 SWAP1 PUSH2 0x20E2 JUMP JUMPDEST PUSH1 0x40 MLOAD DUP1 SWAP2 SUB SWAP1 RETURN JUMPDEST CALLVALUE DUP1 ISZERO PUSH2 0x456 JUMPI PUSH1 0x0 DUP1 REVERT JUMPDEST POP PUSH2 0x471 PUSH1 0x4 DUP1 CALLDATASIZE SUB DUP2 ADD SWAP1 PUSH2 0x46C SWAP2 SWAP1 PUSH2 0x2287 JUMP JUMPDEST PUSH2 0xC2F JUMP JUMPDEST PUSH1 0x40 MLOAD PUSH2 0x47E SWAP2 SWAP1 PUSH2 0x20E2 JUMP JUMPDEST PUSH1 0x40 MLOAD DUP1 SWAP2 SUB SWAP1 RETURN JUMPDEST CALLVALUE DUP1 ISZERO PUSH2 0x493 JUMPI PUSH1 0x0 DUP1 REVERT JUMPDEST POP PUSH2 0x49C PUSH2 0xC77 JUMP JUMPDEST PUSH1 0x40 MLOAD PUSH2 0x4A9 SWAP2 SWAP1 PUSH2 0x21B5 JUMP JUMPDEST PUSH1 0x40 MLOAD DUP1 SWAP2 SUB SWAP1 RETURN JUMPDEST CALLVALUE DUP1 ISZERO PUSH2 0x4BE JUMPI PUSH1 0x0 DUP1 REVERT JUMPDEST POP PUSH2 0x4C7 PUSH2 0xC8A JUMP JUMPDEST PUSH1 0x40 MLOAD PUSH2 0x4D4 SWAP2 SWAP1 PUSH2 0x20E2 JUMP JUMPDEST PUSH1 0x40 MLOAD DUP1 SWAP2 SUB SWAP1 RETURN JUMPDEST CALLVALUE DUP1 ISZERO PUSH2 0x4E9 JUMPI PUSH1 0x0 DUP1 REVERT JUMPDEST POP PUSH2 0x4F2 PUSH2 0xC90 JUMP JUMPDEST PUSH1 0x40 MLOAD PUSH2 0x4FF SWAP2 SWAP1 PUSH2 0x20E2 JUMP JUMPDEST PUSH1 0x40 MLOAD DUP1 SWAP2 SUB SWAP1 RETURN JUMPDEST CALLVALUE DUP1 ISZERO PUSH2 0x514 JUMPI PUSH1 0x0 DUP1 REVERT JUMPDEST POP PUSH2 0x51D PUSH2 0xC9A JUMP JUMPDEST PUSH1 0x40 MLOAD PUSH2 0x52A SWAP2 SWAP1 PUSH2 0x20A7 JUMP JUMPDEST PUSH1 0x40 MLOAD DUP1 SWAP2 SUB SWAP1 RETURN JUMPDEST CALLVALUE DUP1 ISZERO PUSH2 0x53F JUMPI PUSH1 0x0 DUP1 REVERT JUMPDEST POP PUSH2 0x55A PUSH1 0x4 DUP1 CALLDATASIZE SUB DUP2 ADD SWAP1 PUSH2 0x555 SWAP2 SWAP1 PUSH2 0x215A JUMP JUMPDEST PUSH2 0xD2C JUMP JUMPDEST PUSH1 0x40 MLOAD PUSH2 0x567 SWAP2 SWAP1 PUSH2 0x21B5 JUMP JUMPDEST PUSH1 0x40 MLOAD DUP1 SWAP2 SUB SWAP1 RETURN JUMPDEST CALLVALUE DUP1 ISZERO PUSH2 0x57C JUMPI PUSH1 0x0 DUP1 REVERT JUMPDEST POP PUSH2 0x585 PUSH2 0xD4F JUMP JUMPDEST PUSH1 0x40 MLOAD PUSH2 0x592 SWAP2 SWAP1 PUSH2 0x20E2 JUMP JUMPDEST PUSH1 0x40 MLOAD DUP1 SWAP2 SUB SWAP1 RETURN JUMPDEST CALLVALUE DUP1 ISZERO PUSH2 0x5A7 JUMPI PUSH1 0x0 DUP1 REVERT JUMPDEST POP PUSH2 0x5B0 PUSH2 0xD59 JUMP JUMPDEST PUSH1 0x40 MLOAD PUSH2 0x5BD SWAP2 SWAP1 PUSH2 0x20E2 JUMP JUMPDEST PUSH1 0x40 MLOAD DUP1 SWAP2 SUB SWAP1 RETURN JUMPDEST CALLVALUE DUP1 ISZERO PUSH2 0x5D2 JUMPI PUSH1 0x0 DUP1 REVERT JUMPDEST POP PUSH2 0x5ED PUSH1 0x4 DUP1 CALLDATASIZE SUB DUP2 ADD SWAP1 PUSH2 0x5E8 SWAP2 SWAP1 PUSH2 0x22E0 JUMP JUMPDEST PUSH2 0xDB2 JUMP JUMPDEST STOP JUMPDEST PUSH2 0x5F7 PUSH2 0x1022 JUMP JUMPDEST STOP JUMPDEST CALLVALUE DUP1 ISZERO PUSH2 0x605 JUMPI PUSH1 0x0 DUP1 REVERT JUMPDEST POP PUSH2 0x620 PUSH1 0x4 DUP1 CALLDATASIZE SUB DUP2 ADD SWAP1 PUSH2 0x61B SWAP2 SWAP1 PUSH2 0x2287 JUMP JUMPDEST PUSH2 0x1406 JUMP JUMPDEST PUSH1 0x40 MLOAD PUSH2 0x62D SWAP2 SWAP1 PUSH2 0x20E2 JUMP JUMPDEST PUSH1 0x40 MLOAD DUP1 SWAP2 SUB SWAP1 RETURN JUMPDEST CALLVALUE DUP1 ISZERO PUSH2 0x642 JUMPI PUSH1 0x0 DUP1 REVERT JUMPDEST POP PUSH2 0x65D PUSH1 0x4 DUP1 CALLDATASIZE SUB DUP2 ADD SWAP1 PUSH2 0x658 SWAP2 SWAP1 PUSH2 0x235B JUMP JUMPDEST PUSH2 0x144F JUMP JUMPDEST PUSH1 0x40 MLOAD PUSH2 0x66A SWAP2 SWAP1 PUSH2 0x20E2 JUMP JUMPDEST PUSH1 0x40 MLOAD DUP1 SWAP2 SUB SWAP1 RETURN JUMPDEST CALLVALUE DUP1 ISZERO PUSH2 0x67F JUMPI PUSH1 0x0 DUP1 REVERT JUMPDEST POP PUSH2 0x69A PUSH1 0x4 DUP1 CALLDATASIZE SUB DUP2 ADD SWAP1 PUSH2 0x695 SWAP2 SWAP1 PUSH2 0x2287 JUMP JUMPDEST PUSH2 0x14D6 JUMP JUMPDEST PUSH1 0x40 MLOAD PUSH2 0x6A7 SWAP2 SWAP1 PUSH2 0x20E2 JUMP JUMPDEST PUSH1 0x40 MLOAD DUP1 SWAP2 SUB SWAP1 RETURN JUMPDEST CALLVALUE DUP1 ISZERO PUSH2 0x6BC JUMPI PUSH1 0x0 DUP1 REVERT JUMPDEST POP PUSH2 0x6D7 PUSH1 0x4 DUP1 CALLDATASIZE SUB DUP2 ADD SWAP1 PUSH2 0x6D2 SWAP2 SWAP1 PUSH2 0x225A JUMP JUMPDEST PUSH2 0x14EE JUMP JUMPDEST PUSH1 0x40 MLOAD PUSH2 0x6E4 SWAP2 SWAP1 PUSH2 0x1FFC JUMP JUMPDEST PUSH1 0x40 MLOAD DUP1 SWAP2 SUB SWAP1 RETURN JUMPDEST CALLVALUE DUP1 ISZERO PUSH2 0x6F9 JUMPI PUSH1 0x0 DUP1 REVERT JUMPDEST POP PUSH2 0x702 PUSH2 0x152D JUMP JUMPDEST PUSH1 0x40 MLOAD PUSH2 0x70F SWAP2 SWAP1 PUSH2 0x1FFC JUMP JUMPDEST PUSH1 0x40 MLOAD DUP1 SWAP2 SUB SWAP1 RETURN JUMPDEST CALLVALUE DUP1 ISZERO PUSH2 0x724 JUMPI PUSH1 0x0 DUP1 REVERT JUMPDEST POP PUSH2 0x73F PUSH1 0x4 DUP1 CALLDATASIZE SUB DUP2 ADD SWAP1 PUSH2 0x73A SWAP2 SWAP1 PUSH2 0x225A JUMP JUMPDEST PUSH2 0x1553 JUMP JUMPDEST STOP JUMPDEST CALLVALUE DUP1 ISZERO PUSH2 0x74D JUMPI PUSH1 0x0 DUP1 REVERT JUMPDEST POP PUSH2 0x756 PUSH2 0x15ED JUMP JUMPDEST PUSH1 0x40 MLOAD PUSH2 0x763 SWAP2 SWAP1 PUSH2 0x2459 JUMP JUMPDEST PUSH1 0x40 MLOAD DUP1 SWAP2 SUB SWAP1 RETURN JUMPDEST PUSH1 0x0 PUSH1 0x9 PUSH1 0x0 SWAP1 SLOAD SWAP1 PUSH2 0x100 EXP SWAP1 DIV PUSH20 0xFFFFFFFFFFFFFFFFFFFFFFFFFFFFFFFFFFFFFFFF AND SWAP1 POP SWAP1 JUMP JUMPDEST PUSH1 0x60 PUSH1 0x3 DUP1 SLOAD PUSH2 0x7A5 SWAP1 PUSH2 0x24AA JUMP JUMPDEST DUP1 PUSH1 0x1F ADD PUSH1 0x20 DUP1 SWAP2 DIV MUL PUSH1 0x20 ADD PUSH1 0x40 MLOAD SWAP1 DUP2 ADD PUSH1 0x40 MSTORE DUP1 SWAP3 SWAP2 SWAP1 DUP2 DUP2 MSTORE PUSH1 0x20 ADD DUP3 DUP1 SLOAD PUSH2 0x7D1 SWAP1 PUSH2 0x24AA JUMP JUMPDEST DUP1 ISZERO PUSH2 0x81E JUMPI DUP1 PUSH1 0x1F LT PUSH2 0x7F3 JUMPI PUSH2 0x100 DUP1 DUP4 SLOAD DIV MUL DUP4 MSTORE SWAP2 PUSH1 0x20 ADD SWAP2 PUSH2 0x81E JUMP JUMPDEST DUP3 ADD SWAP2 SWAP1 PUSH1 0x0 MSTORE PUSH1 0x20 PUSH1 0x0 KECCAK256 SWAP1 JUMPDEST DUP2 SLOAD DUP2 MSTORE SWAP1 PUSH1 0x1 ADD SWAP1 PUSH1 0x20 ADD DUP1 DUP4 GT PUSH2 0x801 JUMPI DUP3 SWAP1 SUB PUSH1 0x1F AND DUP3 ADD SWAP2 JUMPDEST POP POP POP POP POP SWAP1 POP SWAP1 JUMP JUMPDEST PUSH1 0x6 SLOAD DUP2 JUMP JUMPDEST PUSH1 0x0 DUP1 PUSH2 0x839 PUSH2 0x167B JUMP JUMPDEST SWAP1 POP PUSH2 0x846 DUP2 DUP6 DUP6 PUSH2 0x1683 JUMP JUMPDEST PUSH1 0x1 SWAP2 POP POP SWAP3 SWAP2 POP POP JUMP JUMPDEST PUSH1 0x0 PUSH1 0x2 SLOAD SWAP1 POP SWAP1 JUMP JUMPDEST PUSH1 0xC SLOAD DUP2 JUMP JUMPDEST PUSH1 0x0 PUSH1 0xE PUSH1 0x0 SWAP1 SLOAD SWAP1 PUSH2 0x100 EXP SWAP1 DIV PUSH1 0xFF AND SWAP1 POP SWAP1 JUMP JUMPDEST PUSH1 0x0 DUP1 PUSH2 0x883 PUSH2 0x167B JUMP JUMPDEST SWAP1 POP PUSH2 0x890 DUP6 DUP3 DUP6 PUSH2 0x1695 JUMP JUMPDEST PUSH2 0x89B DUP6 DUP6 DUP6 PUSH2 0x172A JUMP JUMPDEST PUSH1 0x1 SWAP2 POP POP SWAP4 SWAP3 POP POP POP JUMP JUMPDEST PUSH1 0x7 SLOAD DUP2 JUMP JUMPDEST PUSH1 0x0 PUSH1 0x12 SWAP1 POP SWAP1 JUMP JUMPDEST PUSH2 0x8BE PUSH2 0x181E JUMP JUMPDEST PUSH1 0x0 PUSH1 0x8 SLOAD DUP3 PUSH2 0x8CE SWAP2 SWAP1 PUSH2 0x250A JUMP JUMPDEST SWAP1 POP PUSH1 0x0 PUSH1 0x7 SLOAD GT PUSH2 0x915 JUMPI PUSH1 0x40 MLOAD PUSH32 0x8C379A000000000000000000000000000000000000000000000000000000000 DUP2 MSTORE PUSH1 0x4 ADD PUSH2 0x90C SWAP1 PUSH2 0x2598 JUMP JUMPDEST PUSH1 0x40 MLOAD DUP1 SWAP2 SUB SWAP1 REVERT JUMPDEST DUP1 CALLVALUE LT ISZERO PUSH2 0x958 JUMPI PUSH1 0x40 MLOAD PUSH32 0x8C379A000000000000000000000000000000000000000000000000000000000 DUP2 MSTORE PUSH1 0x4 ADD PUSH2 0x94F SWAP1 PUSH2 0x2604 JUMP JUMPDEST PUSH1 0x40 MLOAD DUP1 SWAP2 SUB SWAP1 REVERT JUMPDEST DUP2 PUSH1 0x7 SLOAD LT ISZERO PUSH2 0x99D JUMPI PUSH1 0x40 MLOAD PUSH32 0x8C379A000000000000000000000000000000000000000000000000000000000 DUP2 MSTORE PUSH1 0x4 ADD PUSH2 0x994 SWAP1 PUSH2 0x2670 JUMP JUMPDEST PUSH1 0x40 MLOAD DUP1 SWAP2 SUB SWAP1 REVERT JUMPDEST PUSH2 0x9A8 ADDRESS CALLER DUP5 PUSH2 0x172A JUMP JUMPDEST DUP2 PUSH1 0xA PUSH1 0x0 CALLER PUSH20 0xFFFFFFFFFFFFFFFFFFFFFFFFFFFFFFFFFFFFFFFF AND PUSH20 0xFFFFFFFFFFFFFFFFFFFFFFFFFFFFFFFFFFFFFFFF AND DUP2 MSTORE PUSH1 0x20 ADD SWAP1 DUP2 MSTORE PUSH1 0x20 ADD PUSH1 0x0 KECCAK256 PUSH1 0x0 DUP3 DUP3 SLOAD PUSH2 0x9F7 SWAP2 SWAP1 PUSH2 0x2690 JUMP JUMPDEST SWAP3 POP POP DUP2 SWAP1 SSTORE POP DUP2 PUSH1 0x7 PUSH1 0x0 DUP3 DUP3 SLOAD PUSH2 0xA10 SWAP2 SWAP1 PUSH2 0x26C4 JUMP JUMPDEST SWAP3 POP POP DUP2 SWAP1 SSTORE POP PUSH1 0x9 PUSH1 0x0 SWAP1 SLOAD SWAP1 PUSH2 0x100 EXP SWAP1 DIV PUSH20 0xFFFFFFFFFFFFFFFFFFFFFFFFFFFFFFFFFFFFFFFF AND PUSH20 0xFFFFFFFFFFFFFFFFFFFFFFFFFFFFFFFFFFFFFFFF AND PUSH2 0x8FC CALLVALUE SWAP1 DUP2 ISZERO MUL SWAP1 PUSH1 0x40 MLOAD PUSH1 0x0 PUSH1 0x40 MLOAD DUP1 DUP4 SUB DUP2 DUP6 DUP9 DUP9 CALL SWAP4 POP POP POP POP ISZERO DUP1 ISZERO PUSH2 0xA7F JUMPI RETURNDATASIZE PUSH1 0x0 DUP1 RETURNDATACOPY RETURNDATASIZE PUSH1 0x0 REVERT JUMPDEST POP DUP2 PUSH1 0xA PUSH1 0x0 CALLER PUSH20 0xFFFFFFFFFFFFFFFFFFFFFFFFFFFFFFFFFFFFFFFF AND PUSH20 0xFFFFFFFFFFFFFFFFFFFFFFFFFFFFFFFFFFFFFFFF AND DUP2 MSTORE PUSH1 0x20 ADD SWAP1 DUP2 MSTORE PUSH1 0x20 ADD PUSH1 0x0 KECCAK256 SLOAD SUB PUSH2 0xB2A JUMPI PUSH1 0xB CALLER SWAP1 DUP1 PUSH1 0x1 DUP2 SLOAD ADD DUP1 DUP3 SSTORE DUP1 SWAP2 POP POP PUSH1 0x1 SWAP1 SUB SWAP1 PUSH1 0x0 MSTORE PUSH1 0x20 PUSH1 0x0 KECCAK256 ADD PUSH1 0x0 SWAP1 SWAP2 SWAP1 SWAP2 SWAP1 SWAP2 PUSH2 0x100 EXP DUP2 SLOAD DUP2 PUSH20 0xFFFFFFFFFFFFFFFFFFFFFFFFFFFFFFFFFFFFFFFF MUL NOT AND SWAP1 DUP4 PUSH20 0xFFFFFFFFFFFFFFFFFFFFFFFFFFFFFFFFFFFFFFFF AND MUL OR SWAP1 SSTORE POP JUMPDEST POP PUSH2 0xB33 PUSH2 0x1864 JUMP JUMPDEST POP JUMP JUMPDEST PUSH1 0x9 PUSH1 0x0 SWAP1 SLOAD SWAP1 PUSH2 0x100 EXP SWAP1 DIV PUSH20 0xFFFFFFFFFFFFFFFFFFFFFFFFFFFFFFFFFFFFFFFF AND PUSH20 0xFFFFFFFFFFFFFFFFFFFFFFFFFFFFFFFFFFFFFFFF AND CALLER PUSH20 0xFFFFFFFFFFFFFFFFFFFFFFFFFFFFFFFFFFFFFFFF AND EQ PUSH2 0xBC6 JUMPI PUSH1 0x40 MLOAD PUSH32 0x8C379A000000000000000000000000000000000000000000000000000000000 DUP2 MSTORE PUSH1 0x4 ADD PUSH2 0xBBD SWAP1 PUSH2 0x276A JUMP JUMPDEST PUSH1 0x40 MLOAD DUP1 SWAP2 SUB SWAP1 REVERT JUMPDEST PUSH1 0xE PUSH1 0x0 SWAP1 SLOAD SWAP1 PUSH2 0x100 EXP SWAP1 DIV PUSH1 0xFF AND PUSH2 0xC15 JUMPI PUSH1 0x40 MLOAD PUSH32 0x8C379A000000000000000000000000000000000000000000000000000000000 DUP2 MSTORE PUSH1 0x4 ADD PUSH2 0xC0C SWAP1 PUSH2 0x27D6 JUMP JUMPDEST PUSH1 0x40 MLOAD DUP1 SWAP2 SUB SWAP1 REVERT JUMPDEST DUP1 PUSH1 0xC DUP2 SWAP1 SSTORE POP POP JUMP JUMPDEST PUSH1 0x0 PUSH1 0xC SLOAD SWAP1 POP SWAP1 JUMP JUMPDEST PUSH1 0xD SLOAD DUP2 JUMP JUMPDEST PUSH1 0x0 DUP1 PUSH1 0x0 DUP4 PUSH20 0xFFFFFFFFFFFFFFFFFFFFFFFFFFFFFFFFFFFFFFFF AND PUSH20 0xFFFFFFFFFFFFFFFFFFFFFFFFFFFFFFFFFFFFFFFF AND DUP2 MSTORE PUSH1 0x20 ADD SWAP1 DUP2 MSTORE PUSH1 0x20 ADD PUSH1 0x0 KECCAK256 SLOAD SWAP1 POP SWAP2 SWAP1 POP JUMP JUMPDEST PUSH1 0xE PUSH1 0x0 SWAP1 SLOAD SWAP1 PUSH2 0x100 EXP SWAP1 DIV PUSH1 0xFF AND DUP2 JUMP JUMPDEST PUSH1 0x8 SLOAD DUP2 JUMP JUMPDEST PUSH1 0x0 PUSH1 0xD SLOAD SWAP1 POP SWAP1 JUMP JUMPDEST PUSH1 0x60 PUSH1 0x4 DUP1 SLOAD PUSH2 0xCA9 SWAP1 PUSH2 0x24AA JUMP JUMPDEST DUP1 PUSH1 0x1F ADD PUSH1 0x20 DUP1 SWAP2 DIV MUL PUSH1 0x20 ADD PUSH1 0x40 MLOAD SWAP1 DUP2 ADD PUSH1 0x40 MSTORE DUP1 SWAP3 SWAP2 SWAP1 DUP2 DUP2 MSTORE PUSH1 0x20 ADD DUP3 DUP1 SLOAD PUSH2 0xCD5 SWAP1 PUSH2 0x24AA JUMP JUMPDEST DUP1 ISZERO PUSH2 0xD22 JUMPI DUP1 PUSH1 0x1F LT PUSH2 0xCF7 JUMPI PUSH2 0x100 DUP1 DUP4 SLOAD DIV MUL DUP4 MSTORE SWAP2 PUSH1 0x20 ADD SWAP2 PUSH2 0xD22 JUMP JUMPDEST DUP3 ADD SWAP2 SWAP1 PUSH1 0x0 MSTORE PUSH1 0x20 PUSH1 0x0 KECCAK256 SWAP1 JUMPDEST DUP2 SLOAD DUP2 MSTORE SWAP1 PUSH1 0x1 ADD SWAP1 PUSH1 0x20 ADD DUP1 DUP4 GT PUSH2 0xD05 JUMPI DUP3 SWAP1 SUB PUSH1 0x1F AND DUP3 ADD SWAP2 JUMPDEST POP POP POP POP POP SWAP1 POP SWAP1 JUMP JUMPDEST PUSH1 0x0 DUP1 PUSH2 0xD37 PUSH2 0x167B JUMP JUMPDEST SWAP1 POP PUSH2 0xD44 DUP2 DUP6 DUP6 PUSH2 0x172A JUMP JUMPDEST PUSH1 0x1 SWAP2 POP POP SWAP3 SWAP2 POP POP JUMP JUMPDEST PUSH1 0x0 PUSH1 0x7 SLOAD SWAP1 POP SWAP1 JUMP JUMPDEST PUSH1 0x0 PUSH1 0xE PUSH1 0x0 SWAP1 SLOAD SWAP1 PUSH2 0x100 EXP SWAP1 DIV PUSH1 0xFF AND PUSH2 0xDAA JUMPI PUSH1 0x40 MLOAD PUSH32 0x8C379A000000000000000000000000000000000000000000000000000000000 DUP2 MSTORE PUSH1 0x4 ADD PUSH2 0xDA1 SWAP1 PUSH2 0x27D6 JUMP JUMPDEST PUSH1 0x40 MLOAD DUP1 SWAP2 SUB SWAP1 REVERT JUMPDEST PUSH1 0xC SLOAD SWAP1 POP SWAP1 JUMP JUMPDEST PUSH1 0x0 PUSH1 0x7 SLOAD EQ PUSH2 0xDF7 JUMPI PUSH1 0x40 MLOAD PUSH32 0x8C379A000000000000000000000000000000000000000000000000000000000 DUP2 MSTORE PUSH1 0x4 ADD PUSH2 0xDEE SWAP1 PUSH2 0x2842 JUMP JUMPDEST PUSH1 0x40 MLOAD DUP1 SWAP2 SUB SWAP1 REVERT JUMPDEST DUP5 PUSH1 0x6 DUP2 SWAP1 SSTORE POP DUP5 PUSH1 0x7 DUP2 SWAP1 SSTORE POP PUSH1 0x0 PUSH1 0x7 SLOAD GT PUSH2 0xE4A JUMPI PUSH1 0x40 MLOAD PUSH32 0x8C379A000000000000000000000000000000000000000000000000000000000 DUP2 MSTORE PUSH1 0x4 ADD PUSH2 0xE41 SWAP1 PUSH2 0x28D4 JUMP JUMPDEST PUSH1 0x40 MLOAD DUP1 SWAP2 SUB SWAP1 REVERT JUMPDEST PUSH10 0xD3C21BCECCEDA1000000 PUSH1 0x7 SLOAD GT ISZERO PUSH2 0xE99 JUMPI PUSH1 0x40 MLOAD PUSH32 0x8C379A000000000000000000000000000000000000000000000000000000000 DUP2 MSTORE PUSH1 0x4 ADD PUSH2 0xE90 SWAP1 PUSH2 0x2940 JUMP JUMPDEST PUSH1 0x40 MLOAD DUP1 SWAP2 SUB SWAP1 REVERT JUMPDEST DUP4 PUSH1 0x8 DUP2 SWAP1 SSTORE POP PUSH1 0x0 DUP5 GT PUSH2 0xEE3 JUMPI PUSH1 0x40 MLOAD PUSH32 0x8C379A000000000000000000000000000000000000000000000000000000000 DUP2 MSTORE PUSH1 0x4 ADD PUSH2 0xEDA SWAP1 PUSH2 0x29D2 JUMP JUMPDEST PUSH1 0x40 MLOAD DUP1 SWAP2 SUB SWAP1 REVERT JUMPDEST DUP3 PUSH1 0x9 PUSH1 0x0 PUSH2 0x100 EXP DUP2 SLOAD DUP2 PUSH20 0xFFFFFFFFFFFFFFFFFFFFFFFFFFFFFFFFFFFFFFFF MUL NOT AND SWAP1 DUP4 PUSH20 0xFFFFFFFFFFFFFFFFFFFFFFFFFFFFFFFFFFFFFFFF AND MUL OR SWAP1 SSTORE POP PUSH1 0x0 PUSH20 0xFFFFFFFFFFFFFFFFFFFFFFFFFFFFFFFFFFFFFFFF AND DUP4 PUSH20 0xFFFFFFFFFFFFFFFFFFFFFFFFFFFFFFFFFFFFFFFF AND SUB PUSH2 0xF93 JUMPI PUSH1 0x40 MLOAD PUSH32 0x8C379A000000000000000000000000000000000000000000000000000000000 DUP2 MSTORE PUSH1 0x4 ADD PUSH2 0xF8A SWAP1 PUSH2 0x2A3E JUMP JUMPDEST PUSH1 0x40 MLOAD DUP1 SWAP2 SUB SWAP1 REVERT JUMPDEST DUP2 PUSH1 0xE PUSH1 0x0 PUSH2 0x100 EXP DUP2 SLOAD DUP2 PUSH1 0xFF MUL NOT AND SWAP1 DUP4 ISZERO ISZERO MUL OR SWAP1 SSTORE POP PUSH2 0xFB9 ADDRESS PUSH1 0x7 SLOAD PUSH2 0x186E JUMP JUMPDEST PUSH1 0xE PUSH1 0x0 SWAP1 SLOAD SWAP1 PUSH2 0x100 EXP SWAP1 DIV PUSH1 0xFF AND ISZERO PUSH2 0x101B JUMPI PUSH1 0x0 DUP2 GT PUSH2 0x1011 JUMPI PUSH1 0x40 MLOAD PUSH32 0x8C379A000000000000000000000000000000000000000000000000000000000 DUP2 MSTORE PUSH1 0x4 ADD PUSH2 0x1008 SWAP1 PUSH2 0x2AD0 JUMP JUMPDEST PUSH1 0x40 MLOAD DUP1 SWAP2 SUB SWAP1 REVERT JUMPDEST PUSH2 0x101A DUP2 PUSH2 0x18F0 JUMP JUMPDEST JUMPDEST POP POP POP POP POP JUMP JUMPDEST PUSH2 0x102A PUSH2 0x181E JUMP JUMPDEST PUSH1 0xE PUSH1 0x0 SWAP1 SLOAD SWAP1 PUSH2 0x100 EXP SWAP1 DIV PUSH1 0xFF AND PUSH2 0x1079 JUMPI PUSH1 0x40 MLOAD PUSH32 0x8C379A000000000000000000000000000000000000000000000000000000000 DUP2 MSTORE PUSH1 0x4 ADD PUSH2 0x1070 SWAP1 PUSH2 0x27D6 JUMP JUMPDEST PUSH1 0x40 MLOAD DUP1 SWAP2 SUB SWAP1 REVERT JUMPDEST PUSH1 0x9 PUSH1 0x0 SWAP1 SLOAD SWAP1 PUSH2 0x100 EXP SWAP1 DIV PUSH20 0xFFFFFFFFFFFFFFFFFFFFFFFFFFFFFFFFFFFFFFFF AND PUSH20 0xFFFFFFFFFFFFFFFFFFFFFFFFFFFFFFFFFFFFFFFF AND CALLER PUSH20 0xFFFFFFFFFFFFFFFFFFFFFFFFFFFFFFFFFFFFFFFF AND EQ PUSH2 0x1109 JUMPI PUSH1 0x40 MLOAD PUSH32 0x8C379A000000000000000000000000000000000000000000000000000000000 DUP2 MSTORE PUSH1 0x4 ADD PUSH2 0x1100 SWAP1 PUSH2 0x2B62 JUMP JUMPDEST PUSH1 0x40 MLOAD DUP1 SWAP2 SUB SWAP1 REVERT JUMPDEST PUSH3 0x278D00 PUSH1 0xD SLOAD PUSH2 0x111A SWAP2 SWAP1 PUSH2 0x2690 JUMP JUMPDEST TIMESTAMP LT ISZERO PUSH2 0x115C JUMPI PUSH1 0x40 MLOAD PUSH32 0x8C379A000000000000000000000000000000000000000000000000000000000 DUP2 MSTORE PUSH1 0x4 ADD PUSH2 0x1153 SWAP1 PUSH2 0x2BF4 JUMP JUMPDEST PUSH1 0x40 MLOAD DUP1 SWAP2 SUB SWAP1 REVERT JUMPDEST PUSH1 0xC SLOAD CALLVALUE LT ISZERO PUSH2 0x11A1 JUMPI PUSH1 0x40 MLOAD PUSH32 0x8C379A000000000000000000000000000000000000000000000000000000000 DUP2 MSTORE PUSH1 0x4 ADD PUSH2 0x1198 SWAP1 PUSH2 0x2C86 JUMP JUMPDEST PUSH1 0x40 MLOAD DUP1 SWAP2 SUB SWAP1 REVERT JUMPDEST PUSH1 0x0 PUSH1 0x6 SLOAD GT PUSH2 0x11E6 JUMPI PUSH1 0x40 MLOAD PUSH32 0x8C379A000000000000000000000000000000000000000000000000000000000 DUP2 MSTORE PUSH1 0x4 ADD PUSH2 0x11DD SWAP1 PUSH2 0x2D18 JUMP JUMPDEST PUSH1 0x40 MLOAD DUP1 SWAP2 SUB SWAP1 REVERT JUMPDEST PUSH1 0x0 PUSH1 0x6 SLOAD SWAP1 POP PUSH1 0x0 CALLVALUE SWAP1 POP PUSH1 0x0 JUMPDEST PUSH1 0xB DUP1 SLOAD SWAP1 POP DUP2 LT ISZERO PUSH2 0x13F9 JUMPI PUSH1 0x0 PUSH1 0xB DUP3 DUP2 SLOAD DUP2 LT PUSH2 0x1218 JUMPI PUSH2 0x1217 PUSH2 0x2D38 JUMP JUMPDEST JUMPDEST SWAP1 PUSH1 0x0 MSTORE PUSH1 0x20 PUSH1 0x0 KECCAK256 ADD PUSH1 0x0 SWAP1 SLOAD SWAP1 PUSH2 0x100 EXP SWAP1 DIV PUSH20 0xFFFFFFFFFFFFFFFFFFFFFFFFFFFFFFFFFFFFFFFF AND SWAP1 POP PUSH1 0x0 PUSH1 0xA PUSH1 0x0 DUP4 PUSH20 0xFFFFFFFFFFFFFFFFFFFFFFFFFFFFFFFFFFFFFFFF AND PUSH20 0xFFFFFFFFFFFFFFFFFFFFFFFFFFFFFFFFFFFFFFFF AND DUP2 MSTORE PUSH1 0x20 ADD SWAP1 DUP2 MSTORE PUSH1 0x20 ADD PUSH1 0x0 KECCAK256 SLOAD SWAP1 POP PUSH2 0x12C8 PUSH1 0x40 MLOAD DUP1 PUSH1 0x40 ADD PUSH1 0x40 MSTORE DUP1 PUSH1 0xF DUP2 MSTORE PUSH1 0x20 ADD PUSH32 0x427579657220616464726573733A200000000000000000000000000000000000 DUP2 MSTORE POP DUP4 PUSH2 0x1995 JUMP JUMPDEST PUSH2 0x1307 PUSH1 0x40 MLOAD DUP1 PUSH1 0x40 ADD PUSH1 0x40 MSTORE DUP1 PUSH1 0x17 DUP2 MSTORE PUSH1 0x20 ADD PUSH32 0x546F6B656E73206F776E65642062792062757965723A20000000000000000000 DUP2 MSTORE POP DUP3 PUSH2 0x1A31 JUMP JUMPDEST PUSH1 0x0 DUP2 GT ISZERO PUSH2 0x13EA JUMPI PUSH1 0x0 DUP6 DUP6 DUP4 PUSH2 0x131F SWAP2 SWAP1 PUSH2 0x250A JUMP JUMPDEST PUSH2 0x1329 SWAP2 SWAP1 PUSH2 0x2D96 JUMP JUMPDEST SWAP1 POP DUP3 PUSH20 0xFFFFFFFFFFFFFFFFFFFFFFFFFFFFFFFFFFFFFFFF AND PUSH2 0x8FC DUP3 SWAP1 DUP2 ISZERO MUL SWAP1 PUSH1 0x40 MLOAD PUSH1 0x0 PUSH1 0x40 MLOAD DUP1 DUP4 SUB DUP2 DUP6 DUP9 DUP9 CALL SWAP4 POP POP POP POP ISZERO DUP1 ISZERO PUSH2 0x1371 JUMPI RETURNDATASIZE PUSH1 0x0 DUP1 RETURNDATACOPY RETURNDATASIZE PUSH1 0x0 REVERT JUMPDEST POP PUSH2 0x13E8 PUSH1 0x40 MLOAD DUP1 PUSH1 0x40 ADD PUSH1 0x40 MSTORE DUP1 PUSH1 0xC DUP2 MSTORE PUSH1 0x20 ADD PUSH32 0x5472616E73666572726564200000000000000000000000000000000000000000 DUP2 MSTORE POP DUP3 PUSH1 0x40 MLOAD DUP1 PUSH1 0x40 ADD PUSH1 0x40 MSTORE DUP1 PUSH1 0xF DUP2 MSTORE PUSH1 0x20 ADD PUSH32 0x2045544820746F2062757965723A200000000000000000000000000000000000 DUP2 MSTORE POP DUP7 PUSH2 0x1ACD JUMP JUMPDEST POP JUMPDEST POP POP DUP1 DUP1 PUSH1 0x1 ADD SWAP2 POP POP PUSH2 0x11F5 JUMP JUMPDEST POP POP POP PUSH2 0x1404 PUSH2 0x1864 JUMP JUMPDEST JUMP JUMPDEST PUSH1 0x0 PUSH1 0xA PUSH1 0x0 DUP4 PUSH20 0xFFFFFFFFFFFFFFFFFFFFFFFFFFFFFFFFFFFFFFFF AND PUSH20 0xFFFFFFFFFFFFFFFFFFFFFFFFFFFFFFFFFFFFFFFF AND DUP2 MSTORE PUSH1 0x20 ADD SWAP1 DUP2 MSTORE PUSH1 0x20 ADD PUSH1 0x0 KECCAK256 SLOAD SWAP1 POP SWAP2 SWAP1 POP JUMP JUMPDEST PUSH1 0x0 PUSH1 0x1 PUSH1 0x0 DUP5 PUSH20 0xFFFFFFFFFFFFFFFFFFFFFFFFFFFFFFFFFFFFFFFF AND PUSH20 0xFFFFFFFFFFFFFFFFFFFFFFFFFFFFFFFFFFFFFFFF AND DUP2 MSTORE PUSH1 0x20 ADD SWAP1 DUP2 MSTORE PUSH1 0x20 ADD PUSH1 0x0 KECCAK256 PUSH1 0x0 DUP4 PUSH20 0xFFFFFFFFFFFFFFFFFFFFFFFFFFFFFFFFFFFFFFFF AND PUSH20 0xFFFFFFFFFFFFFFFFFFFFFFFFFFFFFFFFFFFFFFFF AND DUP2 MSTORE PUSH1 0x20 ADD SWAP1 DUP2 MSTORE PUSH1 0x20 ADD PUSH1 0x0 KECCAK256 SLOAD SWAP1 POP SWAP3 SWAP2 POP POP JUMP JUMPDEST PUSH1 0xA PUSH1 0x20 MSTORE DUP1 PUSH1 0x0 MSTORE PUSH1 0x40 PUSH1 0x0 KECCAK256 PUSH1 0x0 SWAP2 POP SWAP1 POP SLOAD DUP2 JUMP JUMPDEST PUSH1 0xB DUP2 DUP2 SLOAD DUP2 LT PUSH2 0x14FE JUMPI PUSH1 0x0 DUP1 REVERT JUMPDEST SWAP1 PUSH1 0x0 MSTORE PUSH1 0x20 PUSH1 0x0 KECCAK256 ADD PUSH1 0x0 SWAP2 POP SLOAD SWAP1 PUSH2 0x100 EXP SWAP1 DIV PUSH20 0xFFFFFFFFFFFFFFFFFFFFFFFFFFFFFFFFFFFFFFFF AND DUP2 JUMP JUMPDEST PUSH1 0x9 PUSH1 0x0 SWAP1 SLOAD SWAP1 PUSH2 0x100 EXP SWAP1 DIV PUSH20 0xFFFFFFFFFFFFFFFFFFFFFFFFFFFFFFFFFFFFFFFF AND DUP2 JUMP JUMPDEST PUSH1 0x9 PUSH1 0x0 SWAP1 SLOAD SWAP1 PUSH2 0x100 EXP SWAP1 DIV PUSH20 0xFFFFFFFFFFFFFFFFFFFFFFFFFFFFFFFFFFFFFFFF AND PUSH20 0xFFFFFFFFFFFFFFFFFFFFFFFFFFFFFFFFFFFFFFFF AND CALLER PUSH20 0xFFFFFFFFFFFFFFFFFFFFFFFFFFFFFFFFFFFFFFFF AND EQ PUSH2 0x15E3 JUMPI PUSH1 0x40 MLOAD PUSH32 0x8C379A000000000000000000000000000000000000000000000000000000000 DUP2 MSTORE PUSH1 0x4 ADD PUSH2 0x15DA SWAP1 PUSH2 0x2E13 JUMP JUMPDEST PUSH1 0x40 MLOAD DUP1 SWAP2 SUB SWAP1 REVERT JUMPDEST DUP1 PUSH1 0xD DUP2 SWAP1 SSTORE POP POP JUMP JUMPDEST PUSH1 0x60 PUSH1 0xB DUP1 SLOAD DUP1 PUSH1 0x20 MUL PUSH1 0x20 ADD PUSH1 0x40 MLOAD SWAP1 DUP2 ADD PUSH1 0x40 MSTORE DUP1 SWAP3 SWAP2 SWAP1 DUP2 DUP2 MSTORE PUSH1 0x20 ADD DUP3 DUP1 SLOAD DUP1 ISZERO PUSH2 0x1671 JUMPI PUSH1 0x20 MUL DUP3 ADD SWAP2 SWAP1 PUSH1 0x0 MSTORE PUSH1 0x20 PUSH1 0x0 KECCAK256 SWAP1 JUMPDEST DUP2 PUSH1 0x0 SWAP1 SLOAD SWAP1 PUSH2 0x100 EXP SWAP1 DIV PUSH20 0xFFFFFFFFFFFFFFFFFFFFFFFFFFFFFFFFFFFFFFFF AND PUSH20 0xFFFFFFFFFFFFFFFFFFFFFFFFFFFFFFFFFFFFFFFF AND DUP2 MSTORE PUSH1 0x20 ADD SWAP1 PUSH1 0x1 ADD SWAP1 DUP1 DUP4 GT PUSH2 0x1627 JUMPI JUMPDEST POP POP POP POP POP SWAP1 POP SWAP1 JUMP JUMPDEST PUSH1 0x0 CALLER SWAP1 POP SWAP1 JUMP JUMPDEST PUSH2 0x1690 DUP4 DUP4 DUP4 PUSH1 0x1 PUSH2 0x1B6F JUMP JUMPDEST POP POP POP JUMP JUMPDEST PUSH1 0x0 PUSH2 0x16A1 DUP5 DUP5 PUSH2 0x144F JUMP JUMPDEST SWAP1 POP PUSH32 0xFFFFFFFFFFFFFFFFFFFFFFFFFFFFFFFFFFFFFFFFFFFFFFFFFFFFFFFFFFFFFFFF DUP2 LT ISZERO PUSH2 0x1724 JUMPI DUP2 DUP2 LT ISZERO PUSH2 0x1714 JUMPI DUP3 DUP2 DUP4 PUSH1 0x40 MLOAD PUSH32 0xFB8F41B200000000000000000000000000000000000000000000000000000000 DUP2 MSTORE PUSH1 0x4 ADD PUSH2 0x170B SWAP4 SWAP3 SWAP2 SWAP1 PUSH2 0x2E33 JUMP JUMPDEST PUSH1 0x40 MLOAD DUP1 SWAP2 SUB SWAP1 REVERT JUMPDEST PUSH2 0x1723 DUP5 DUP5 DUP5 DUP5 SUB PUSH1 0x0 PUSH2 0x1B6F JUMP JUMPDEST JUMPDEST POP POP POP POP JUMP JUMPDEST PUSH1 0x0 PUSH20 0xFFFFFFFFFFFFFFFFFFFFFFFFFFFFFFFFFFFFFFFF AND DUP4 PUSH20 0xFFFFFFFFFFFFFFFFFFFFFFFFFFFFFFFFFFFFFFFF AND SUB PUSH2 0x179C JUMPI PUSH1 0x0 PUSH1 0x40 MLOAD PUSH32 0x96C6FD1E00000000000000000000000000000000000000000000000000000000 DUP2 MSTORE PUSH1 0x4 ADD PUSH2 0x1793 SWAP2 SWAP1 PUSH2 0x1FFC JUMP JUMPDEST PUSH1 0x40 MLOAD DUP1 SWAP2 SUB SWAP1 REVERT JUMPDEST PUSH1 0x0 PUSH20 0xFFFFFFFFFFFFFFFFFFFFFFFFFFFFFFFFFFFFFFFF AND DUP3 PUSH20 0xFFFFFFFFFFFFFFFFFFFFFFFFFFFFFFFFFFFFFFFF AND SUB PUSH2 0x180E JUMPI PUSH1 0x0 PUSH1 0x40 MLOAD PUSH32 0xEC442F0500000000000000000000000000000000000000000000000000000000 DUP2 MSTORE PUSH1 0x4 ADD PUSH2 0x1805 SWAP2 SWAP1 PUSH2 0x1FFC JUMP JUMPDEST PUSH1 0x40 MLOAD DUP1 SWAP2 SUB SWAP1 REVERT JUMPDEST PUSH2 0x1819 DUP4 DUP4 DUP4 PUSH2 0x1D46 JUMP JUMPDEST POP POP POP JUMP JUMPDEST PUSH1 0x2 PUSH1 0x5 SLOAD SUB PUSH2 0x185A JUMPI PUSH1 0x40 MLOAD PUSH32 0x3EE5AEB500000000000000000000000000000000000000000000000000000000 DUP2 MSTORE PUSH1 0x4 ADD PUSH1 0x40 MLOAD DUP1 SWAP2 SUB SWAP1 REVERT JUMPDEST PUSH1 0x2 PUSH1 0x5 DUP2 SWAP1 SSTORE POP JUMP JUMPDEST PUSH1 0x1 PUSH1 0x5 DUP2 SWAP1 SSTORE POP JUMP JUMPDEST PUSH1 0x0 PUSH20 0xFFFFFFFFFFFFFFFFFFFFFFFFFFFFFFFFFFFFFFFF AND DUP3 PUSH20 0xFFFFFFFFFFFFFFFFFFFFFFFFFFFFFFFFFFFFFFFF AND SUB PUSH2 0x18E0 JUMPI PUSH1 0x0 PUSH1 0x40 MLOAD PUSH32 0xEC442F0500000000000000000000000000000000000000000000000000000000 DUP2 MSTORE PUSH1 0x4 ADD PUSH2 0x18D7 SWAP2 SWAP1 PUSH2 0x1FFC JUMP JUMPDEST PUSH1 0x40 MLOAD DUP1 SWAP2 SUB SWAP1 REVERT JUMPDEST PUSH2 0x18EC PUSH1 0x0 DUP4 DUP4 PUSH2 0x1D46 JUMP JUMPDEST POP POP JUMP JUMPDEST PUSH1 0xE PUSH1 0x0 SWAP1 SLOAD SWAP1 PUSH2 0x100 EXP SWAP1 DIV PUSH1 0xFF AND PUSH2 0x193F JUMPI PUSH1 0x40 MLOAD PUSH32 0x8C379A000000000000000000000000000000000000000000000000000000000 DUP2 MSTORE PUSH1 0x4 ADD PUSH2 0x1936 SWAP1 PUSH2 0x27D6 JUMP JUMPDEST PUSH1 0x40 MLOAD DUP1 SWAP2 SUB SWAP1 REVERT JUMPDEST PUSH1 0x0 PUSH1 0xC SLOAD EQ PUSH2 0x1984 JUMPI PUSH1 0x40 MLOAD PUSH32 0x8C379A000000000000000000000000000000000000000000000000000000000 DUP2 MSTORE PUSH1 0x4 ADD PUSH2 0x197B SWAP1 PUSH2 0x2842 JUMP JUMPDEST PUSH1 0x40 MLOAD DUP1 SWAP2 SUB SWAP1 REVERT JUMPDEST DUP1 PUSH1 0xC DUP2 SWAP1 SSTORE POP TIMESTAMP PUSH1 0xD DUP2 SWAP1 SSTORE POP POP JUMP JUMPDEST PUSH2 0x1A2D DUP3 DUP3 PUSH1 0x40 MLOAD PUSH1 0x24 ADD PUSH2 0x19AB SWAP3 SWAP2 SWAP1 PUSH2 0x2E6A JUMP JUMPDEST PUSH1 0x40 MLOAD PUSH1 0x20 DUP2 DUP4 SUB SUB DUP2 MSTORE SWAP1 PUSH1 0x40 MSTORE PUSH32 0x319AF33300000000000000000000000000000000000000000000000000000000 PUSH28 0xFFFFFFFFFFFFFFFFFFFFFFFFFFFFFFFFFFFFFFFFFFFFFFFFFFFFFFFF NOT AND PUSH1 0x20 DUP3 ADD DUP1 MLOAD PUSH28 0xFFFFFFFFFFFFFFFFFFFFFFFFFFFFFFFFFFFFFFFFFFFFFFFFFFFFFFFF DUP4 DUP2 DUP4 AND OR DUP4 MSTORE POP POP POP POP PUSH2 0x1F6B JUMP JUMPDEST POP POP JUMP JUMPDEST PUSH2 0x1AC9 DUP3 DUP3 PUSH1 0x40 MLOAD PUSH1 0x24 ADD PUSH2 0x1A47 SWAP3 SWAP2 SWAP1 PUSH2 0x2E9A JUMP JUMPDEST PUSH1 0x40 MLOAD PUSH1 0x20 DUP2 DUP4 SUB SUB DUP2 MSTORE SWAP1 PUSH1 0x40 MSTORE PUSH32 0xB60E72CC00000000000000000000000000000000000000000000000000000000 PUSH28 0xFFFFFFFFFFFFFFFFFFFFFFFFFFFFFFFFFFFFFFFFFFFFFFFFFFFFFFFF NOT AND PUSH1 0x20 DUP3 ADD DUP1 MLOAD PUSH28 0xFFFFFFFFFFFFFFFFFFFFFFFFFFFFFFFFFFFFFFFFFFFFFFFFFFFFFFFF DUP4 DUP2 DUP4 AND OR DUP4 MSTORE POP POP POP POP PUSH2 0x1F6B JUMP JUMPDEST POP POP JUMP JUMPDEST PUSH2 0x1B69 DUP5 DUP5 DUP5 DUP5 PUSH1 0x40 MLOAD PUSH1 0x24 ADD PUSH2 0x1AE7 SWAP5 SWAP4 SWAP3 SWAP2 SWAP1 PUSH2 0x2ECA JUMP JUMPDEST PUSH1 0x40 MLOAD PUSH1 0x20 DUP2 DUP4 SUB SUB DUP2 MSTORE SWAP1 PUSH1 0x40 MSTORE PUSH32 0x7C4632A400000000000000000000000000000000000000000000000000000000 PUSH28 0xFFFFFFFFFFFFFFFFFFFFFFFFFFFFFFFFFFFFFFFFFFFFFFFFFFFFFFFF NOT AND PUSH1 0x20 DUP3 ADD DUP1 MLOAD PUSH28 0xFFFFFFFFFFFFFFFFFFFFFFFFFFFFFFFFFFFFFFFFFFFFFFFFFFFFFFFF DUP4 DUP2 DUP4 AND OR DUP4 MSTORE POP POP POP POP PUSH2 0x1F6B JUMP JUMPDEST POP POP POP POP JUMP JUMPDEST PUSH1 0x0 PUSH20 0xFFFFFFFFFFFFFFFFFFFFFFFFFFFFFFFFFFFFFFFF AND DUP5 PUSH20 0xFFFFFFFFFFFFFFFFFFFFFFFFFFFFFFFFFFFFFFFF AND SUB PUSH2 0x1BE1 JUMPI PUSH1 0x0 PUSH1 0x40 MLOAD PUSH32 0xE602DF0500000000000000000000000000000000000000000000000000000000 DUP2 MSTORE PUSH1 0x4 ADD PUSH2 0x1BD8 SWAP2 SWAP1 PUSH2 0x1FFC JUMP JUMPDEST PUSH1 0x40 MLOAD DUP1 SWAP2 SUB SWAP1 REVERT JUMPDEST PUSH1 0x0 PUSH20 0xFFFFFFFFFFFFFFFFFFFFFFFFFFFFFFFFFFFFFFFF AND DUP4 PUSH20 0xFFFFFFFFFFFFFFFFFFFFFFFFFFFFFFFFFFFFFFFF AND SUB PUSH2 0x1C53 JUMPI PUSH1 0x0 PUSH1 0x40 MLOAD PUSH32 0x94280D6200000000000000000000000000000000000000000000000000000000 DUP2 MSTORE PUSH1 0x4 ADD PUSH2 0x1C4A SWAP2 SWAP1 PUSH2 0x1FFC JUMP JUMPDEST PUSH1 0x40 MLOAD DUP1 SWAP2 SUB SWAP1 REVERT JUMPDEST DUP2 PUSH1 0x1 PUSH1 0x0 DUP7 PUSH20 0xFFFFFFFFFFFFFFFFFFFFFFFFFFFFFFFFFFFFFFFF AND PUSH20 0xFFFFFFFFFFFFFFFFFFFFFFFFFFFFFFFFFFFFFFFF AND DUP2 MSTORE PUSH1 0x20 ADD SWAP1 DUP2 MSTORE PUSH1 0x20 ADD PUSH1 0x0 KECCAK256 PUSH1 0x0 DUP6 PUSH20 0xFFFFFFFFFFFFFFFFFFFFFFFFFFFFFFFFFFFFFFFF AND PUSH20 0xFFFFFFFFFFFFFFFFFFFFFFFFFFFFFFFFFFFFFFFF AND DUP2 MSTORE PUSH1 0x20 ADD SWAP1 DUP2 MSTORE PUSH1 0x20 ADD PUSH1 0x0 KECCAK256 DUP2 SWAP1 SSTORE POP DUP1 ISZERO PUSH2 0x1D40 JUMPI DUP3 PUSH20 0xFFFFFFFFFFFFFFFFFFFFFFFFFFFFFFFFFFFFFFFF AND DUP5 PUSH20 0xFFFFFFFFFFFFFFFFFFFFFFFFFFFFFFFFFFFFFFFF AND PUSH32 0x8C5BE1E5EBEC7D5BD14F71427D1E84F3DD0314C0F7B2291E5B200AC8C7C3B925 DUP5 PUSH1 0x40 MLOAD PUSH2 0x1D37 SWAP2 SWAP1 PUSH2 0x20E2 JUMP JUMPDEST PUSH1 0x40 MLOAD DUP1 SWAP2 SUB SWAP1 LOG3 JUMPDEST POP POP POP POP JUMP JUMPDEST PUSH1 0x0 PUSH20 0xFFFFFFFFFFFFFFFFFFFFFFFFFFFFFFFFFFFFFFFF AND DUP4 PUSH20 0xFFFFFFFFFFFFFFFFFFFFFFFFFFFFFFFFFFFFFFFF AND SUB PUSH2 0x1D98 JUMPI DUP1 PUSH1 0x2 PUSH1 0x0 DUP3 DUP3 SLOAD PUSH2 0x1D8C SWAP2 SWAP1 PUSH2 0x2690 JUMP JUMPDEST SWAP3 POP POP DUP2 SWAP1 SSTORE POP PUSH2 0x1E6B JUMP JUMPDEST PUSH1 0x0 DUP1 PUSH1 0x0 DUP6 PUSH20 0xFFFFFFFFFFFFFFFFFFFFFFFFFFFFFFFFFFFFFFFF AND PUSH20 0xFFFFFFFFFFFFFFFFFFFFFFFFFFFFFFFFFFFFFFFF AND DUP2 MSTORE PUSH1 0x20 ADD SWAP1 DUP2 MSTORE PUSH1 0x20 ADD PUSH1 0x0 KECCAK256 SLOAD SWAP1 POP DUP2 DUP2 LT ISZERO PUSH2 0x1E24 JUMPI DUP4 DUP2 DUP4 PUSH1 0x40 MLOAD PUSH32 0xE450D38C00000000000000000000000000000000000000000000000000000000 DUP2 MSTORE PUSH1 0x4 ADD PUSH2 0x1E1B SWAP4 SWAP3 SWAP2 SWAP1 PUSH2 0x2E33 JUMP JUMPDEST PUSH1 0x40 MLOAD DUP1 SWAP2 SUB SWAP1 REVERT JUMPDEST DUP2 DUP2 SUB PUSH1 0x0 DUP1 DUP7 PUSH20 0xFFFFFFFFFFFFFFFFFFFFFFFFFFFFFFFFFFFFFFFF AND PUSH20 0xFFFFFFFFFFFFFFFFFFFFFFFFFFFFFFFFFFFFFFFF AND DUP2 MSTORE PUSH1 0x20 ADD SWAP1 DUP2 MSTORE PUSH1 0x20 ADD PUSH1 0x0 KECCAK256 DUP2 SWAP1 SSTORE POP POP JUMPDEST PUSH1 0x0 PUSH20 0xFFFFFFFFFFFFFFFFFFFFFFFFFFFFFFFFFFFFFFFF AND DUP3 PUSH20 0xFFFFFFFFFFFFFFFFFFFFFFFFFFFFFFFFFFFFFFFF AND SUB PUSH2 0x1EB4 JUMPI DUP1 PUSH1 0x2 PUSH1 0x0 DUP3 DUP3 SLOAD SUB SWAP3 POP POP DUP2 SWAP1 SSTORE POP PUSH2 0x1F01 JUMP JUMPDEST DUP1 PUSH1 0x0 DUP1 DUP5 PUSH20 0xFFFFFFFFFFFFFFFFFFFFFFFFFFFFFFFFFFFFFFFF AND PUSH20 0xFFFFFFFFFFFFFFFFFFFFFFFFFFFFFFFFFFFFFFFF AND DUP2 MSTORE PUSH1 0x20 ADD SWAP1 DUP2 MSTORE PUSH1 0x20 ADD PUSH1 0x0 KECCAK256 PUSH1 0x0 DUP3 DUP3 SLOAD ADD SWAP3 POP POP DUP2 SWAP1 SSTORE POP JUMPDEST DUP2 PUSH20 0xFFFFFFFFFFFFFFFFFFFFFFFFFFFFFFFFFFFFFFFF AND DUP4 PUSH20 0xFFFFFFFFFFFFFFFFFFFFFFFFFFFFFFFFFFFFFFFF AND PUSH32 0xDDF252AD1BE2C89B69C2B068FC378DAA952BA7F163C4A11628F55A4DF523B3EF DUP4 PUSH1 0x40 MLOAD PUSH2 0x1F5E SWAP2 SWAP1 PUSH2 0x20E2 JUMP JUMPDEST PUSH1 0x40 MLOAD DUP1 SWAP2 SUB SWAP1 LOG3 POP POP POP JUMP JUMPDEST PUSH2 0x1F82 DUP2 PUSH2 0x1F7A PUSH2 0x1F85 PUSH2 0x1FA6 JUMP JUMPDEST PUSH4 0xFFFFFFFF AND JUMP JUMPDEST POP JUMP JUMPDEST PUSH1 0x0 PUSH11 0x636F6E736F6C652E6C6F67 SWAP1 POP PUSH1 0x0 DUP1 DUP4 MLOAD PUSH1 0x20 DUP6 ADD DUP5 GAS STATICCALL POP POP POP JUMP JUMPDEST PUSH2 0x1FB1 DUP2 SWAP1 POP SWAP2 SWAP1 POP JUMP JUMPDEST PUSH2 0x1FB9 PUSH2 0x2F1D JUMP JUMPDEST JUMP JUMPDEST PUSH1 0x0 PUSH20 0xFFFFFFFFFFFFFFFFFFFFFFFFFFFFFFFFFFFFFFFF DUP3 AND SWAP1 POP SWAP2 SWAP1 POP JUMP JUMPDEST PUSH1 0x0 PUSH2 0x1FE6 DUP3 PUSH2 0x1FBB JUMP JUMPDEST SWAP1 POP SWAP2 SWAP1 POP JUMP JUMPDEST PUSH2 0x1FF6 DUP2 PUSH2 0x1FDB JUMP JUMPDEST DUP3 MSTORE POP POP JUMP JUMPDEST PUSH1 0x0 PUSH1 0x20 DUP3 ADD SWAP1 POP PUSH2 0x2011 PUSH1 0x0 DUP4 ADD DUP5 PUSH2 0x1FED JUMP JUMPDEST SWAP3 SWAP2 POP POP JUMP JUMPDEST PUSH1 0x0 DUP2 MLOAD SWAP1 POP SWAP2 SWAP1 POP JUMP JUMPDEST PUSH1 0x0 DUP3 DUP3 MSTORE PUSH1 0x20 DUP3 ADD SWAP1 POP SWAP3 SWAP2 POP POP JUMP JUMPDEST PUSH1 0x0 JUMPDEST DUP4 DUP2 LT ISZERO PUSH2 0x2051 JUMPI DUP1 DUP3 ADD MLOAD DUP2 DUP5 ADD MSTORE PUSH1 0x20 DUP2 ADD SWAP1 POP PUSH2 0x2036 JUMP JUMPDEST PUSH1 0x0 DUP5 DUP5 ADD MSTORE POP POP POP POP JUMP JUMPDEST PUSH1 0x0 PUSH1 0x1F NOT PUSH1 0x1F DUP4 ADD AND SWAP1 POP SWAP2 SWAP1 POP JUMP JUMPDEST PUSH1 0x0 PUSH2 0x2079 DUP3 PUSH2 0x2017 JUMP JUMPDEST PUSH2 0x2083 DUP2 DUP6 PUSH2 0x2022 JUMP JUMPDEST SWAP4 POP PUSH2 0x2093 DUP2 DUP6 PUSH1 0x20 DUP7 ADD PUSH2 0x2033 JUMP JUMPDEST PUSH2 0x209C DUP2 PUSH2 0x205D JUMP JUMPDEST DUP5 ADD SWAP2 POP POP SWAP3 SWAP2 POP POP JUMP JUMPDEST PUSH1 0x0 PUSH1 0x20 DUP3 ADD SWAP1 POP DUP2 DUP2 SUB PUSH1 0x0 DUP4 ADD MSTORE PUSH2 0x20C1 DUP2 DUP5 PUSH2 0x206E JUMP JUMPDEST SWAP1 POP SWAP3 SWAP2 POP POP JUMP JUMPDEST PUSH1 0x0 DUP2 SWAP1 POP SWAP2 SWAP1 POP JUMP JUMPDEST PUSH2 0x20DC DUP2 PUSH2 0x20C9 JUMP JUMPDEST DUP3 MSTORE POP POP JUMP JUMPDEST PUSH1 0x0 PUSH1 0x20 DUP3 ADD SWAP1 POP PUSH2 0x20F7 PUSH1 0x0 DUP4 ADD DUP5 PUSH2 0x20D3 JUMP JUMPDEST SWAP3 SWAP2 POP POP JUMP JUMPDEST PUSH1 0x0 DUP1 REVERT JUMPDEST PUSH2 0x210B DUP2 PUSH2 0x1FDB JUMP JUMPDEST DUP2 EQ PUSH2 0x2116 JUMPI PUSH1 0x0 DUP1 REVERT JUMPDEST POP JUMP JUMPDEST PUSH1 0x0 DUP2 CALLDATALOAD SWAP1 POP PUSH2 0x2128 DUP2 PUSH2 0x2102 JUMP JUMPDEST SWAP3 SWAP2 POP POP JUMP JUMPDEST PUSH2 0x2137 DUP2 PUSH2 0x20C9 JUMP JUMPDEST DUP2 EQ PUSH2 0x2142 JUMPI PUSH1 0x0 DUP1 REVERT JUMPDEST POP JUMP JUMPDEST PUSH1 0x0 DUP2 CALLDATALOAD SWAP1 POP PUSH2 0x2154 DUP2 PUSH2 0x212E JUMP JUMPDEST SWAP3 SWAP2 POP POP JUMP JUMPDEST PUSH1 0x0 DUP1 PUSH1 0x40 DUP4 DUP6 SUB SLT ISZERO PUSH2 0x2171 JUMPI PUSH2 0x2170 PUSH2 0x20FD JUMP JUMPDEST JUMPDEST PUSH1 0x0 PUSH2 0x217F DUP6 DUP3 DUP7 ADD PUSH2 0x2119 JUMP JUMPDEST SWAP3 POP POP PUSH1 0x20 PUSH2 0x2190 DUP6 DUP3 DUP7 ADD PUSH2 0x2145 JUMP JUMPDEST SWAP2 POP POP SWAP3 POP SWAP3 SWAP1 POP JUMP JUMPDEST PUSH1 0x0 DUP2 ISZERO ISZERO SWAP1 POP SWAP2 SWAP1 POP JUMP JUMPDEST PUSH2 0x21AF DUP2 PUSH2 0x219A JUMP JUMPDEST DUP3 MSTORE POP POP JUMP JUMPDEST PUSH1 0x0 PUSH1 0x20 DUP3 ADD SWAP1 POP PUSH2 0x21CA PUSH1 0x0 DUP4 ADD DUP5 PUSH2 0x21A6 JUMP JUMPDEST SWAP3 SWAP2 POP POP JUMP JUMPDEST PUSH1 0x0 DUP1 PUSH1 0x0 PUSH1 0x60 DUP5 DUP7 SUB SLT ISZERO PUSH2 0x21E9 JUMPI PUSH2 0x21E8 PUSH2 0x20FD JUMP JUMPDEST JUMPDEST PUSH1 0x0 PUSH2 0x21F7 DUP7 DUP3 DUP8 ADD PUSH2 0x2119 JUMP JUMPDEST SWAP4 POP POP PUSH1 0x20 PUSH2 0x2208 DUP7 DUP3 DUP8 ADD PUSH2 0x2119 JUMP JUMPDEST SWAP3 POP POP PUSH1 0x40 PUSH2 0x2219 DUP7 DUP3 DUP8 ADD PUSH2 0x2145 JUMP JUMPDEST SWAP2 POP POP SWAP3 POP SWAP3 POP SWAP3 JUMP JUMPDEST PUSH1 0x0 PUSH1 0xFF DUP3 AND SWAP1 POP SWAP2 SWAP1 POP JUMP JUMPDEST PUSH2 0x2239 DUP2 PUSH2 0x2223 JUMP JUMPDEST DUP3 MSTORE POP POP JUMP JUMPDEST PUSH1 0x0 PUSH1 0x20 DUP3 ADD SWAP1 POP PUSH2 0x2254 PUSH1 0x0 DUP4 ADD DUP5 PUSH2 0x2230 JUMP JUMPDEST SWAP3 SWAP2 POP POP JUMP JUMPDEST PUSH1 0x0 PUSH1 0x20 DUP3 DUP5 SUB SLT ISZERO PUSH2 0x2270 JUMPI PUSH2 0x226F PUSH2 0x20FD JUMP JUMPDEST JUMPDEST PUSH1 0x0 PUSH2 0x227E DUP5 DUP3 DUP6 ADD PUSH2 0x2145 JUMP JUMPDEST SWAP2 POP POP SWAP3 SWAP2 POP POP JUMP JUMPDEST PUSH1 0x0 PUSH1 0x20 DUP3 DUP5 SUB SLT ISZERO PUSH2 0x229D JUMPI PUSH2 0x229C PUSH2 0x20FD JUMP JUMPDEST JUMPDEST PUSH1 0x0 PUSH2 0x22AB DUP5 DUP3 DUP6 ADD PUSH2 0x2119 JUMP JUMPDEST SWAP2 POP POP SWAP3 SWAP2 POP POP JUMP JUMPDEST PUSH2 0x22BD DUP2 PUSH2 0x219A JUMP JUMPDEST DUP2 EQ PUSH2 0x22C8 JUMPI PUSH1 0x0 DUP1 REVERT JUMPDEST POP JUMP JUMPDEST PUSH1 0x0 DUP2 CALLDATALOAD SWAP1 POP PUSH2 0x22DA DUP2 PUSH2 0x22B4 JUMP JUMPDEST SWAP3 SWAP2 POP POP JUMP JUMPDEST PUSH1 0x0 DUP1 PUSH1 0x0 DUP1 PUSH1 0x0 PUSH1 0xA0 DUP7 DUP9 SUB SLT ISZERO PUSH2 0x22FC JUMPI PUSH2 0x22FB PUSH2 0x20FD JUMP JUMPDEST JUMPDEST PUSH1 0x0 PUSH2 0x230A DUP9 DUP3 DUP10 ADD PUSH2 0x2145 JUMP JUMPDEST SWAP6 POP POP PUSH1 0x20 PUSH2 0x231B DUP9 DUP3 DUP10 ADD PUSH2 0x2145 JUMP JUMPDEST SWAP5 POP POP PUSH1 0x40 PUSH2 0x232C DUP9 DUP3 DUP10 ADD PUSH2 0x2119 JUMP JUMPDEST SWAP4 POP POP PUSH1 0x60 PUSH2 0x233D DUP9 DUP3 DUP10 ADD PUSH2 0x22CB JUMP JUMPDEST SWAP3 POP POP PUSH1 0x80 PUSH2 0x234E DUP9 DUP3 DUP10 ADD PUSH2 0x2145 JUMP JUMPDEST SWAP2 POP POP SWAP3 SWAP6 POP SWAP3 SWAP6 SWAP1 SWAP4 POP JUMP JUMPDEST PUSH1 0x0 DUP1 PUSH1 0x40 DUP4 DUP6 SUB SLT ISZERO PUSH2 0x2372 JUMPI PUSH2 0x2371 PUSH2 0x20FD JUMP JUMPDEST JUMPDEST PUSH1 0x0 PUSH2 0x2380 DUP6 DUP3 DUP7 ADD PUSH2 0x2119 JUMP JUMPDEST SWAP3 POP POP PUSH1 0x20 PUSH2 0x2391 DUP6 DUP3 DUP7 ADD PUSH2 0x2119 JUMP JUMPDEST SWAP2 POP POP SWAP3 POP SWAP3 SWAP1 POP JUMP JUMPDEST PUSH1 0x0 DUP2 MLOAD SWAP1 POP SWAP2 SWAP1 POP JUMP JUMPDEST PUSH1 0x0 DUP3 DUP3 MSTORE PUSH1 0x20 DUP3 ADD SWAP1 POP SWAP3 SWAP2 POP POP JUMP JUMPDEST PUSH1 0x0 DUP2 SWAP1 POP PUSH1 0x20 DUP3 ADD SWAP1 POP SWAP2 SWAP1 POP JUMP JUMPDEST PUSH2 0x23D0 DUP2 PUSH2 0x1FDB JUMP JUMPDEST DUP3 MSTORE POP POP JUMP JUMPDEST PUSH1 0x0 PUSH2 0x23E2 DUP4 DUP4 PUSH2 0x23C7 JUMP JUMPDEST PUSH1 0x20 DUP4 ADD SWAP1 POP SWAP3 SWAP2 POP POP JUMP JUMPDEST PUSH1 0x0 PUSH1 0x20 DUP3 ADD SWAP1 POP SWAP2 SWAP1 POP JUMP JUMPDEST PUSH1 0x0 PUSH2 0x2406 DUP3 PUSH2 0x239B JUMP JUMPDEST PUSH2 0x2410 DUP2 DUP6 PUSH2 0x23A6 JUMP JUMPDEST SWAP4 POP PUSH2 0x241B DUP4 PUSH2 0x23B7 JUMP JUMPDEST DUP1 PUSH1 0x0 JUMPDEST DUP4 DUP2 LT ISZERO PUSH2 0x244C JUMPI DUP2 MLOAD PUSH2 0x2433 DUP9 DUP3 PUSH2 0x23D6 JUMP JUMPDEST SWAP8 POP PUSH2 0x243E DUP4 PUSH2 0x23EE JUMP JUMPDEST SWAP3 POP POP PUSH1 0x1 DUP2 ADD SWAP1 POP PUSH2 0x241F JUMP JUMPDEST POP DUP6 SWAP4 POP POP POP POP SWAP3 SWAP2 POP POP JUMP JUMPDEST PUSH1 0x0 PUSH1 0x20 DUP3 ADD SWAP1 POP DUP2 DUP2 SUB PUSH1 0x0 DUP4 ADD MSTORE PUSH2 0x2473 DUP2 DUP5 PUSH2 0x23FB JUMP JUMPDEST SWAP1 POP SWAP3 SWAP2 POP POP JUMP JUMPDEST PUSH32 0x4E487B7100000000000000000000000000000000000000000000000000000000 PUSH1 0x0 MSTORE PUSH1 0x22 PUSH1 0x4 MSTORE PUSH1 0x24 PUSH1 0x0 REVERT JUMPDEST PUSH1 0x0 PUSH1 0x2 DUP3 DIV SWAP1 POP PUSH1 0x1 DUP3 AND DUP1 PUSH2 0x24C2 JUMPI PUSH1 0x7F DUP3 AND SWAP2 POP JUMPDEST PUSH1 0x20 DUP3 LT DUP2 SUB PUSH2 0x24D5 JUMPI PUSH2 0x24D4 PUSH2 0x247B JUMP JUMPDEST JUMPDEST POP SWAP2 SWAP1 POP JUMP JUMPDEST PUSH32 0x4E487B7100000000000000000000000000000000000000000000000000000000 PUSH1 0x0 MSTORE PUSH1 0x11 PUSH1 0x4 MSTORE PUSH1 0x24 PUSH1 0x0 REVERT JUMPDEST PUSH1 0x0 PUSH2 0x2515 DUP3 PUSH2 0x20C9 JUMP JUMPDEST SWAP2 POP PUSH2 0x2520 DUP4 PUSH2 0x20C9 JUMP JUMPDEST SWAP3 POP DUP3 DUP3 MUL PUSH2 0x252E DUP2 PUSH2 0x20C9 JUMP JUMPDEST SWAP2 POP DUP3 DUP3 DIV DUP5 EQ DUP4 ISZERO OR PUSH2 0x2545 JUMPI PUSH2 0x2544 PUSH2 0x24DB JUMP JUMPDEST JUMPDEST POP SWAP3 SWAP2 POP POP JUMP JUMPDEST PUSH32 0x496E73756666696369656E7420546F6B656E73204C6566740000000000000000 PUSH1 0x0 DUP3 ADD MSTORE POP JUMP JUMPDEST PUSH1 0x0 PUSH2 0x2582 PUSH1 0x18 DUP4 PUSH2 0x2022 JUMP JUMPDEST SWAP2 POP PUSH2 0x258D DUP3 PUSH2 0x254C JUMP JUMPDEST PUSH1 0x20 DUP3 ADD SWAP1 POP SWAP2 SWAP1 POP JUMP JUMPDEST PUSH1 0x0 PUSH1 0x20 DUP3 ADD SWAP1 POP DUP2 DUP2 SUB PUSH1 0x0 DUP4 ADD MSTORE PUSH2 0x25B1 DUP2 PUSH2 0x2575 JUMP JUMPDEST SWAP1 POP SWAP2 SWAP1 POP JUMP JUMPDEST PUSH32 0x496E73756666696369656E74204554482073656E740000000000000000000000 PUSH1 0x0 DUP3 ADD MSTORE POP JUMP JUMPDEST PUSH1 0x0 PUSH2 0x25EE PUSH1 0x15 DUP4 PUSH2 0x2022 JUMP JUMPDEST SWAP2 POP PUSH2 0x25F9 DUP3 PUSH2 0x25B8 JUMP JUMPDEST PUSH1 0x20 DUP3 ADD SWAP1 POP SWAP2 SWAP1 POP JUMP JUMPDEST PUSH1 0x0 PUSH1 0x20 DUP3 ADD SWAP1 POP DUP2 DUP2 SUB PUSH1 0x0 DUP4 ADD MSTORE PUSH2 0x261D DUP2 PUSH2 0x25E1 JUMP JUMPDEST SWAP1 POP SWAP2 SWAP1 POP JUMP JUMPDEST PUSH32 0x4E6F7420656E6F75676820746F6B656E7320617661696C61626C650000000000 PUSH1 0x0 DUP3 ADD MSTORE POP JUMP JUMPDEST PUSH1 0x0 PUSH2 0x265A PUSH1 0x1B DUP4 PUSH2 0x2022 JUMP JUMPDEST SWAP2 POP PUSH2 0x2665 DUP3 PUSH2 0x2624 JUMP JUMPDEST PUSH1 0x20 DUP3 ADD SWAP1 POP SWAP2 SWAP1 POP JUMP JUMPDEST PUSH1 0x0 PUSH1 0x20 DUP3 ADD SWAP1 POP DUP2 DUP2 SUB PUSH1 0x0 DUP4 ADD MSTORE PUSH2 0x2689 DUP2 PUSH2 0x264D JUMP JUMPDEST SWAP1 POP SWAP2 SWAP1 POP JUMP JUMPDEST PUSH1 0x0 PUSH2 0x269B DUP3 PUSH2 0x20C9 JUMP JUMPDEST SWAP2 POP PUSH2 0x26A6 DUP4 PUSH2 0x20C9 JUMP JUMPDEST SWAP3 POP DUP3 DUP3 ADD SWAP1 POP DUP1 DUP3 GT ISZERO PUSH2 0x26BE JUMPI PUSH2 0x26BD PUSH2 0x24DB JUMP JUMPDEST JUMPDEST SWAP3 SWAP2 POP POP JUMP JUMPDEST PUSH1 0x0 PUSH2 0x26CF DUP3 PUSH2 0x20C9 JUMP JUMPDEST SWAP2 POP PUSH2 0x26DA DUP4 PUSH2 0x20C9 JUMP JUMPDEST SWAP3 POP DUP3 DUP3 SUB SWAP1 POP DUP2 DUP2 GT ISZERO PUSH2 0x26F2 JUMPI PUSH2 0x26F1 PUSH2 0x24DB JUMP JUMPDEST JUMPDEST SWAP3 SWAP2 POP POP JUMP JUMPDEST PUSH32 0x4F6E6C79207468652070726F7065727479206F776E65722063616E2073657420 PUSH1 0x0 DUP3 ADD MSTORE PUSH32 0x74686520696E636F6D6500000000000000000000000000000000000000000000 PUSH1 0x20 DUP3 ADD MSTORE POP JUMP JUMPDEST PUSH1 0x0 PUSH2 0x2754 PUSH1 0x2A DUP4 PUSH2 0x2022 JUMP JUMPDEST SWAP2 POP PUSH2 0x275F DUP3 PUSH2 0x26F8 JUMP JUMPDEST PUSH1 0x40 DUP3 ADD SWAP1 POP SWAP2 SWAP1 POP JUMP JUMPDEST PUSH1 0x0 PUSH1 0x20 DUP3 ADD SWAP1 POP DUP2 DUP2 SUB PUSH1 0x0 DUP4 ADD MSTORE PUSH2 0x2783 DUP2 PUSH2 0x2747 JUMP JUMPDEST SWAP1 POP SWAP2 SWAP1 POP JUMP JUMPDEST PUSH32 0x54686973206973206E6F7420612072656E74616C2070726F7065727479000000 PUSH1 0x0 DUP3 ADD MSTORE POP JUMP JUMPDEST PUSH1 0x0 PUSH2 0x27C0 PUSH1 0x1D DUP4 PUSH2 0x2022 JUMP JUMPDEST SWAP2 POP PUSH2 0x27CB DUP3 PUSH2 0x278A JUMP JUMPDEST PUSH1 0x20 DUP3 ADD SWAP1 POP SWAP2 SWAP1 POP JUMP JUMPDEST PUSH1 0x0 PUSH1 0x20 DUP3 ADD SWAP1 POP DUP2 DUP2 SUB PUSH1 0x0 DUP4 ADD MSTORE PUSH2 0x27EF DUP2 PUSH2 0x27B3 JUMP JUMPDEST SWAP1 POP SWAP2 SWAP1 POP JUMP JUMPDEST PUSH32 0x53616C6520616C726561647920696E697469616C697A65640000000000000000 PUSH1 0x0 DUP3 ADD MSTORE POP JUMP JUMPDEST PUSH1 0x0 PUSH2 0x282C PUSH1 0x18 DUP4 PUSH2 0x2022 JUMP JUMPDEST SWAP2 POP PUSH2 0x2837 DUP3 PUSH2 0x27F6 JUMP JUMPDEST PUSH1 0x20 DUP3 ADD SWAP1 POP SWAP2 SWAP1 POP JUMP JUMPDEST PUSH1 0x0 PUSH1 0x20 DUP3 ADD SWAP1 POP DUP2 DUP2 SUB PUSH1 0x0 DUP4 ADD MSTORE PUSH2 0x285B DUP2 PUSH2 0x281F JUMP JUMPDEST SWAP1 POP SWAP2 SWAP1 POP JUMP JUMPDEST PUSH32 0x50726F706572747920546F6B656E20537570706C79206D757374206265206772 PUSH1 0x0 DUP3 ADD MSTORE PUSH32 0x6561746572207468616E20300000000000000000000000000000000000000000 PUSH1 0x20 DUP3 ADD MSTORE POP JUMP JUMPDEST PUSH1 0x0 PUSH2 0x28BE PUSH1 0x2C DUP4 PUSH2 0x2022 JUMP JUMPDEST SWAP2 POP PUSH2 0x28C9 DUP3 PUSH2 0x2862 JUMP JUMPDEST PUSH1 0x40 DUP3 ADD SWAP1 POP SWAP2 SWAP1 POP JUMP JUMPDEST PUSH1 0x0 PUSH1 0x20 DUP3 ADD SWAP1 POP DUP2 DUP2 SUB PUSH1 0x0 DUP4 ADD MSTORE PUSH2 0x28ED DUP2 PUSH2 0x28B1 JUMP JUMPDEST SWAP1 POP SWAP2 SWAP1 POP JUMP JUMPDEST PUSH32 0x546F74616C20737570706C7920697320746F6F206C6172676500000000000000 PUSH1 0x0 DUP3 ADD MSTORE POP JUMP JUMPDEST PUSH1 0x0 PUSH2 0x292A PUSH1 0x19 DUP4 PUSH2 0x2022 JUMP JUMPDEST SWAP2 POP PUSH2 0x2935 DUP3 PUSH2 0x28F4 JUMP JUMPDEST PUSH1 0x20 DUP3 ADD SWAP1 POP SWAP2 SWAP1 POP JUMP JUMPDEST PUSH1 0x0 PUSH1 0x20 DUP3 ADD SWAP1 POP DUP2 DUP2 SUB PUSH1 0x0 DUP4 ADD MSTORE PUSH2 0x2959 DUP2 PUSH2 0x291D JUMP JUMPDEST SWAP1 POP SWAP2 SWAP1 POP JUMP JUMPDEST PUSH32 0x546F6B656E207072696365206D7573742062652067726561746572207468616E PUSH1 0x0 DUP3 ADD MSTORE PUSH32 0x207A65726F000000000000000000000000000000000000000000000000000000 PUSH1 0x20 DUP3 ADD MSTORE POP JUMP JUMPDEST PUSH1 0x0 PUSH2 0x29BC PUSH1 0x25 DUP4 PUSH2 0x2022 JUMP JUMPDEST SWAP2 POP PUSH2 0x29C7 DUP3 PUSH2 0x2960 JUMP JUMPDEST PUSH1 0x40 DUP3 ADD SWAP1 POP SWAP2 SWAP1 POP JUMP JUMPDEST PUSH1 0x0 PUSH1 0x20 DUP3 ADD SWAP1 POP DUP2 DUP2 SUB PUSH1 0x0 DUP4 ADD MSTORE PUSH2 0x29EB DUP2 PUSH2 0x29AF JUMP JUMPDEST SWAP1 POP SWAP2 SWAP1 POP JUMP JUMPDEST PUSH32 0x496E76616C69642070726F7065727479206F776E657220616464726573730000 PUSH1 0x0 DUP3 ADD MSTORE POP JUMP JUMPDEST PUSH1 0x0 PUSH2 0x2A28 PUSH1 0x1E DUP4 PUSH2 0x2022 JUMP JUMPDEST SWAP2 POP PUSH2 0x2A33 DUP3 PUSH2 0x29F2 JUMP JUMPDEST PUSH1 0x20 DUP3 ADD SWAP1 POP SWAP2 SWAP1 POP JUMP JUMPDEST PUSH1 0x0 PUSH1 0x20 DUP3 ADD SWAP1 POP DUP2 DUP2 SUB PUSH1 0x0 DUP4 ADD MSTORE PUSH2 0x2A57 DUP2 PUSH2 0x2A1B JUMP JUMPDEST SWAP1 POP SWAP2 SWAP1 POP JUMP JUMPDEST PUSH32 0x52656E74616C20696E636F6D65206D7573742062652067726561746572207468 PUSH1 0x0 DUP3 ADD MSTORE PUSH32 0x616E207A65726F00000000000000000000000000000000000000000000000000 PUSH1 0x20 DUP3 ADD MSTORE POP JUMP JUMPDEST PUSH1 0x0 PUSH2 0x2ABA PUSH1 0x27 DUP4 PUSH2 0x2022 JUMP JUMPDEST SWAP2 POP PUSH2 0x2AC5 DUP3 PUSH2 0x2A5E JUMP JUMPDEST PUSH1 0x40 DUP3 ADD SWAP1 POP SWAP2 SWAP1 POP JUMP JUMPDEST PUSH1 0x0 PUSH1 0x20 DUP3 ADD SWAP1 POP DUP2 DUP2 SUB PUSH1 0x0 DUP4 ADD MSTORE PUSH2 0x2AE9 DUP2 PUSH2 0x2AAD JUMP JUMPDEST SWAP1 POP SWAP2 SWAP1 POP JUMP JUMPDEST PUSH32 0x4F6E6C79207468652070726F7065727479206F776E65722063616E2064697374 PUSH1 0x0 DUP3 ADD MSTORE PUSH32 0x72696275746520696E636F6D6500000000000000000000000000000000000000 PUSH1 0x20 DUP3 ADD MSTORE POP JUMP JUMPDEST PUSH1 0x0 PUSH2 0x2B4C PUSH1 0x2D DUP4 PUSH2 0x2022 JUMP JUMPDEST SWAP2 POP PUSH2 0x2B57 DUP3 PUSH2 0x2AF0 JUMP JUMPDEST PUSH1 0x40 DUP3 ADD SWAP1 POP SWAP2 SWAP1 POP JUMP JUMPDEST PUSH1 0x0 PUSH1 0x20 DUP3 ADD SWAP1 POP DUP2 DUP2 SUB PUSH1 0x0 DUP4 ADD MSTORE PUSH2 0x2B7B DUP2 PUSH2 0x2B3F JUMP JUMPDEST SWAP1 POP SWAP2 SWAP1 POP JUMP JUMPDEST PUSH32 0x4D6F6E74686C7920696E636F6D6520646973747269627574696F6E206973206E PUSH1 0x0 DUP3 ADD MSTORE PUSH32 0x6F74206475652079657400000000000000000000000000000000000000000000 PUSH1 0x20 DUP3 ADD MSTORE POP JUMP JUMPDEST PUSH1 0x0 PUSH2 0x2BDE PUSH1 0x2A DUP4 PUSH2 0x2022 JUMP JUMPDEST SWAP2 POP PUSH2 0x2BE9 DUP3 PUSH2 0x2B82 JUMP JUMPDEST PUSH1 0x40 DUP3 ADD SWAP1 POP SWAP2 SWAP1 POP JUMP JUMPDEST PUSH1 0x0 PUSH1 0x20 DUP3 ADD SWAP1 POP DUP2 DUP2 SUB PUSH1 0x0 DUP4 ADD MSTORE PUSH2 0x2C0D DUP2 PUSH2 0x2BD1 JUMP JUMPDEST SWAP1 POP SWAP2 SWAP1 POP JUMP JUMPDEST PUSH32 0x4E6F7420656E6F756768204554482073656E7420666F72206469737472696275 PUSH1 0x0 DUP3 ADD MSTORE PUSH32 0x74696F6E00000000000000000000000000000000000000000000000000000000 PUSH1 0x20 DUP3 ADD MSTORE POP JUMP JUMPDEST PUSH1 0x0 PUSH2 0x2C70 PUSH1 0x24 DUP4 PUSH2 0x2022 JUMP JUMPDEST SWAP2 POP PUSH2 0x2C7B DUP3 PUSH2 0x2C14 JUMP JUMPDEST PUSH1 0x40 DUP3 ADD SWAP1 POP SWAP2 SWAP1 POP JUMP JUMPDEST PUSH1 0x0 PUSH1 0x20 DUP3 ADD SWAP1 POP DUP2 DUP2 SUB PUSH1 0x0 DUP4 ADD MSTORE PUSH2 0x2C9F DUP2 PUSH2 0x2C63 JUMP JUMPDEST SWAP1 POP SWAP2 SWAP1 POP JUMP JUMPDEST PUSH32 0x546F74616C20746F6B656E20737570706C792063616E6E6F74206265207A6572 PUSH1 0x0 DUP3 ADD MSTORE PUSH32 0x6F00000000000000000000000000000000000000000000000000000000000000 PUSH1 0x20 DUP3 ADD MSTORE POP JUMP JUMPDEST PUSH1 0x0 PUSH2 0x2D02 PUSH1 0x21 DUP4 PUSH2 0x2022 JUMP JUMPDEST SWAP2 POP PUSH2 0x2D0D DUP3 PUSH2 0x2CA6 JUMP JUMPDEST PUSH1 0x40 DUP3 ADD SWAP1 POP SWAP2 SWAP1 POP JUMP JUMPDEST PUSH1 0x0 PUSH1 0x20 DUP3 ADD SWAP1 POP DUP2 DUP2 SUB PUSH1 0x0 DUP4 ADD MSTORE PUSH2 0x2D31 DUP2 PUSH2 0x2CF5 JUMP JUMPDEST SWAP1 POP SWAP2 SWAP1 POP JUMP JUMPDEST PUSH32 0x4E487B7100000000000000000000000000000000000000000000000000000000 PUSH1 0x0 MSTORE PUSH1 0x32 PUSH1 0x4 MSTORE PUSH1 0x24 PUSH1 0x0 REVERT JUMPDEST PUSH32 0x4E487B7100000000000000000000000000000000000000000000000000000000 PUSH1 0x0 MSTORE PUSH1 0x12 PUSH1 0x4 MSTORE PUSH1 0x24 PUSH1 0x0 REVERT JUMPDEST PUSH1 0x0 PUSH2 0x2DA1 DUP3 PUSH2 0x20C9 JUMP JUMPDEST SWAP2 POP PUSH2 0x2DAC DUP4 PUSH2 0x20C9 JUMP JUMPDEST SWAP3 POP DUP3 PUSH2 0x2DBC JUMPI PUSH2 0x2DBB PUSH2 0x2D67 JUMP JUMPDEST JUMPDEST DUP3 DUP3 DIV SWAP1 POP SWAP3 SWAP2 POP POP JUMP JUMPDEST PUSH32 0x4F6E6C7920746865206F776E65722063616E2073657420746869730000000000 PUSH1 0x0 DUP3 ADD MSTORE POP JUMP JUMPDEST PUSH1 0x0 PUSH2 0x2DFD PUSH1 0x1B DUP4 PUSH2 0x2022 JUMP JUMPDEST SWAP2 POP PUSH2 0x2E08 DUP3 PUSH2 0x2DC7 JUMP JUMPDEST PUSH1 0x20 DUP3 ADD SWAP1 POP SWAP2 SWAP1 POP JUMP JUMPDEST PUSH1 0x0 PUSH1 0x20 DUP3 ADD SWAP1 POP DUP2 DUP2 SUB PUSH1 0x0 DUP4 ADD MSTORE PUSH2 0x2E2C DUP2 PUSH2 0x2DF0 JUMP JUMPDEST SWAP1 POP SWAP2 SWAP1 POP JUMP JUMPDEST PUSH1 0x0 PUSH1 0x60 DUP3 ADD SWAP1 POP PUSH2 0x2E48 PUSH1 0x0 DUP4 ADD DUP7 PUSH2 0x1FED JUMP JUMPDEST PUSH2 0x2E55 PUSH1 0x20 DUP4 ADD DUP6 PUSH2 0x20D3 JUMP JUMPDEST PUSH2 0x2E62 PUSH1 0x40 DUP4 ADD DUP5 PUSH2 0x20D3 JUMP JUMPDEST SWAP5 SWAP4 POP POP POP POP JUMP JUMPDEST PUSH1 0x0 PUSH1 0x40 DUP3 ADD SWAP1 POP DUP2 DUP2 SUB PUSH1 0x0 DUP4 ADD MSTORE PUSH2 0x2E84 DUP2 DUP6 PUSH2 0x206E JUMP JUMPDEST SWAP1 POP PUSH2 0x2E93 PUSH1 0x20 DUP4 ADD DUP5 PUSH2 0x1FED JUMP JUMPDEST SWAP4 SWAP3 POP POP POP JUMP JUMPDEST PUSH1 0x0 PUSH1 0x40 DUP3 ADD SWAP1 POP DUP2 DUP2 SUB PUSH1 0x0 DUP4 ADD MSTORE PUSH2 0x2EB4 DUP2 DUP6 PUSH2 0x206E JUMP JUMPDEST SWAP1 POP PUSH2 0x2EC3 PUSH1 0x20 DUP4 ADD DUP5 PUSH2 0x20D3 JUMP JUMPDEST SWAP4 SWAP3 POP POP POP JUMP JUMPDEST PUSH1 0x0 PUSH1 0x80 DUP3 ADD SWAP1 POP DUP2 DUP2 SUB PUSH1 0x0 DUP4 ADD MSTORE PUSH2 0x2EE4 DUP2 DUP8 PUSH2 0x206E JUMP JUMPDEST SWAP1 POP PUSH2 0x2EF3 PUSH1 0x20 DUP4 ADD DUP7 PUSH2 0x20D3 JUMP JUMPDEST DUP2 DUP2 SUB PUSH1 0x40 DUP4 ADD MSTORE PUSH2 0x2F05 DUP2 DUP6 PUSH2 0x206E JUMP JUMPDEST SWAP1 POP PUSH2 0x2F14 PUSH1 0x60 DUP4 ADD DUP5 PUSH2 0x1FED JUMP JUMPDEST SWAP6 SWAP5 POP POP POP POP POP JUMP JUMPDEST PUSH32 0x4E487B7100000000000000000000000000000000000000000000000000000000 PUSH1 0x0 MSTORE PUSH1 0x51 PUSH1 0x4 MSTORE PUSH1 0x24 PUSH1 0x0 REVERT INVALID LOG2 PUSH5 0x6970667358 0x22 SLT KECCAK256 EXTCODECOPY LOG1 DUP11 0xA7 PUSH27 0x8D10878278819A14647EA2D41BE1DB8CBAA0179518F5FE2A3907C2 PUSH5 0x736F6C6343 STOP ADDMOD SHR STOP CALLER "},"methodIdentifiers":{"allowance(address,address)":"dd62ed3e","approve(address,uint256)":"095ea7b3","balanceOf(address)":"70a08231","buyTokens(uint256)":"3610724e","buyerTokens(address)":"f13656eb","buyers(uint256)":"f2aa8218","decimals()":"313ce567","distributeIncome()":"ce8fcab1","getBuyers()":"f64bfaba","getIsRentalProperty()":"1e6e1f04","getLastIncomeDistribution()":"95500d19","getMonthlyIncome()":"5a33e992","getTokenSupply()":"ad974f4c","getTokensBought(address)":"d74a375d","getWhatRentalIncome()":"ae0e16d6","initializeSale(uint256,uint256,address,bool,uint256)":"ca9013cb","isRentalProperty()":"7eb01269","lastIncomeDistribution()":"5e73018c","monthlyIncome()":"197a65f3","name()":"06fdde03","ownerOf()":"0605062f","propertyOwner()":"f446c38f","propertyTokenSupply()":"082a14f8","propertyTotalSupplyLeft()":"2da8c5fd","setLastIncomeDistribution(uint256)":"f4593c11","setMonthlyIncome(uint256)":"38d79ad5","symbol()":"95d89b41","tokenPrice()":"7ff9b596","totalSupply()":"18160ddd","transfer(address,uint256)":"a9059cbb","transferFrom(address,address,uint256)":"23b872dd"}}}}}