{
  "_format": "hh-sol-artifact-1",
  "contractName": "PropertyERC20",
  "sourceName": "contracts/TokenOwnership.sol",
  "abi": [
    {
      "inputs": [
        {
          "internalType": "string",
          "name": "_name",
          "type": "string"
        },
        {
          "internalType": "string",
          "name": "_symbol",
          "type": "string"
        }
      ],
      "stateMutability": "nonpayable",
      "type": "constructor"
    },
    {
      "inputs": [
        {
          "internalType": "address",
          "name": "spender",
          "type": "address"
        },
        {
          "internalType": "uint256",
          "name": "allowance",
          "type": "uint256"
        },
        {
          "internalType": "uint256",
          "name": "needed",
          "type": "uint256"
        }
      ],
      "name": "ERC20InsufficientAllowance",
      "type": "error"
    },
    {
      "inputs": [
        {
          "internalType": "address",
          "name": "sender",
          "type": "address"
        },
        {
          "internalType": "uint256",
          "name": "balance",
          "type": "uint256"
        },
        {
          "internalType": "uint256",
          "name": "needed",
          "type": "uint256"
        }
      ],
      "name": "ERC20InsufficientBalance",
      "type": "error"
    },
    {
      "inputs": [
        {
          "internalType": "address",
          "name": "approver",
          "type": "address"
        }
      ],
      "name": "ERC20InvalidApprover",
      "type": "error"
    },
    {
      "inputs": [
        {
          "internalType": "address",
          "name": "receiver",
          "type": "address"
        }
      ],
      "name": "ERC20InvalidReceiver",
      "type": "error"
    },
    {
      "inputs": [
        {
          "internalType": "address",
          "name": "sender",
          "type": "address"
        }
      ],
      "name": "ERC20InvalidSender",
      "type": "error"
    },
    {
      "inputs": [
        {
          "internalType": "address",
          "name": "spender",
          "type": "address"
        }
      ],
      "name": "ERC20InvalidSpender",
      "type": "error"
    },
    {
      "inputs": [],
      "name": "ReentrancyGuardReentrantCall",
      "type": "error"
    },
    {
      "anonymous": false,
      "inputs": [
        {
          "indexed": true,
          "internalType": "address",
          "name": "owner",
          "type": "address"
        },
        {
          "indexed": true,
          "internalType": "address",
          "name": "spender",
          "type": "address"
        },
        {
          "indexed": false,
          "internalType": "uint256",
          "name": "value",
          "type": "uint256"
        }
      ],
      "name": "Approval",
      "type": "event"
    },
    {
      "anonymous": false,
      "inputs": [
        {
          "indexed": true,
          "internalType": "address",
          "name": "from",
          "type": "address"
        },
        {
          "indexed": true,
          "internalType": "address",
          "name": "to",
          "type": "address"
        },
        {
          "indexed": false,
          "internalType": "uint256",
          "name": "value",
          "type": "uint256"
        }
      ],
      "name": "Transfer",
      "type": "event"
    },
    {
      "inputs": [
        {
          "internalType": "address",
          "name": "owner",
          "type": "address"
        },
        {
          "internalType": "address",
          "name": "spender",
          "type": "address"
        }
      ],
      "name": "allowance",
      "outputs": [
        {
          "internalType": "uint256",
          "name": "",
          "type": "uint256"
        }
      ],
      "stateMutability": "view",
      "type": "function"
    },
    {
      "inputs": [
        {
          "internalType": "address",
          "name": "spender",
          "type": "address"
        },
        {
          "internalType": "uint256",
          "name": "value",
          "type": "uint256"
        }
      ],
      "name": "approve",
      "outputs": [
        {
          "internalType": "bool",
          "name": "",
          "type": "bool"
        }
      ],
      "stateMutability": "nonpayable",
      "type": "function"
    },
    {
      "inputs": [
        {
          "internalType": "address",
          "name": "account",
          "type": "address"
        }
      ],
      "name": "balanceOf",
      "outputs": [
        {
          "internalType": "uint256",
          "name": "",
          "type": "uint256"
        }
      ],
      "stateMutability": "view",
      "type": "function"
    },
    {
      "inputs": [
        {
          "internalType": "uint256",
          "name": "_tokenAmount",
          "type": "uint256"
        }
      ],
      "name": "buyTokens",
      "outputs": [],
      "stateMutability": "payable",
      "type": "function"
    },
    {
      "inputs": [
        {
          "internalType": "address",
          "name": "",
          "type": "address"
        }
      ],
      "name": "buyerTokens",
      "outputs": [
        {
          "internalType": "uint256",
          "name": "",
          "type": "uint256"
        }
      ],
      "stateMutability": "view",
      "type": "function"
    },
    {
      "inputs": [
        {
          "internalType": "uint256",
          "name": "",
          "type": "uint256"
        }
      ],
      "name": "buyers",
      "outputs": [
        {
          "internalType": "address",
          "name": "",
          "type": "address"
        }
      ],
      "stateMutability": "view",
      "type": "function"
    },
    {
      "inputs": [],
      "name": "decimals",
      "outputs": [
        {
          "internalType": "uint8",
          "name": "",
          "type": "uint8"
        }
      ],
      "stateMutability": "view",
      "type": "function"
    },
    {
      "inputs": [],
      "name": "distributeIncome",
      "outputs": [],
      "stateMutability": "payable",
      "type": "function"
    },
    {
      "inputs": [],
      "name": "getBuyers",
      "outputs": [
        {
          "internalType": "address[]",
          "name": "",
          "type": "address[]"
        }
      ],
      "stateMutability": "view",
      "type": "function"
    },
    {
      "inputs": [],
      "name": "getIsRentalProperty",
      "outputs": [
        {
          "internalType": "bool",
          "name": "",
          "type": "bool"
        }
      ],
      "stateMutability": "view",
      "type": "function"
    },
    {
      "inputs": [],
      "name": "getLastIncomeDistribution",
      "outputs": [
        {
          "internalType": "uint256",
          "name": "",
          "type": "uint256"
        }
      ],
      "stateMutability": "view",
      "type": "function"
    },
    {
      "inputs": [],
      "name": "getMonthlyIncome",
      "outputs": [
        {
          "internalType": "uint256",
          "name": "",
          "type": "uint256"
        }
      ],
      "stateMutability": "view",
      "type": "function"
    },
    {
      "inputs": [],
      "name": "getTokenPrice",
      "outputs": [
        {
          "internalType": "uint256",
          "name": "",
          "type": "uint256"
        }
      ],
      "stateMutability": "view",
      "type": "function"
    },
    {
      "inputs": [],
      "name": "getTokenSupply",
      "outputs": [
        {
          "internalType": "uint256",
          "name": "",
          "type": "uint256"
        }
      ],
      "stateMutability": "view",
      "type": "function"
    },
    {
      "inputs": [
        {
          "internalType": "address",
          "name": "buyer",
          "type": "address"
        }
      ],
      "name": "getTokensBought",
      "outputs": [
        {
          "internalType": "uint256",
          "name": "",
          "type": "uint256"
        }
      ],
      "stateMutability": "view",
      "type": "function"
    },
    {
      "inputs": [],
      "name": "getWhatRentalIncome",
      "outputs": [
        {
          "internalType": "uint256",
          "name": "",
          "type": "uint256"
        }
      ],
      "stateMutability": "view",
      "type": "function"
    },
    {
      "inputs": [
        {
          "internalType": "uint256",
          "name": "_totalSupply",
          "type": "uint256"
        },
        {
          "internalType": "uint256",
          "name": "_tokenPrice",
          "type": "uint256"
        },
        {
          "internalType": "address",
          "name": "_propertyOwner",
          "type": "address"
        },
        {
          "internalType": "bool",
          "name": "_isRentalProperty",
          "type": "bool"
        },
        {
          "internalType": "uint256",
          "name": "_monthlyIncome",
          "type": "uint256"
        }
      ],
      "name": "initializeSale",
      "outputs": [],
      "stateMutability": "nonpayable",
      "type": "function"
    },
    {
      "inputs": [],
      "name": "isRentalProperty",
      "outputs": [
        {
          "internalType": "bool",
          "name": "",
          "type": "bool"
        }
      ],
      "stateMutability": "view",
      "type": "function"
    },
    {
      "inputs": [],
      "name": "lastIncomeDistribution",
      "outputs": [
        {
          "internalType": "uint256",
          "name": "",
          "type": "uint256"
        }
      ],
      "stateMutability": "view",
      "type": "function"
    },
    {
      "inputs": [],
      "name": "monthlyIncome",
      "outputs": [
        {
          "internalType": "uint256",
          "name": "",
          "type": "uint256"
        }
      ],
      "stateMutability": "view",
      "type": "function"
    },
    {
      "inputs": [],
      "name": "name",
      "outputs": [
        {
          "internalType": "string",
          "name": "",
          "type": "string"
        }
      ],
      "stateMutability": "view",
      "type": "function"
    },
    {
      "inputs": [],
      "name": "ownerOf",
      "outputs": [
        {
          "internalType": "address",
          "name": "",
          "type": "address"
        }
      ],
      "stateMutability": "view",
      "type": "function"
    },
    {
      "inputs": [],
      "name": "propertyOwner",
      "outputs": [
        {
          "internalType": "address",
          "name": "",
          "type": "address"
        }
      ],
      "stateMutability": "view",
      "type": "function"
    },
    {
      "inputs": [],
      "name": "propertyTokenSupply",
      "outputs": [
        {
          "internalType": "uint256",
          "name": "",
          "type": "uint256"
        }
      ],
      "stateMutability": "view",
      "type": "function"
    },
    {
      "inputs": [],
      "name": "propertyTotalSupplyLeft",
      "outputs": [
        {
          "internalType": "uint256",
          "name": "",
          "type": "uint256"
        }
      ],
      "stateMutability": "view",
      "type": "function"
    },
    {
      "inputs": [
        {
          "internalType": "uint256",
          "name": "_timestamp",
          "type": "uint256"
        }
      ],
      "name": "setLastIncomeDistribution",
      "outputs": [],
      "stateMutability": "nonpayable",
      "type": "function"
    },
    {
      "inputs": [
        {
          "internalType": "uint256",
          "name": "_newMonthlyIncome",
          "type": "uint256"
        }
      ],
      "name": "setMonthlyIncome",
      "outputs": [],
      "stateMutability": "nonpayable",
      "type": "function"
    },
    {
      "inputs": [],
      "name": "symbol",
      "outputs": [
        {
          "internalType": "string",
          "name": "",
          "type": "string"
        }
      ],
      "stateMutability": "view",
      "type": "function"
    },
    {
      "inputs": [],
      "name": "tokenPrice",
      "outputs": [
        {
          "internalType": "uint256",
          "name": "",
          "type": "uint256"
        }
      ],
      "stateMutability": "view",
      "type": "function"
    },
    {
      "inputs": [],
      "name": "totalSupply",
      "outputs": [
        {
          "internalType": "uint256",
          "name": "",
          "type": "uint256"
        }
      ],
      "stateMutability": "view",
      "type": "function"
    },
    {
      "inputs": [
        {
          "internalType": "address",
          "name": "to",
          "type": "address"
        },
        {
          "internalType": "uint256",
          "name": "value",
          "type": "uint256"
        }
      ],
      "name": "transfer",
      "outputs": [
        {
          "internalType": "bool",
          "name": "",
          "type": "bool"
        }
      ],
      "stateMutability": "nonpayable",
      "type": "function"
    },
    {
      "inputs": [
        {
          "internalType": "address",
          "name": "from",
          "type": "address"
        },
        {
          "internalType": "address",
          "name": "to",
          "type": "address"
        },
        {
          "internalType": "uint256",
          "name": "value",
          "type": "uint256"
        }
      ],
      "name": "transferFrom",
      "outputs": [
        {
          "internalType": "bool",
          "name": "",
          "type": "bool"
        }
      ],
      "stateMutability": "nonpayable",
      "type": "function"
    }
  ],
  "bytecode": "0x608060405234801561001057600080fd5b50604051613300380380613300833981810160405281019061003291906101da565b818181600390816100439190610473565b5080600490816100539190610473565b50505060016005819055505050610545565b6000604051905090565b600080fd5b600080fd5b600080fd5b600080fd5b6000601f19601f8301169050919050565b7f4e487b7100000000000000000000000000000000000000000000000000000000600052604160045260246000fd5b6100cc82610083565b810181811067ffffffffffffffff821117156100eb576100ea610094565b5b80604052505050565b60006100fe610065565b905061010a82826100c3565b919050565b600067ffffffffffffffff82111561012a57610129610094565b5b61013382610083565b9050602081019050919050565b60005b8381101561015e578082015181840152602081019050610143565b60008484015250505050565b600061017d6101788461010f565b6100f4565b9050828152602081018484840111156101995761019861007e565b5b6101a4848285610140565b509392505050565b600082601f8301126101c1576101c0610079565b5b81516101d184826020860161016a565b91505092915050565b600080604083850312156101f1576101f061006f565b5b600083015167ffffffffffffffff81111561020f5761020e610074565b5b61021b858286016101ac565b925050602083015167ffffffffffffffff81111561023c5761023b610074565b5b610248858286016101ac565b9150509250929050565b600081519050919050565b7f4e487b7100000000000000000000000000000000000000000000000000000000600052602260045260246000fd5b600060028204905060018216806102a457607f821691505b6020821081036102b7576102b661025d565b5b50919050565b60008190508160005260206000209050919050565b60006020601f8301049050919050565b600082821b905092915050565b60006008830261031f7fffffffffffffffffffffffffffffffffffffffffffffffffffffffffffffffff826102e2565b61032986836102e2565b95508019841693508086168417925050509392505050565b6000819050919050565b6000819050919050565b600061037061036b61036684610341565b61034b565b610341565b9050919050565b6000819050919050565b61038a83610355565b61039e61039682610377565b8484546102ef565b825550505050565b600090565b6103b36103a6565b6103be818484610381565b505050565b5b818110156103e2576103d76000826103ab565b6001810190506103c4565b5050565b601f821115610427576103f8816102bd565b610401846102d2565b81016020851015610410578190505b61042461041c856102d2565b8301826103c3565b50505b505050565b600082821c905092915050565b600061044a6000198460080261042c565b1980831691505092915050565b60006104638383610439565b9150826002028217905092915050565b61047c82610252565b67ffffffffffffffff81111561049557610494610094565b5b61049f825461028c565b6104aa8282856103e6565b600060209050601f8311600181146104dd57600084156104cb578287015190505b6104d58582610457565b86555061053d565b601f1984166104eb866102bd565b60005b82811015610513578489015182556001820191506020850194506020810190506104ee565b86831015610530578489015161052c601f891682610439565b8355505b6001600288020188555050505b505050505050565b612dac806105546000396000f3fe6080604052600436106101e35760003560e01c80637eb0126911610102578063ce8fcab111610095578063f2aa821811610064578063f2aa8218146106e6578063f446c38f14610723578063f4593c111461074e578063f64bfaba14610777576101e3565b8063ce8fcab114610625578063d74a375d1461062f578063dd62ed3e1461066c578063f13656eb146106a9576101e3565b8063a9059cbb116100d1578063a9059cbb14610569578063ad974f4c146105a6578063ae0e16d6146105d1578063ca9013cb146105fc576101e3565b80637eb01269146104bd5780637ff9b596146104e857806395500d191461051357806395d89b411461053e576101e3565b80632da8c5fd1161017a5780634b94f50e116101495780634b94f50e146103ff5780635a33e9921461042a5780635e73018c1461045557806370a0823114610480576101e3565b80632da8c5fd14610364578063313ce5671461038f5780633610724e146103ba57806338d79ad5146103d6576101e3565b806318160ddd116101b657806318160ddd146102a6578063197a65f3146102d15780631e6e1f04146102fc57806323b872dd14610327576101e3565b80630605062f146101e857806306fdde0314610213578063082a14f81461023e578063095ea7b314610269575b600080fd5b3480156101f457600080fd5b506101fd6107a2565b60405161020a9190611e86565b60405180910390f35b34801561021f57600080fd5b506102286107cc565b6040516102359190611f31565b60405180910390f35b34801561024a57600080fd5b5061025361085e565b6040516102609190611f6c565b60405180910390f35b34801561027557600080fd5b50610290600480360381019061028b9190611fe4565b610864565b60405161029d919061203f565b60405180910390f35b3480156102b257600080fd5b506102bb610887565b6040516102c89190611f6c565b60405180910390f35b3480156102dd57600080fd5b506102e6610891565b6040516102f39190611f6c565b60405180910390f35b34801561030857600080fd5b50610311610897565b60405161031e919061203f565b60405180910390f35b34801561033357600080fd5b5061034e6004803603810190610349919061205a565b6108ae565b60405161035b919061203f565b60405180910390f35b34801561037057600080fd5b506103796108dd565b6040516103869190611f6c565b60405180910390f35b34801561039b57600080fd5b506103a46108e3565b6040516103b191906120c9565b60405180910390f35b6103d460048036038101906103cf91906120e4565b6108ec565b005b3480156103e257600080fd5b506103fd60048036038101906103f891906120e4565b610b6c565b005b34801561040b57600080fd5b50610414610c55565b6040516104219190611f6c565b60405180910390f35b34801561043657600080fd5b5061043f610c5f565b60405161044c9190611f6c565b60405180910390f35b34801561046157600080fd5b5061046a610c69565b6040516104779190611f6c565b60405180910390f35b34801561048c57600080fd5b506104a760048036038101906104a29190612111565b610c6f565b6040516104b49190611f6c565b60405180910390f35b3480156104c957600080fd5b506104d2610cb7565b6040516104df919061203f565b60405180910390f35b3480156104f457600080fd5b506104fd610cca565b60405161050a9190611f6c565b60405180910390f35b34801561051f57600080fd5b50610528610cd0565b6040516105359190611f6c565b60405180910390f35b34801561054a57600080fd5b50610553610cda565b6040516105609190611f31565b60405180910390f35b34801561057557600080fd5b50610590600480360381019061058b9190611fe4565b610d6c565b60405161059d919061203f565b60405180910390f35b3480156105b257600080fd5b506105bb610d8f565b6040516105c89190611f6c565b60405180910390f35b3480156105dd57600080fd5b506105e6610d99565b6040516105f39190611f6c565b60405180910390f35b34801561060857600080fd5b50610623600480360381019061061e919061216a565b610df2565b005b61062d611062565b005b34801561063b57600080fd5b5061065660048036038101906106519190612111565b6113c8565b6040516106639190611f6c565b60405180910390f35b34801561067857600080fd5b50610693600480360381019061068e91906121e5565b611411565b6040516106a09190611f6c565b60405180910390f35b3480156106b557600080fd5b506106d060048036038101906106cb9190612111565b611498565b6040516106dd9190611f6c565b60405180910390f35b3480156106f257600080fd5b5061070d600480360381019061070891906120e4565b6114b0565b60405161071a9190611e86565b60405180910390f35b34801561072f57600080fd5b506107386114ef565b6040516107459190611e86565b60405180910390f35b34801561075a57600080fd5b50610775600480360381019061077091906120e4565b611515565b005b34801561078357600080fd5b5061078c6115af565b60405161079991906122e3565b60405180910390f35b6000600960009054906101000a900473ffffffffffffffffffffffffffffffffffffffff16905090565b6060600380546107db90612334565b80601f016020809104026020016040519081016040528092919081815260200182805461080790612334565b80156108545780601f1061082957610100808354040283529160200191610854565b820191906000526020600020905b81548152906001019060200180831161083757829003601f168201915b5050505050905090565b60065481565b60008061086f61163d565b905061087c818585611645565b600191505092915050565b6000600254905090565b600c5481565b6000600e60009054906101000a900460ff16905090565b6000806108b961163d565b90506108c6858285611657565b6108d18585856116ec565b60019150509392505050565b60075481565b60006012905090565b6108f46117e0565b6000600854826109049190612394565b905060006007541161094b576040517f08c379a000000000000000000000000000000000000000000000000000000000815260040161094290612422565b60405180910390fd5b8034101561098e576040517f08c379a00000000000000000000000000000000000000000000000000000000081526004016109859061248e565b60405180910390fd5b8160075410156109d3576040517f08c379a00000000000000000000000000000000000000000000000000000000081526004016109ca906124fa565b60405180910390fd5b6109de3033846116ec565b81600a60003373ffffffffffffffffffffffffffffffffffffffff1673ffffffffffffffffffffffffffffffffffffffff1681526020019081526020016000206000828254610a2d919061251a565b925050819055508160076000828254610a46919061254e565b92505081905550600960009054906101000a900473ffffffffffffffffffffffffffffffffffffffff1673ffffffffffffffffffffffffffffffffffffffff166108fc349081150290604051600060405180830381858888f19350505050158015610ab5573d6000803e3d6000fd5b5081600a60003373ffffffffffffffffffffffffffffffffffffffff1673ffffffffffffffffffffffffffffffffffffffff1681526020019081526020016000205403610b6057600b339080600181540180825580915050600190039060005260206000200160009091909190916101000a81548173ffffffffffffffffffffffffffffffffffffffff021916908373ffffffffffffffffffffffffffffffffffffffff1602179055505b50610b69611826565b50565b600960009054906101000a900473ffffffffffffffffffffffffffffffffffffffff1673ffffffffffffffffffffffffffffffffffffffff163373ffffffffffffffffffffffffffffffffffffffff1614610bfc576040517f08c379a0000000000000000000000000000000000000000000000000000000008152600401610bf3906125f4565b60405180910390fd5b600e60009054906101000a900460ff16610c4b576040517f08c379a0000000000000000000000000000000000000000000000000000000008152600401610c4290612660565b60405180910390fd5b80600c8190555050565b6000600854905090565b6000600c54905090565b600d5481565b60008060008373ffffffffffffffffffffffffffffffffffffffff1673ffffffffffffffffffffffffffffffffffffffff168152602001908152602001600020549050919050565b600e60009054906101000a900460ff1681565b60085481565b6000600d54905090565b606060048054610ce990612334565b80601f0160208091040260200160405190810160405280929190818152602001828054610d1590612334565b8015610d625780601f10610d3757610100808354040283529160200191610d62565b820191906000526020600020905b815481529060010190602001808311610d4557829003601f168201915b5050505050905090565b600080610d7761163d565b9050610d848185856116ec565b600191505092915050565b6000600754905090565b6000600e60009054906101000a900460ff16610dea576040517f08c379a0000000000000000000000000000000000000000000000000000000008152600401610de190612660565b60405180910390fd5b600c54905090565b600060075414610e37576040517f08c379a0000000000000000000000000000000000000000000000000000000008152600401610e2e906126cc565b60405180910390fd5b8460068190555084600781905550600060075411610e8a576040517f08c379a0000000000000000000000000000000000000000000000000000000008152600401610e819061275e565b60405180910390fd5b69d3c21bcecceda10000006007541115610ed9576040517f08c379a0000000000000000000000000000000000000000000000000000000008152600401610ed0906127ca565b60405180910390fd5b8360088190555060008411610f23576040517f08c379a0000000000000000000000000000000000000000000000000000000008152600401610f1a9061285c565b60405180910390fd5b82600960006101000a81548173ffffffffffffffffffffffffffffffffffffffff021916908373ffffffffffffffffffffffffffffffffffffffff160217905550600073ffffffffffffffffffffffffffffffffffffffff168373ffffffffffffffffffffffffffffffffffffffff1603610fd3576040517f08c379a0000000000000000000000000000000000000000000000000000000008152600401610fca906128c8565b60405180910390fd5b81600e60006101000a81548160ff021916908315150217905550610ff930600754611830565b600e60009054906101000a900460ff161561105b5760008111611051576040517f08c379a00000000000000000000000000000000000000000000000000000000081526004016110489061295a565b60405180910390fd5b61105a816118b2565b5b5050505050565b61106a6117e0565b600e60009054906101000a900460ff166110b9576040517f08c379a00000000000000000000000000000000000000000000000000000000081526004016110b090612660565b60405180910390fd5b600960009054906101000a900473ffffffffffffffffffffffffffffffffffffffff1673ffffffffffffffffffffffffffffffffffffffff163373ffffffffffffffffffffffffffffffffffffffff1614611149576040517f08c379a0000000000000000000000000000000000000000000000000000000008152600401611140906129ec565b60405180910390fd5b62278d00600d5461115a919061251a565b42101561119c576040517f08c379a000000000000000000000000000000000000000000000000000000000815260040161119390612a7e565b60405180910390fd5b600c543410156111e1576040517f08c379a00000000000000000000000000000000000000000000000000000000081526004016111d890612b10565b60405180910390fd5b600060065411611226576040517f08c379a000000000000000000000000000000000000000000000000000000000815260040161121d90612ba2565b60405180910390fd5b60006006549050600034905060005b600b805490508110156113bb576000600b828154811061125857611257612bc2565b5b9060005260206000200160009054906101000a900473ffffffffffffffffffffffffffffffffffffffff1690506000600a60008373ffffffffffffffffffffffffffffffffffffffff1673ffffffffffffffffffffffffffffffffffffffff16815260200190815260200160002054905060008111156113ac5760008585836112e19190612394565b6112eb9190612c20565b90508273ffffffffffffffffffffffffffffffffffffffff166108fc829081150290604051600060405180830381858888f19350505050158015611333573d6000803e3d6000fd5b506113aa6040518060400160405280600c81526020017f5472616e73666572726564200000000000000000000000000000000000000000815250826040518060400160405280600f81526020017f2045544820746f2062757965723a20000000000000000000000000000000000081525086611957565b505b50508080600101915050611235565b5050506113c6611826565b565b6000600a60008373ffffffffffffffffffffffffffffffffffffffff1673ffffffffffffffffffffffffffffffffffffffff168152602001908152602001600020549050919050565b6000600160008473ffffffffffffffffffffffffffffffffffffffff1673ffffffffffffffffffffffffffffffffffffffff16815260200190815260200160002060008373ffffffffffffffffffffffffffffffffffffffff1673ffffffffffffffffffffffffffffffffffffffff16815260200190815260200160002054905092915050565b600a6020528060005260406000206000915090505481565b600b81815481106114c057600080fd5b906000526020600020016000915054906101000a900473ffffffffffffffffffffffffffffffffffffffff1681565b600960009054906101000a900473ffffffffffffffffffffffffffffffffffffffff1681565b600960009054906101000a900473ffffffffffffffffffffffffffffffffffffffff1673ffffffffffffffffffffffffffffffffffffffff163373ffffffffffffffffffffffffffffffffffffffff16146115a5576040517f08c379a000000000000000000000000000000000000000000000000000000000815260040161159c90612c9d565b60405180910390fd5b80600d8190555050565b6060600b80548060200260200160405190810160405280929190818152602001828054801561163357602002820191906000526020600020905b8160009054906101000a900473ffffffffffffffffffffffffffffffffffffffff1673ffffffffffffffffffffffffffffffffffffffff16815260200190600101908083116115e9575b5050505050905090565b600033905090565b61165283838360016119f9565b505050565b60006116638484611411565b90507fffffffffffffffffffffffffffffffffffffffffffffffffffffffffffffffff8110156116e657818110156116d6578281836040517ffb8f41b20000000000000000000000000000000000000000000000000000000081526004016116cd93929190612cbd565b60405180910390fd5b6116e5848484840360006119f9565b5b50505050565b600073ffffffffffffffffffffffffffffffffffffffff168373ffffffffffffffffffffffffffffffffffffffff160361175e5760006040517f96c6fd1e0000000000000000000000000000000000000000000000000000000081526004016117559190611e86565b60405180910390fd5b600073ffffffffffffffffffffffffffffffffffffffff168273ffffffffffffffffffffffffffffffffffffffff16036117d05760006040517fec442f050000000000000000000000000000000000000000000000000000000081526004016117c79190611e86565b60405180910390fd5b6117db838383611bd0565b505050565b60026005540361181c576040517f3ee5aeb500000000000000000000000000000000000000000000000000000000815260040160405180910390fd5b6002600581905550565b6001600581905550565b600073ffffffffffffffffffffffffffffffffffffffff168273ffffffffffffffffffffffffffffffffffffffff16036118a25760006040517fec442f050000000000000000000000000000000000000000000000000000000081526004016118999190611e86565b60405180910390fd5b6118ae60008383611bd0565b5050565b600e60009054906101000a900460ff16611901576040517f08c379a00000000000000000000000000000000000000000000000000000000081526004016118f890612660565b60405180910390fd5b6000600c5414611946576040517f08c379a000000000000000000000000000000000000000000000000000000000815260040161193d906126cc565b60405180910390fd5b80600c8190555042600d8190555050565b6119f3848484846040516024016119719493929190612cf4565b6040516020818303038152906040527f7c4632a4000000000000000000000000000000000000000000000000000000007bffffffffffffffffffffffffffffffffffffffffffffffffffffffff19166020820180517bffffffffffffffffffffffffffffffffffffffffffffffffffffffff8381831617835250505050611df5565b50505050565b600073ffffffffffffffffffffffffffffffffffffffff168473ffffffffffffffffffffffffffffffffffffffff1603611a6b5760006040517fe602df05000000000000000000000000000000000000000000000000000000008152600401611a629190611e86565b60405180910390fd5b600073ffffffffffffffffffffffffffffffffffffffff168373ffffffffffffffffffffffffffffffffffffffff1603611add5760006040517f94280d62000000000000000000000000000000000000000000000000000000008152600401611ad49190611e86565b60405180910390fd5b81600160008673ffffffffffffffffffffffffffffffffffffffff1673ffffffffffffffffffffffffffffffffffffffff16815260200190815260200160002060008573ffffffffffffffffffffffffffffffffffffffff1673ffffffffffffffffffffffffffffffffffffffff168152602001908152602001600020819055508015611bca578273ffffffffffffffffffffffffffffffffffffffff168473ffffffffffffffffffffffffffffffffffffffff167f8c5be1e5ebec7d5bd14f71427d1e84f3dd0314c0f7b2291e5b200ac8c7c3b92584604051611bc19190611f6c565b60405180910390a35b50505050565b600073ffffffffffffffffffffffffffffffffffffffff168373ffffffffffffffffffffffffffffffffffffffff1603611c22578060026000828254611c16919061251a565b92505081905550611cf5565b60008060008573ffffffffffffffffffffffffffffffffffffffff1673ffffffffffffffffffffffffffffffffffffffff16815260200190815260200160002054905081811015611cae578381836040517fe450d38c000000000000000000000000000000000000000000000000000000008152600401611ca593929190612cbd565b60405180910390fd5b8181036000808673ffffffffffffffffffffffffffffffffffffffff1673ffffffffffffffffffffffffffffffffffffffff16815260200190815260200160002081905550505b600073ffffffffffffffffffffffffffffffffffffffff168273ffffffffffffffffffffffffffffffffffffffff1603611d3e5780600260008282540392505081905550611d8b565b806000808473ffffffffffffffffffffffffffffffffffffffff1673ffffffffffffffffffffffffffffffffffffffff168152602001908152602001600020600082825401925050819055505b8173ffffffffffffffffffffffffffffffffffffffff168373ffffffffffffffffffffffffffffffffffffffff167fddf252ad1be2c89b69c2b068fc378daa952ba7f163c4a11628f55a4df523b3ef83604051611de89190611f6c565b60405180910390a3505050565b611e0c81611e04611e0f611e30565b63ffffffff16565b50565b60006a636f6e736f6c652e6c6f679050600080835160208501845afa505050565b611e3b819050919050565b611e43612d47565b565b600073ffffffffffffffffffffffffffffffffffffffff82169050919050565b6000611e7082611e45565b9050919050565b611e8081611e65565b82525050565b6000602082019050611e9b6000830184611e77565b92915050565b600081519050919050565b600082825260208201905092915050565b60005b83811015611edb578082015181840152602081019050611ec0565b60008484015250505050565b6000601f19601f8301169050919050565b6000611f0382611ea1565b611f0d8185611eac565b9350611f1d818560208601611ebd565b611f2681611ee7565b840191505092915050565b60006020820190508181036000830152611f4b8184611ef8565b905092915050565b6000819050919050565b611f6681611f53565b82525050565b6000602082019050611f816000830184611f5d565b92915050565b600080fd5b611f9581611e65565b8114611fa057600080fd5b50565b600081359050611fb281611f8c565b92915050565b611fc181611f53565b8114611fcc57600080fd5b50565b600081359050611fde81611fb8565b92915050565b60008060408385031215611ffb57611ffa611f87565b5b600061200985828601611fa3565b925050602061201a85828601611fcf565b9150509250929050565b60008115159050919050565b61203981612024565b82525050565b60006020820190506120546000830184612030565b92915050565b60008060006060848603121561207357612072611f87565b5b600061208186828701611fa3565b935050602061209286828701611fa3565b92505060406120a386828701611fcf565b9150509250925092565b600060ff82169050919050565b6120c3816120ad565b82525050565b60006020820190506120de60008301846120ba565b92915050565b6000602082840312156120fa576120f9611f87565b5b600061210884828501611fcf565b91505092915050565b60006020828403121561212757612126611f87565b5b600061213584828501611fa3565b91505092915050565b61214781612024565b811461215257600080fd5b50565b6000813590506121648161213e565b92915050565b600080600080600060a0868803121561218657612185611f87565b5b600061219488828901611fcf565b95505060206121a588828901611fcf565b94505060406121b688828901611fa3565b93505060606121c788828901612155565b92505060806121d888828901611fcf565b9150509295509295909350565b600080604083850312156121fc576121fb611f87565b5b600061220a85828601611fa3565b925050602061221b85828601611fa3565b9150509250929050565b600081519050919050565b600082825260208201905092915050565b6000819050602082019050919050565b61225a81611e65565b82525050565b600061226c8383612251565b60208301905092915050565b6000602082019050919050565b600061229082612225565b61229a8185612230565b93506122a583612241565b8060005b838110156122d65781516122bd8882612260565b97506122c883612278565b9250506001810190506122a9565b5085935050505092915050565b600060208201905081810360008301526122fd8184612285565b905092915050565b7f4e487b7100000000000000000000000000000000000000000000000000000000600052602260045260246000fd5b6000600282049050600182168061234c57607f821691505b60208210810361235f5761235e612305565b5b50919050565b7f4e487b7100000000000000000000000000000000000000000000000000000000600052601160045260246000fd5b600061239f82611f53565b91506123aa83611f53565b92508282026123b881611f53565b915082820484148315176123cf576123ce612365565b5b5092915050565b7f496e73756666696369656e7420546f6b656e73204c6566740000000000000000600082015250565b600061240c601883611eac565b9150612417826123d6565b602082019050919050565b6000602082019050818103600083015261243b816123ff565b9050919050565b7f496e73756666696369656e74204554482073656e740000000000000000000000600082015250565b6000612478601583611eac565b915061248382612442565b602082019050919050565b600060208201905081810360008301526124a78161246b565b9050919050565b7f4e6f7420656e6f75676820746f6b656e7320617661696c61626c650000000000600082015250565b60006124e4601b83611eac565b91506124ef826124ae565b602082019050919050565b60006020820190508181036000830152612513816124d7565b9050919050565b600061252582611f53565b915061253083611f53565b925082820190508082111561254857612547612365565b5b92915050565b600061255982611f53565b915061256483611f53565b925082820390508181111561257c5761257b612365565b5b92915050565b7f4f6e6c79207468652070726f7065727479206f776e65722063616e207365742060008201527f74686520696e636f6d6500000000000000000000000000000000000000000000602082015250565b60006125de602a83611eac565b91506125e982612582565b604082019050919050565b6000602082019050818103600083015261260d816125d1565b9050919050565b7f54686973206973206e6f7420612072656e74616c2070726f7065727479000000600082015250565b600061264a601d83611eac565b915061265582612614565b602082019050919050565b600060208201905081810360008301526126798161263d565b9050919050565b7f53616c6520616c726561647920696e697469616c697a65640000000000000000600082015250565b60006126b6601883611eac565b91506126c182612680565b602082019050919050565b600060208201905081810360008301526126e5816126a9565b9050919050565b7f50726f706572747920546f6b656e20537570706c79206d75737420626520677260008201527f6561746572207468616e20300000000000000000000000000000000000000000602082015250565b6000612748602c83611eac565b9150612753826126ec565b604082019050919050565b600060208201905081810360008301526127778161273b565b9050919050565b7f546f74616c20737570706c7920697320746f6f206c6172676500000000000000600082015250565b60006127b4601983611eac565b91506127bf8261277e565b602082019050919050565b600060208201905081810360008301526127e3816127a7565b9050919050565b7f546f6b656e207072696365206d7573742062652067726561746572207468616e60008201527f207a65726f000000000000000000000000000000000000000000000000000000602082015250565b6000612846602583611eac565b9150612851826127ea565b604082019050919050565b6000602082019050818103600083015261287581612839565b9050919050565b7f496e76616c69642070726f7065727479206f776e657220616464726573730000600082015250565b60006128b2601e83611eac565b91506128bd8261287c565b602082019050919050565b600060208201905081810360008301526128e1816128a5565b9050919050565b7f52656e74616c20696e636f6d65206d757374206265206772656174657220746860008201527f616e207a65726f00000000000000000000000000000000000000000000000000602082015250565b6000612944602783611eac565b915061294f826128e8565b604082019050919050565b6000602082019050818103600083015261297381612937565b9050919050565b7f4f6e6c79207468652070726f7065727479206f776e65722063616e206469737460008201527f72696275746520696e636f6d6500000000000000000000000000000000000000602082015250565b60006129d6602d83611eac565b91506129e18261297a565b604082019050919050565b60006020820190508181036000830152612a05816129c9565b9050919050565b7f4d6f6e74686c7920696e636f6d6520646973747269627574696f6e206973206e60008201527f6f74206475652079657400000000000000000000000000000000000000000000602082015250565b6000612a68602a83611eac565b9150612a7382612a0c565b604082019050919050565b60006020820190508181036000830152612a9781612a5b565b9050919050565b7f4e6f7420656e6f756768204554482073656e7420666f7220646973747269627560008201527f74696f6e00000000000000000000000000000000000000000000000000000000602082015250565b6000612afa602483611eac565b9150612b0582612a9e565b604082019050919050565b60006020820190508181036000830152612b2981612aed565b9050919050565b7f546f74616c20746f6b656e20737570706c792063616e6e6f74206265207a657260008201527f6f00000000000000000000000000000000000000000000000000000000000000602082015250565b6000612b8c602183611eac565b9150612b9782612b30565b604082019050919050565b60006020820190508181036000830152612bbb81612b7f565b9050919050565b7f4e487b7100000000000000000000000000000000000000000000000000000000600052603260045260246000fd5b7f4e487b7100000000000000000000000000000000000000000000000000000000600052601260045260246000fd5b6000612c2b82611f53565b9150612c3683611f53565b925082612c4657612c45612bf1565b5b828204905092915050565b7f4f6e6c7920746865206f776e65722063616e2073657420746869730000000000600082015250565b6000612c87601b83611eac565b9150612c9282612c51565b602082019050919050565b60006020820190508181036000830152612cb681612c7a565b9050919050565b6000606082019050612cd26000830186611e77565b612cdf6020830185611f5d565b612cec6040830184611f5d565b949350505050565b60006080820190508181036000830152612d0e8187611ef8565b9050612d1d6020830186611f5d565b8181036040830152612d2f8185611ef8565b9050612d3e6060830184611e77565b95945050505050565b7f4e487b7100000000000000000000000000000000000000000000000000000000600052605160045260246000fdfea26469706673582212204790c9e8f9cc5befca905a8586f8c46275a3086045920b4973534ffc70e2330964736f6c634300081c0033",
  "linkReferences": {},
  "deployedLinkReferences": {}
}