{
  "_format": "hh-sol-artifact-1",
  "contractName": "PropertyERC20",
  "sourceName": "contracts/RentalTokenOwnership.sol",
  "abi": [
    {
      "inputs": [
        {
          "internalType": "string",
          "name": "_name",
          "type": "string"
        },
        {
          "internalType": "string",
          "name": "_symbol",
          "type": "string"
        }
      ],
      "stateMutability": "nonpayable",
      "type": "constructor"
    },
    {
      "inputs": [
        {
          "internalType": "address",
          "name": "spender",
          "type": "address"
        },
        {
          "internalType": "uint256",
          "name": "allowance",
          "type": "uint256"
        },
        {
          "internalType": "uint256",
          "name": "needed",
          "type": "uint256"
        }
      ],
      "name": "ERC20InsufficientAllowance",
      "type": "error"
    },
    {
      "inputs": [
        {
          "internalType": "address",
          "name": "sender",
          "type": "address"
        },
        {
          "internalType": "uint256",
          "name": "balance",
          "type": "uint256"
        },
        {
          "internalType": "uint256",
          "name": "needed",
          "type": "uint256"
        }
      ],
      "name": "ERC20InsufficientBalance",
      "type": "error"
    },
    {
      "inputs": [
        {
          "internalType": "address",
          "name": "approver",
          "type": "address"
        }
      ],
      "name": "ERC20InvalidApprover",
      "type": "error"
    },
    {
      "inputs": [
        {
          "internalType": "address",
          "name": "receiver",
          "type": "address"
        }
      ],
      "name": "ERC20InvalidReceiver",
      "type": "error"
    },
    {
      "inputs": [
        {
          "internalType": "address",
          "name": "sender",
          "type": "address"
        }
      ],
      "name": "ERC20InvalidSender",
      "type": "error"
    },
    {
      "inputs": [
        {
          "internalType": "address",
          "name": "spender",
          "type": "address"
        }
      ],
      "name": "ERC20InvalidSpender",
      "type": "error"
    },
    {
      "inputs": [],
      "name": "ReentrancyGuardReentrantCall",
      "type": "error"
    },
    {
      "anonymous": false,
      "inputs": [
        {
          "indexed": true,
          "internalType": "address",
          "name": "owner",
          "type": "address"
        },
        {
          "indexed": true,
          "internalType": "address",
          "name": "spender",
          "type": "address"
        },
        {
          "indexed": false,
          "internalType": "uint256",
          "name": "value",
          "type": "uint256"
        }
      ],
      "name": "Approval",
      "type": "event"
    },
    {
      "anonymous": false,
      "inputs": [
        {
          "indexed": true,
          "internalType": "address",
          "name": "from",
          "type": "address"
        },
        {
          "indexed": true,
          "internalType": "address",
          "name": "to",
          "type": "address"
        },
        {
          "indexed": false,
          "internalType": "uint256",
          "name": "value",
          "type": "uint256"
        }
      ],
      "name": "Transfer",
      "type": "event"
    },
    {
      "inputs": [
        {
          "internalType": "address",
          "name": "owner",
          "type": "address"
        },
        {
          "internalType": "address",
          "name": "spender",
          "type": "address"
        }
      ],
      "name": "allowance",
      "outputs": [
        {
          "internalType": "uint256",
          "name": "",
          "type": "uint256"
        }
      ],
      "stateMutability": "view",
      "type": "function"
    },
    {
      "inputs": [
        {
          "internalType": "address",
          "name": "spender",
          "type": "address"
        },
        {
          "internalType": "uint256",
          "name": "value",
          "type": "uint256"
        }
      ],
      "name": "approve",
      "outputs": [
        {
          "internalType": "bool",
          "name": "",
          "type": "bool"
        }
      ],
      "stateMutability": "nonpayable",
      "type": "function"
    },
    {
      "inputs": [
        {
          "internalType": "address",
          "name": "account",
          "type": "address"
        }
      ],
      "name": "balanceOf",
      "outputs": [
        {
          "internalType": "uint256",
          "name": "",
          "type": "uint256"
        }
      ],
      "stateMutability": "view",
      "type": "function"
    },
    {
      "inputs": [
        {
          "internalType": "uint256",
          "name": "_tokenAmount",
          "type": "uint256"
        }
      ],
      "name": "buyTokens",
      "outputs": [],
      "stateMutability": "payable",
      "type": "function"
    },
    {
      "inputs": [
        {
          "internalType": "address",
          "name": "",
          "type": "address"
        }
      ],
      "name": "buyerTokens",
      "outputs": [
        {
          "internalType": "uint256",
          "name": "",
          "type": "uint256"
        }
      ],
      "stateMutability": "view",
      "type": "function"
    },
    {
      "inputs": [
        {
          "internalType": "uint256",
          "name": "",
          "type": "uint256"
        }
      ],
      "name": "buyers",
      "outputs": [
        {
          "internalType": "address",
          "name": "",
          "type": "address"
        }
      ],
      "stateMutability": "view",
      "type": "function"
    },
    {
      "inputs": [],
      "name": "decimals",
      "outputs": [
        {
          "internalType": "uint8",
          "name": "",
          "type": "uint8"
        }
      ],
      "stateMutability": "view",
      "type": "function"
    },
    {
      "inputs": [],
      "name": "distributeIncome",
      "outputs": [],
      "stateMutability": "nonpayable",
      "type": "function"
    },
    {
      "inputs": [],
      "name": "getBuyers",
      "outputs": [
        {
          "internalType": "address[]",
          "name": "",
          "type": "address[]"
        }
      ],
      "stateMutability": "view",
      "type": "function"
    },
    {
      "inputs": [],
      "name": "getIsRentalProperty",
      "outputs": [
        {
          "internalType": "bool",
          "name": "",
          "type": "bool"
        }
      ],
      "stateMutability": "view",
      "type": "function"
    },
    {
      "inputs": [],
      "name": "getLastIncomeDistribution",
      "outputs": [
        {
          "internalType": "uint256",
          "name": "",
          "type": "uint256"
        }
      ],
      "stateMutability": "view",
      "type": "function"
    },
    {
      "inputs": [],
      "name": "getMonthlyIncome",
      "outputs": [
        {
          "internalType": "uint256",
          "name": "",
          "type": "uint256"
        }
      ],
      "stateMutability": "view",
      "type": "function"
    },
    {
      "inputs": [],
      "name": "getTokenSupply",
      "outputs": [
        {
          "internalType": "uint256",
          "name": "",
          "type": "uint256"
        }
      ],
      "stateMutability": "view",
      "type": "function"
    },
    {
      "inputs": [
        {
          "internalType": "address",
          "name": "buyer",
          "type": "address"
        }
      ],
      "name": "getTokensBought",
      "outputs": [
        {
          "internalType": "uint256",
          "name": "",
          "type": "uint256"
        }
      ],
      "stateMutability": "view",
      "type": "function"
    },
    {
      "inputs": [],
      "name": "getWhatRentalIncome",
      "outputs": [
        {
          "internalType": "uint256",
          "name": "",
          "type": "uint256"
        }
      ],
      "stateMutability": "view",
      "type": "function"
    },
    {
      "inputs": [
        {
          "internalType": "uint256",
          "name": "_totalSupply",
          "type": "uint256"
        },
        {
          "internalType": "uint256",
          "name": "_tokenPrice",
          "type": "uint256"
        },
        {
          "internalType": "address",
          "name": "_propertyOwner",
          "type": "address"
        },
        {
          "internalType": "bool",
          "name": "_isRentalProperty",
          "type": "bool"
        },
        {
          "internalType": "uint256",
          "name": "_monthlyIncome",
          "type": "uint256"
        }
      ],
      "name": "initializeSale",
      "outputs": [],
      "stateMutability": "nonpayable",
      "type": "function"
    },
    {
      "inputs": [],
      "name": "isRentalProperty",
      "outputs": [
        {
          "internalType": "bool",
          "name": "",
          "type": "bool"
        }
      ],
      "stateMutability": "view",
      "type": "function"
    },
    {
      "inputs": [],
      "name": "lastIncomeDistribution",
      "outputs": [
        {
          "internalType": "uint256",
          "name": "",
          "type": "uint256"
        }
      ],
      "stateMutability": "view",
      "type": "function"
    },
    {
      "inputs": [],
      "name": "monthlyIncome",
      "outputs": [
        {
          "internalType": "uint256",
          "name": "",
          "type": "uint256"
        }
      ],
      "stateMutability": "view",
      "type": "function"
    },
    {
      "inputs": [],
      "name": "name",
      "outputs": [
        {
          "internalType": "string",
          "name": "",
          "type": "string"
        }
      ],
      "stateMutability": "view",
      "type": "function"
    },
    {
      "inputs": [],
      "name": "ownerOf",
      "outputs": [
        {
          "internalType": "address",
          "name": "",
          "type": "address"
        }
      ],
      "stateMutability": "view",
      "type": "function"
    },
    {
      "inputs": [],
      "name": "propertyOwner",
      "outputs": [
        {
          "internalType": "address",
          "name": "",
          "type": "address"
        }
      ],
      "stateMutability": "view",
      "type": "function"
    },
    {
      "inputs": [],
      "name": "propertyTotalSupply",
      "outputs": [
        {
          "internalType": "uint256",
          "name": "",
          "type": "uint256"
        }
      ],
      "stateMutability": "view",
      "type": "function"
    },
    {
      "inputs": [
        {
          "internalType": "uint256",
          "name": "_newMonthlyIncome",
          "type": "uint256"
        }
      ],
      "name": "setMonthlyIncome",
      "outputs": [],
      "stateMutability": "nonpayable",
      "type": "function"
    },
    {
      "inputs": [],
      "name": "symbol",
      "outputs": [
        {
          "internalType": "string",
          "name": "",
          "type": "string"
        }
      ],
      "stateMutability": "view",
      "type": "function"
    },
    {
      "inputs": [],
      "name": "tokenPrice",
      "outputs": [
        {
          "internalType": "uint256",
          "name": "",
          "type": "uint256"
        }
      ],
      "stateMutability": "view",
      "type": "function"
    },
    {
      "inputs": [],
      "name": "totalSupply",
      "outputs": [
        {
          "internalType": "uint256",
          "name": "",
          "type": "uint256"
        }
      ],
      "stateMutability": "view",
      "type": "function"
    },
    {
      "inputs": [
        {
          "internalType": "address",
          "name": "to",
          "type": "address"
        },
        {
          "internalType": "uint256",
          "name": "value",
          "type": "uint256"
        }
      ],
      "name": "transfer",
      "outputs": [
        {
          "internalType": "bool",
          "name": "",
          "type": "bool"
        }
      ],
      "stateMutability": "nonpayable",
      "type": "function"
    },
    {
      "inputs": [
        {
          "internalType": "address",
          "name": "from",
          "type": "address"
        },
        {
          "internalType": "address",
          "name": "to",
          "type": "address"
        },
        {
          "internalType": "uint256",
          "name": "value",
          "type": "uint256"
        }
      ],
      "name": "transferFrom",
      "outputs": [
        {
          "internalType": "bool",
          "name": "",
          "type": "bool"
        }
      ],
      "stateMutability": "nonpayable",
      "type": "function"
    }
  ],
  "bytecode": "0x608060405234801561001057600080fd5b50604051612ee9380380612ee9833981810160405281019061003291906101da565b818181600390816100439190610473565b5080600490816100539190610473565b50505060016005819055505050610545565b6000604051905090565b600080fd5b600080fd5b600080fd5b600080fd5b6000601f19601f8301169050919050565b7f4e487b7100000000000000000000000000000000000000000000000000000000600052604160045260246000fd5b6100cc82610083565b810181811067ffffffffffffffff821117156100eb576100ea610094565b5b80604052505050565b60006100fe610065565b905061010a82826100c3565b919050565b600067ffffffffffffffff82111561012a57610129610094565b5b61013382610083565b9050602081019050919050565b60005b8381101561015e578082015181840152602081019050610143565b60008484015250505050565b600061017d6101788461010f565b6100f4565b9050828152602081018484840111156101995761019861007e565b5b6101a4848285610140565b509392505050565b600082601f8301126101c1576101c0610079565b5b81516101d184826020860161016a565b91505092915050565b600080604083850312156101f1576101f061006f565b5b600083015167ffffffffffffffff81111561020f5761020e610074565b5b61021b858286016101ac565b925050602083015167ffffffffffffffff81111561023c5761023b610074565b5b610248858286016101ac565b9150509250929050565b600081519050919050565b7f4e487b7100000000000000000000000000000000000000000000000000000000600052602260045260246000fd5b600060028204905060018216806102a457607f821691505b6020821081036102b7576102b661025d565b5b50919050565b60008190508160005260206000209050919050565b60006020601f8301049050919050565b600082821b905092915050565b60006008830261031f7fffffffffffffffffffffffffffffffffffffffffffffffffffffffffffffffff826102e2565b61032986836102e2565b95508019841693508086168417925050509392505050565b6000819050919050565b6000819050919050565b600061037061036b61036684610341565b61034b565b610341565b9050919050565b6000819050919050565b61038a83610355565b61039e61039682610377565b8484546102ef565b825550505050565b600090565b6103b36103a6565b6103be818484610381565b505050565b5b818110156103e2576103d76000826103ab565b6001810190506103c4565b5050565b601f821115610427576103f8816102bd565b610401846102d2565b81016020851015610410578190505b61042461041c856102d2565b8301826103c3565b50505b505050565b600082821c905092915050565b600061044a6000198460080261042c565b1980831691505092915050565b60006104638383610439565b9150826002028217905092915050565b61047c82610252565b67ffffffffffffffff81111561049557610494610094565b5b61049f825461028c565b6104aa8282856103e6565b600060209050601f8311600181146104dd57600084156104cb578287015190505b6104d58582610457565b86555061053d565b601f1984166104eb866102bd565b60005b82811015610513578489015182556001820191506020850194506020810190506104ee565b86831015610530578489015161052c601f891682610439565b8355505b6001600288020188555050505b505050505050565b612995806105546000396000f3fe6080604052600436106101c25760003560e01c80637ff9b596116100f7578063ca9013cb11610095578063f13656eb11610064578063f13656eb1461063f578063f2aa82181461067c578063f446c38f146106b9578063f64bfaba146106e4576101c2565b8063ca9013cb14610585578063ce8fcab1146105ae578063d74a375d146105c5578063dd62ed3e14610602576101c2565b8063a9059cbb116100d1578063a9059cbb146104c7578063ad974f4c14610504578063ae0e16d61461052f578063b01765b41461055a576101c2565b80637ff9b5961461044657806395500d191461047157806395d89b411461049c576101c2565b8063313ce567116101645780635a33e9921161013e5780635a33e992146103885780635e73018c146103b357806370a08231146103de5780637eb012691461041b576101c2565b8063313ce567146103185780633610724e1461034357806338d79ad51461035f576101c2565b806318160ddd116101a057806318160ddd1461025a578063197a65f3146102855780631e6e1f04146102b057806323b872dd146102db576101c2565b80630605062f146101c757806306fdde03146101f2578063095ea7b31461021d575b600080fd5b3480156101d357600080fd5b506101dc61070f565b6040516101e99190611bef565b60405180910390f35b3480156101fe57600080fd5b50610207610739565b6040516102149190611c9a565b60405180910390f35b34801561022957600080fd5b50610244600480360381019061023f9190611d23565b6107cb565b6040516102519190611d7e565b60405180910390f35b34801561026657600080fd5b5061026f6107ee565b60405161027c9190611da8565b60405180910390f35b34801561029157600080fd5b5061029a6107f8565b6040516102a79190611da8565b60405180910390f35b3480156102bc57600080fd5b506102c56107fe565b6040516102d29190611d7e565b60405180910390f35b3480156102e757600080fd5b5061030260048036038101906102fd9190611dc3565b610815565b60405161030f9190611d7e565b60405180910390f35b34801561032457600080fd5b5061032d610844565b60405161033a9190611e32565b60405180910390f35b61035d60048036038101906103589190611e4d565b61084d565b005b34801561036b57600080fd5b5061038660048036038101906103819190611e4d565b610b2e565b005b34801561039457600080fd5b5061039d610c17565b6040516103aa9190611da8565b60405180910390f35b3480156103bf57600080fd5b506103c8610c21565b6040516103d59190611da8565b60405180910390f35b3480156103ea57600080fd5b5061040560048036038101906104009190611e7a565b610c27565b6040516104129190611da8565b60405180910390f35b34801561042757600080fd5b50610430610c6f565b60405161043d9190611d7e565b60405180910390f35b34801561045257600080fd5b5061045b610c82565b6040516104689190611da8565b60405180910390f35b34801561047d57600080fd5b50610486610c88565b6040516104939190611da8565b60405180910390f35b3480156104a857600080fd5b506104b1610c92565b6040516104be9190611c9a565b60405180910390f35b3480156104d357600080fd5b506104ee60048036038101906104e99190611d23565b610d24565b6040516104fb9190611d7e565b60405180910390f35b34801561051057600080fd5b50610519610d47565b6040516105269190611da8565b60405180910390f35b34801561053b57600080fd5b50610544610d51565b6040516105519190611da8565b60405180910390f35b34801561056657600080fd5b5061056f610daa565b60405161057c9190611da8565b60405180910390f35b34801561059157600080fd5b506105ac60048036038101906105a79190611ed3565b610db0565b005b3480156105ba57600080fd5b506105c3611019565b005b3480156105d157600080fd5b506105ec60048036038101906105e79190611e7a565b6112bd565b6040516105f99190611da8565b60405180910390f35b34801561060e57600080fd5b5061062960048036038101906106249190611f4e565b611306565b6040516106369190611da8565b60405180910390f35b34801561064b57600080fd5b5061066660048036038101906106619190611e7a565b61138d565b6040516106739190611da8565b60405180910390f35b34801561068857600080fd5b506106a3600480360381019061069e9190611e4d565b6113a5565b6040516106b09190611bef565b60405180910390f35b3480156106c557600080fd5b506106ce6113e4565b6040516106db9190611bef565b60405180910390f35b3480156106f057600080fd5b506106f961140a565b604051610706919061204c565b60405180910390f35b6000600860009054906101000a900473ffffffffffffffffffffffffffffffffffffffff16905090565b6060600380546107489061209d565b80601f01602080910402602001604051908101604052809291908181526020018280546107749061209d565b80156107c15780601f10610796576101008083540402835291602001916107c1565b820191906000526020600020905b8154815290600101906020018083116107a457829003601f168201915b5050505050905090565b6000806107d6611498565b90506107e38185856114a0565b600191505092915050565b6000600254905090565b600b5481565b6000600d60009054906101000a900460ff16905090565b600080610820611498565b905061082d8582856114b2565b610838858585611547565b60019150509392505050565b60006012905090565b61085561163b565b60006007548261086591906120fd565b90506000600654116108ac576040517f08c379a00000000000000000000000000000000000000000000000000000000081526004016108a39061218b565b60405180910390fd5b803410156108ef576040517f08c379a00000000000000000000000000000000000000000000000000000000081526004016108e6906121f7565b60405180910390fd5b8034111561095057600081346109059190612217565b90503373ffffffffffffffffffffffffffffffffffffffff166108fc829081150290604051600060405180830381858888f1935050505015801561094d573d6000803e3d6000fd5b50505b816006541015610995576040517f08c379a000000000000000000000000000000000000000000000000000000000815260040161098c90612297565b60405180910390fd5b6109a0303384611547565b81600960003373ffffffffffffffffffffffffffffffffffffffff1673ffffffffffffffffffffffffffffffffffffffff16815260200190815260200160002060008282546109ef91906122b7565b925050819055508160066000828254610a089190612217565b92505081905550600860009054906101000a900473ffffffffffffffffffffffffffffffffffffffff1673ffffffffffffffffffffffffffffffffffffffff166108fc349081150290604051600060405180830381858888f19350505050158015610a77573d6000803e3d6000fd5b5081600960003373ffffffffffffffffffffffffffffffffffffffff1673ffffffffffffffffffffffffffffffffffffffff1681526020019081526020016000205403610b2257600a339080600181540180825580915050600190039060005260206000200160009091909190916101000a81548173ffffffffffffffffffffffffffffffffffffffff021916908373ffffffffffffffffffffffffffffffffffffffff1602179055505b50610b2b611681565b50565b600860009054906101000a900473ffffffffffffffffffffffffffffffffffffffff1673ffffffffffffffffffffffffffffffffffffffff163373ffffffffffffffffffffffffffffffffffffffff1614610bbe576040517f08c379a0000000000000000000000000000000000000000000000000000000008152600401610bb59061235d565b60405180910390fd5b600d60009054906101000a900460ff16610c0d576040517f08c379a0000000000000000000000000000000000000000000000000000000008152600401610c04906123c9565b60405180910390fd5b80600b8190555050565b6000600b54905090565b600c5481565b60008060008373ffffffffffffffffffffffffffffffffffffffff1673ffffffffffffffffffffffffffffffffffffffff168152602001908152602001600020549050919050565b600d60009054906101000a900460ff1681565b60075481565b6000600c54905090565b606060048054610ca19061209d565b80601f0160208091040260200160405190810160405280929190818152602001828054610ccd9061209d565b8015610d1a5780601f10610cef57610100808354040283529160200191610d1a565b820191906000526020600020905b815481529060010190602001808311610cfd57829003601f168201915b5050505050905090565b600080610d2f611498565b9050610d3c818585611547565b600191505092915050565b6000600654905090565b6000600d60009054906101000a900460ff16610da2576040517f08c379a0000000000000000000000000000000000000000000000000000000008152600401610d99906123c9565b60405180910390fd5b600b54905090565b60065481565b600060065414610df5576040517f08c379a0000000000000000000000000000000000000000000000000000000008152600401610dec90612435565b60405180910390fd5b84600681905550600060065411610e41576040517f08c379a0000000000000000000000000000000000000000000000000000000008152600401610e38906124c7565b60405180910390fd5b69d3c21bcecceda10000006006541115610e90576040517f08c379a0000000000000000000000000000000000000000000000000000000008152600401610e8790612533565b60405180910390fd5b8360078190555060008411610eda576040517f08c379a0000000000000000000000000000000000000000000000000000000008152600401610ed1906125c5565b60405180910390fd5b82600860006101000a81548173ffffffffffffffffffffffffffffffffffffffff021916908373ffffffffffffffffffffffffffffffffffffffff160217905550600073ffffffffffffffffffffffffffffffffffffffff168373ffffffffffffffffffffffffffffffffffffffff1603610f8a576040517f08c379a0000000000000000000000000000000000000000000000000000000008152600401610f8190612631565b60405180910390fd5b81600d60006101000a81548160ff021916908315150217905550610fb03060065461168b565b600d60009054906101000a900460ff16156110125760008111611008576040517f08c379a0000000000000000000000000000000000000000000000000000000008152600401610fff906126c3565b60405180910390fd5b6110118161170d565b5b5050505050565b61102161163b565b600d60009054906101000a900460ff16611070576040517f08c379a0000000000000000000000000000000000000000000000000000000008152600401611067906123c9565b60405180910390fd5b600860009054906101000a900473ffffffffffffffffffffffffffffffffffffffff1673ffffffffffffffffffffffffffffffffffffffff163373ffffffffffffffffffffffffffffffffffffffff1614611100576040517f08c379a00000000000000000000000000000000000000000000000000000000081526004016110f790612755565b60405180910390fd5b62278d00600c5461111191906122b7565b421015611153576040517f08c379a000000000000000000000000000000000000000000000000000000000815260040161114a906127e7565b60405180910390fd5b600b54471015611198576040517f08c379a000000000000000000000000000000000000000000000000000000000815260040161118f90612879565b60405180910390fd5b600060065490506000600b54905060005b600a805490508110156112a9576000600a82815481106111cc576111cb612899565b5b9060005260206000200160009054906101000a900473ffffffffffffffffffffffffffffffffffffffff16905060008484600960008573ffffffffffffffffffffffffffffffffffffffff1673ffffffffffffffffffffffffffffffffffffffff1681526020019081526020016000205461124791906120fd565b61125191906128f7565b90508173ffffffffffffffffffffffffffffffffffffffff166108fc829081150290604051600060405180830381858888f19350505050158015611299573d6000803e3d6000fd5b50505080806001019150506111a9565b5042600c8190555050506112bb611681565b565b6000600960008373ffffffffffffffffffffffffffffffffffffffff1673ffffffffffffffffffffffffffffffffffffffff168152602001908152602001600020549050919050565b6000600160008473ffffffffffffffffffffffffffffffffffffffff1673ffffffffffffffffffffffffffffffffffffffff16815260200190815260200160002060008373ffffffffffffffffffffffffffffffffffffffff1673ffffffffffffffffffffffffffffffffffffffff16815260200190815260200160002054905092915050565b60096020528060005260406000206000915090505481565b600a81815481106113b557600080fd5b906000526020600020016000915054906101000a900473ffffffffffffffffffffffffffffffffffffffff1681565b600860009054906101000a900473ffffffffffffffffffffffffffffffffffffffff1681565b6060600a80548060200260200160405190810160405280929190818152602001828054801561148e57602002820191906000526020600020905b8160009054906101000a900473ffffffffffffffffffffffffffffffffffffffff1673ffffffffffffffffffffffffffffffffffffffff1681526020019060010190808311611444575b5050505050905090565b600033905090565b6114ad83838360016117b2565b505050565b60006114be8484611306565b90507fffffffffffffffffffffffffffffffffffffffffffffffffffffffffffffffff8110156115415781811015611531578281836040517ffb8f41b200000000000000000000000000000000000000000000000000000000815260040161152893929190612928565b60405180910390fd5b611540848484840360006117b2565b5b50505050565b600073ffffffffffffffffffffffffffffffffffffffff168373ffffffffffffffffffffffffffffffffffffffff16036115b95760006040517f96c6fd1e0000000000000000000000000000000000000000000000000000000081526004016115b09190611bef565b60405180910390fd5b600073ffffffffffffffffffffffffffffffffffffffff168273ffffffffffffffffffffffffffffffffffffffff160361162b5760006040517fec442f050000000000000000000000000000000000000000000000000000000081526004016116229190611bef565b60405180910390fd5b611636838383611989565b505050565b600260055403611677576040517f3ee5aeb500000000000000000000000000000000000000000000000000000000815260040160405180910390fd5b6002600581905550565b6001600581905550565b600073ffffffffffffffffffffffffffffffffffffffff168273ffffffffffffffffffffffffffffffffffffffff16036116fd5760006040517fec442f050000000000000000000000000000000000000000000000000000000081526004016116f49190611bef565b60405180910390fd5b61170960008383611989565b5050565b600d60009054906101000a900460ff1661175c576040517f08c379a0000000000000000000000000000000000000000000000000000000008152600401611753906123c9565b60405180910390fd5b6000600b54146117a1576040517f08c379a000000000000000000000000000000000000000000000000000000000815260040161179890612435565b60405180910390fd5b80600b8190555042600c8190555050565b600073ffffffffffffffffffffffffffffffffffffffff168473ffffffffffffffffffffffffffffffffffffffff16036118245760006040517fe602df0500000000000000000000000000000000000000000000000000000000815260040161181b9190611bef565b60405180910390fd5b600073ffffffffffffffffffffffffffffffffffffffff168373ffffffffffffffffffffffffffffffffffffffff16036118965760006040517f94280d6200000000000000000000000000000000000000000000000000000000815260040161188d9190611bef565b60405180910390fd5b81600160008673ffffffffffffffffffffffffffffffffffffffff1673ffffffffffffffffffffffffffffffffffffffff16815260200190815260200160002060008573ffffffffffffffffffffffffffffffffffffffff1673ffffffffffffffffffffffffffffffffffffffff168152602001908152602001600020819055508015611983578273ffffffffffffffffffffffffffffffffffffffff168473ffffffffffffffffffffffffffffffffffffffff167f8c5be1e5ebec7d5bd14f71427d1e84f3dd0314c0f7b2291e5b200ac8c7c3b9258460405161197a9190611da8565b60405180910390a35b50505050565b600073ffffffffffffffffffffffffffffffffffffffff168373ffffffffffffffffffffffffffffffffffffffff16036119db5780600260008282546119cf91906122b7565b92505081905550611aae565b60008060008573ffffffffffffffffffffffffffffffffffffffff1673ffffffffffffffffffffffffffffffffffffffff16815260200190815260200160002054905081811015611a67578381836040517fe450d38c000000000000000000000000000000000000000000000000000000008152600401611a5e93929190612928565b60405180910390fd5b8181036000808673ffffffffffffffffffffffffffffffffffffffff1673ffffffffffffffffffffffffffffffffffffffff16815260200190815260200160002081905550505b600073ffffffffffffffffffffffffffffffffffffffff168273ffffffffffffffffffffffffffffffffffffffff1603611af75780600260008282540392505081905550611b44565b806000808473ffffffffffffffffffffffffffffffffffffffff1673ffffffffffffffffffffffffffffffffffffffff168152602001908152602001600020600082825401925050819055505b8173ffffffffffffffffffffffffffffffffffffffff168373ffffffffffffffffffffffffffffffffffffffff167fddf252ad1be2c89b69c2b068fc378daa952ba7f163c4a11628f55a4df523b3ef83604051611ba19190611da8565b60405180910390a3505050565b600073ffffffffffffffffffffffffffffffffffffffff82169050919050565b6000611bd982611bae565b9050919050565b611be981611bce565b82525050565b6000602082019050611c046000830184611be0565b92915050565b600081519050919050565b600082825260208201905092915050565b60005b83811015611c44578082015181840152602081019050611c29565b60008484015250505050565b6000601f19601f8301169050919050565b6000611c6c82611c0a565b611c768185611c15565b9350611c86818560208601611c26565b611c8f81611c50565b840191505092915050565b60006020820190508181036000830152611cb48184611c61565b905092915050565b600080fd5b611cca81611bce565b8114611cd557600080fd5b50565b600081359050611ce781611cc1565b92915050565b6000819050919050565b611d0081611ced565b8114611d0b57600080fd5b50565b600081359050611d1d81611cf7565b92915050565b60008060408385031215611d3a57611d39611cbc565b5b6000611d4885828601611cd8565b9250506020611d5985828601611d0e565b9150509250929050565b60008115159050919050565b611d7881611d63565b82525050565b6000602082019050611d936000830184611d6f565b92915050565b611da281611ced565b82525050565b6000602082019050611dbd6000830184611d99565b92915050565b600080600060608486031215611ddc57611ddb611cbc565b5b6000611dea86828701611cd8565b9350506020611dfb86828701611cd8565b9250506040611e0c86828701611d0e565b9150509250925092565b600060ff82169050919050565b611e2c81611e16565b82525050565b6000602082019050611e476000830184611e23565b92915050565b600060208284031215611e6357611e62611cbc565b5b6000611e7184828501611d0e565b91505092915050565b600060208284031215611e9057611e8f611cbc565b5b6000611e9e84828501611cd8565b91505092915050565b611eb081611d63565b8114611ebb57600080fd5b50565b600081359050611ecd81611ea7565b92915050565b600080600080600060a08688031215611eef57611eee611cbc565b5b6000611efd88828901611d0e565b9550506020611f0e88828901611d0e565b9450506040611f1f88828901611cd8565b9350506060611f3088828901611ebe565b9250506080611f4188828901611d0e565b9150509295509295909350565b60008060408385031215611f6557611f64611cbc565b5b6000611f7385828601611cd8565b9250506020611f8485828601611cd8565b9150509250929050565b600081519050919050565b600082825260208201905092915050565b6000819050602082019050919050565b611fc381611bce565b82525050565b6000611fd58383611fba565b60208301905092915050565b6000602082019050919050565b6000611ff982611f8e565b6120038185611f99565b935061200e83611faa565b8060005b8381101561203f5781516120268882611fc9565b975061203183611fe1565b925050600181019050612012565b5085935050505092915050565b600060208201905081810360008301526120668184611fee565b905092915050565b7f4e487b7100000000000000000000000000000000000000000000000000000000600052602260045260246000fd5b600060028204905060018216806120b557607f821691505b6020821081036120c8576120c761206e565b5b50919050565b7f4e487b7100000000000000000000000000000000000000000000000000000000600052601160045260246000fd5b600061210882611ced565b915061211383611ced565b925082820261212181611ced565b91508282048414831517612138576121376120ce565b5b5092915050565b7f496e73756666696369656e7420546f6b656e73204c6566740000000000000000600082015250565b6000612175601883611c15565b91506121808261213f565b602082019050919050565b600060208201905081810360008301526121a481612168565b9050919050565b7f496e73756666696369656e74204554482073656e740000000000000000000000600082015250565b60006121e1601583611c15565b91506121ec826121ab565b602082019050919050565b60006020820190508181036000830152612210816121d4565b9050919050565b600061222282611ced565b915061222d83611ced565b9250828203905081811115612245576122446120ce565b5b92915050565b7f4e6f7420656e6f75676820746f6b656e7320617661696c61626c650000000000600082015250565b6000612281601b83611c15565b915061228c8261224b565b602082019050919050565b600060208201905081810360008301526122b081612274565b9050919050565b60006122c282611ced565b91506122cd83611ced565b92508282019050808211156122e5576122e46120ce565b5b92915050565b7f4f6e6c79207468652070726f7065727479206f776e65722063616e207365742060008201527f74686520696e636f6d6500000000000000000000000000000000000000000000602082015250565b6000612347602a83611c15565b9150612352826122eb565b604082019050919050565b600060208201905081810360008301526123768161233a565b9050919050565b7f54686973206973206e6f7420612072656e74616c2070726f7065727479000000600082015250565b60006123b3601d83611c15565b91506123be8261237d565b602082019050919050565b600060208201905081810360008301526123e2816123a6565b9050919050565b7f53616c6520616c726561647920696e697469616c697a65640000000000000000600082015250565b600061241f601883611c15565b915061242a826123e9565b602082019050919050565b6000602082019050818103600083015261244e81612412565b9050919050565b7f50726f706572747920546f6b656e20537570706c79206d75737420626520677260008201527f6561746572207468616e20300000000000000000000000000000000000000000602082015250565b60006124b1602c83611c15565b91506124bc82612455565b604082019050919050565b600060208201905081810360008301526124e0816124a4565b9050919050565b7f546f74616c20737570706c7920697320746f6f206c6172676500000000000000600082015250565b600061251d601983611c15565b9150612528826124e7565b602082019050919050565b6000602082019050818103600083015261254c81612510565b9050919050565b7f546f6b656e207072696365206d7573742062652067726561746572207468616e60008201527f207a65726f000000000000000000000000000000000000000000000000000000602082015250565b60006125af602583611c15565b91506125ba82612553565b604082019050919050565b600060208201905081810360008301526125de816125a2565b9050919050565b7f496e76616c69642070726f7065727479206f776e657220616464726573730000600082015250565b600061261b601e83611c15565b9150612626826125e5565b602082019050919050565b6000602082019050818103600083015261264a8161260e565b9050919050565b7f52656e74616c20696e636f6d65206d757374206265206772656174657220746860008201527f616e207a65726f00000000000000000000000000000000000000000000000000602082015250565b60006126ad602783611c15565b91506126b882612651565b604082019050919050565b600060208201905081810360008301526126dc816126a0565b9050919050565b7f4f6e6c79207468652070726f7065727479206f776e65722063616e206469737460008201527f72696275746520696e636f6d6500000000000000000000000000000000000000602082015250565b600061273f602d83611c15565b915061274a826126e3565b604082019050919050565b6000602082019050818103600083015261276e81612732565b9050919050565b7f4d6f6e74686c7920696e636f6d6520646973747269627574696f6e206973206e60008201527f6f74206475652079657400000000000000000000000000000000000000000000602082015250565b60006127d1602a83611c15565b91506127dc82612775565b604082019050919050565b60006020820190508181036000830152612800816127c4565b9050919050565b7f4e6f7420656e6f7567682045544820696e2074686520636f6e7472616374207460008201527f6f20646973747269627574650000000000000000000000000000000000000000602082015250565b6000612863602c83611c15565b915061286e82612807565b604082019050919050565b6000602082019050818103600083015261289281612856565b9050919050565b7f4e487b7100000000000000000000000000000000000000000000000000000000600052603260045260246000fd5b7f4e487b7100000000000000000000000000000000000000000000000000000000600052601260045260246000fd5b600061290282611ced565b915061290d83611ced565b92508261291d5761291c6128c8565b5b828204905092915050565b600060608201905061293d6000830186611be0565b61294a6020830185611d99565b6129576040830184611d99565b94935050505056fea264697066735822122097f81865f92cb5c011503c5dd47aa94120e18abc6ce121cf0bae8dd958c6f0d964736f6c634300081c0033",
  "linkReferences": {},
  "deployedLinkReferences": {}
}