{
  "_format": "hh-sol-artifact-1",
  "contractName": "PropertyERC20",
  "sourceName": "contracts/RentalTokenOwnership.sol",
  "abi": [
    {
      "inputs": [
        {
          "internalType": "string",
          "name": "_name",
          "type": "string"
        },
        {
          "internalType": "string",
          "name": "_symbol",
          "type": "string"
        }
      ],
      "stateMutability": "nonpayable",
      "type": "constructor"
    },
    {
      "inputs": [
        {
          "internalType": "address",
          "name": "spender",
          "type": "address"
        },
        {
          "internalType": "uint256",
          "name": "allowance",
          "type": "uint256"
        },
        {
          "internalType": "uint256",
          "name": "needed",
          "type": "uint256"
        }
      ],
      "name": "ERC20InsufficientAllowance",
      "type": "error"
    },
    {
      "inputs": [
        {
          "internalType": "address",
          "name": "sender",
          "type": "address"
        },
        {
          "internalType": "uint256",
          "name": "balance",
          "type": "uint256"
        },
        {
          "internalType": "uint256",
          "name": "needed",
          "type": "uint256"
        }
      ],
      "name": "ERC20InsufficientBalance",
      "type": "error"
    },
    {
      "inputs": [
        {
          "internalType": "address",
          "name": "approver",
          "type": "address"
        }
      ],
      "name": "ERC20InvalidApprover",
      "type": "error"
    },
    {
      "inputs": [
        {
          "internalType": "address",
          "name": "receiver",
          "type": "address"
        }
      ],
      "name": "ERC20InvalidReceiver",
      "type": "error"
    },
    {
      "inputs": [
        {
          "internalType": "address",
          "name": "sender",
          "type": "address"
        }
      ],
      "name": "ERC20InvalidSender",
      "type": "error"
    },
    {
      "inputs": [
        {
          "internalType": "address",
          "name": "spender",
          "type": "address"
        }
      ],
      "name": "ERC20InvalidSpender",
      "type": "error"
    },
    {
      "inputs": [],
      "name": "ReentrancyGuardReentrantCall",
      "type": "error"
    },
    {
      "anonymous": false,
      "inputs": [
        {
          "indexed": true,
          "internalType": "address",
          "name": "owner",
          "type": "address"
        },
        {
          "indexed": true,
          "internalType": "address",
          "name": "spender",
          "type": "address"
        },
        {
          "indexed": false,
          "internalType": "uint256",
          "name": "value",
          "type": "uint256"
        }
      ],
      "name": "Approval",
      "type": "event"
    },
    {
      "anonymous": false,
      "inputs": [
        {
          "indexed": true,
          "internalType": "address",
          "name": "from",
          "type": "address"
        },
        {
          "indexed": true,
          "internalType": "address",
          "name": "to",
          "type": "address"
        },
        {
          "indexed": false,
          "internalType": "uint256",
          "name": "value",
          "type": "uint256"
        }
      ],
      "name": "Transfer",
      "type": "event"
    },
    {
      "inputs": [
        {
          "internalType": "address",
          "name": "owner",
          "type": "address"
        },
        {
          "internalType": "address",
          "name": "spender",
          "type": "address"
        }
      ],
      "name": "allowance",
      "outputs": [
        {
          "internalType": "uint256",
          "name": "",
          "type": "uint256"
        }
      ],
      "stateMutability": "view",
      "type": "function"
    },
    {
      "inputs": [
        {
          "internalType": "address",
          "name": "spender",
          "type": "address"
        },
        {
          "internalType": "uint256",
          "name": "value",
          "type": "uint256"
        }
      ],
      "name": "approve",
      "outputs": [
        {
          "internalType": "bool",
          "name": "",
          "type": "bool"
        }
      ],
      "stateMutability": "nonpayable",
      "type": "function"
    },
    {
      "inputs": [
        {
          "internalType": "address",
          "name": "account",
          "type": "address"
        }
      ],
      "name": "balanceOf",
      "outputs": [
        {
          "internalType": "uint256",
          "name": "",
          "type": "uint256"
        }
      ],
      "stateMutability": "view",
      "type": "function"
    },
    {
      "inputs": [
        {
          "internalType": "uint256",
          "name": "_tokenAmount",
          "type": "uint256"
        }
      ],
      "name": "buyTokens",
      "outputs": [],
      "stateMutability": "payable",
      "type": "function"
    },
    {
      "inputs": [
        {
          "internalType": "address",
          "name": "",
          "type": "address"
        }
      ],
      "name": "buyerTokens",
      "outputs": [
        {
          "internalType": "uint256",
          "name": "",
          "type": "uint256"
        }
      ],
      "stateMutability": "view",
      "type": "function"
    },
    {
      "inputs": [
        {
          "internalType": "uint256",
          "name": "",
          "type": "uint256"
        }
      ],
      "name": "buyers",
      "outputs": [
        {
          "internalType": "address",
          "name": "",
          "type": "address"
        }
      ],
      "stateMutability": "view",
      "type": "function"
    },
    {
      "inputs": [],
      "name": "decimals",
      "outputs": [
        {
          "internalType": "uint8",
          "name": "",
          "type": "uint8"
        }
      ],
      "stateMutability": "view",
      "type": "function"
    },
    {
      "inputs": [],
      "name": "distributeIncome",
      "outputs": [],
      "stateMutability": "payable",
      "type": "function"
    },
    {
      "inputs": [],
      "name": "getBuyers",
      "outputs": [
        {
          "internalType": "address[]",
          "name": "",
          "type": "address[]"
        }
      ],
      "stateMutability": "view",
      "type": "function"
    },
    {
      "inputs": [],
      "name": "getIsRentalProperty",
      "outputs": [
        {
          "internalType": "bool",
          "name": "",
          "type": "bool"
        }
      ],
      "stateMutability": "view",
      "type": "function"
    },
    {
      "inputs": [],
      "name": "getLastIncomeDistribution",
      "outputs": [
        {
          "internalType": "uint256",
          "name": "",
          "type": "uint256"
        }
      ],
      "stateMutability": "view",
      "type": "function"
    },
    {
      "inputs": [],
      "name": "getMonthlyIncome",
      "outputs": [
        {
          "internalType": "uint256",
          "name": "",
          "type": "uint256"
        }
      ],
      "stateMutability": "view",
      "type": "function"
    },
    {
      "inputs": [],
      "name": "getTokenSupply",
      "outputs": [
        {
          "internalType": "uint256",
          "name": "",
          "type": "uint256"
        }
      ],
      "stateMutability": "view",
      "type": "function"
    },
    {
      "inputs": [
        {
          "internalType": "address",
          "name": "buyer",
          "type": "address"
        }
      ],
      "name": "getTokensBought",
      "outputs": [
        {
          "internalType": "uint256",
          "name": "",
          "type": "uint256"
        }
      ],
      "stateMutability": "view",
      "type": "function"
    },
    {
      "inputs": [],
      "name": "getWhatRentalIncome",
      "outputs": [
        {
          "internalType": "uint256",
          "name": "",
          "type": "uint256"
        }
      ],
      "stateMutability": "view",
      "type": "function"
    },
    {
      "inputs": [
        {
          "internalType": "uint256",
          "name": "_totalSupply",
          "type": "uint256"
        },
        {
          "internalType": "uint256",
          "name": "_tokenPrice",
          "type": "uint256"
        },
        {
          "internalType": "address",
          "name": "_propertyOwner",
          "type": "address"
        },
        {
          "internalType": "bool",
          "name": "_isRentalProperty",
          "type": "bool"
        },
        {
          "internalType": "uint256",
          "name": "_monthlyIncome",
          "type": "uint256"
        }
      ],
      "name": "initializeSale",
      "outputs": [],
      "stateMutability": "nonpayable",
      "type": "function"
    },
    {
      "inputs": [],
      "name": "isRentalProperty",
      "outputs": [
        {
          "internalType": "bool",
          "name": "",
          "type": "bool"
        }
      ],
      "stateMutability": "view",
      "type": "function"
    },
    {
      "inputs": [],
      "name": "lastIncomeDistribution",
      "outputs": [
        {
          "internalType": "uint256",
          "name": "",
          "type": "uint256"
        }
      ],
      "stateMutability": "view",
      "type": "function"
    },
    {
      "inputs": [],
      "name": "monthlyIncome",
      "outputs": [
        {
          "internalType": "uint256",
          "name": "",
          "type": "uint256"
        }
      ],
      "stateMutability": "view",
      "type": "function"
    },
    {
      "inputs": [],
      "name": "name",
      "outputs": [
        {
          "internalType": "string",
          "name": "",
          "type": "string"
        }
      ],
      "stateMutability": "view",
      "type": "function"
    },
    {
      "inputs": [],
      "name": "ownerOf",
      "outputs": [
        {
          "internalType": "address",
          "name": "",
          "type": "address"
        }
      ],
      "stateMutability": "view",
      "type": "function"
    },
    {
      "inputs": [],
      "name": "propertyOwner",
      "outputs": [
        {
          "internalType": "address",
          "name": "",
          "type": "address"
        }
      ],
      "stateMutability": "view",
      "type": "function"
    },
    {
      "inputs": [],
      "name": "propertyTotalSupply",
      "outputs": [
        {
          "internalType": "uint256",
          "name": "",
          "type": "uint256"
        }
      ],
      "stateMutability": "view",
      "type": "function"
    },
    {
      "inputs": [
        {
          "internalType": "uint256",
          "name": "_timestamp",
          "type": "uint256"
        }
      ],
      "name": "setLastIncomeDistribution",
      "outputs": [],
      "stateMutability": "nonpayable",
      "type": "function"
    },
    {
      "inputs": [
        {
          "internalType": "uint256",
          "name": "_newMonthlyIncome",
          "type": "uint256"
        }
      ],
      "name": "setMonthlyIncome",
      "outputs": [],
      "stateMutability": "nonpayable",
      "type": "function"
    },
    {
      "inputs": [],
      "name": "symbol",
      "outputs": [
        {
          "internalType": "string",
          "name": "",
          "type": "string"
        }
      ],
      "stateMutability": "view",
      "type": "function"
    },
    {
      "inputs": [],
      "name": "tokenPrice",
      "outputs": [
        {
          "internalType": "uint256",
          "name": "",
          "type": "uint256"
        }
      ],
      "stateMutability": "view",
      "type": "function"
    },
    {
      "inputs": [],
      "name": "totalSupply",
      "outputs": [
        {
          "internalType": "uint256",
          "name": "",
          "type": "uint256"
        }
      ],
      "stateMutability": "view",
      "type": "function"
    },
    {
      "inputs": [
        {
          "internalType": "address",
          "name": "to",
          "type": "address"
        },
        {
          "internalType": "uint256",
          "name": "value",
          "type": "uint256"
        }
      ],
      "name": "transfer",
      "outputs": [
        {
          "internalType": "bool",
          "name": "",
          "type": "bool"
        }
      ],
      "stateMutability": "nonpayable",
      "type": "function"
    },
    {
      "inputs": [
        {
          "internalType": "address",
          "name": "from",
          "type": "address"
        },
        {
          "internalType": "address",
          "name": "to",
          "type": "address"
        },
        {
          "internalType": "uint256",
          "name": "value",
          "type": "uint256"
        }
      ],
      "name": "transferFrom",
      "outputs": [
        {
          "internalType": "bool",
          "name": "",
          "type": "bool"
        }
      ],
      "stateMutability": "nonpayable",
      "type": "function"
    }
  ],
  "bytecode": "0x608060405234801561001057600080fd5b50604051613253380380613253833981810160405281019061003291906101da565b818181600390816100439190610473565b5080600490816100539190610473565b50505060016005819055505050610545565b6000604051905090565b600080fd5b600080fd5b600080fd5b600080fd5b6000601f19601f8301169050919050565b7f4e487b7100000000000000000000000000000000000000000000000000000000600052604160045260246000fd5b6100cc82610083565b810181811067ffffffffffffffff821117156100eb576100ea610094565b5b80604052505050565b60006100fe610065565b905061010a82826100c3565b919050565b600067ffffffffffffffff82111561012a57610129610094565b5b61013382610083565b9050602081019050919050565b60005b8381101561015e578082015181840152602081019050610143565b60008484015250505050565b600061017d6101788461010f565b6100f4565b9050828152602081018484840111156101995761019861007e565b5b6101a4848285610140565b509392505050565b600082601f8301126101c1576101c0610079565b5b81516101d184826020860161016a565b91505092915050565b600080604083850312156101f1576101f061006f565b5b600083015167ffffffffffffffff81111561020f5761020e610074565b5b61021b858286016101ac565b925050602083015167ffffffffffffffff81111561023c5761023b610074565b5b610248858286016101ac565b9150509250929050565b600081519050919050565b7f4e487b7100000000000000000000000000000000000000000000000000000000600052602260045260246000fd5b600060028204905060018216806102a457607f821691505b6020821081036102b7576102b661025d565b5b50919050565b60008190508160005260206000209050919050565b60006020601f8301049050919050565b600082821b905092915050565b60006008830261031f7fffffffffffffffffffffffffffffffffffffffffffffffffffffffffffffffff826102e2565b61032986836102e2565b95508019841693508086168417925050509392505050565b6000819050919050565b6000819050919050565b600061037061036b61036684610341565b61034b565b610341565b9050919050565b6000819050919050565b61038a83610355565b61039e61039682610377565b8484546102ef565b825550505050565b600090565b6103b36103a6565b6103be818484610381565b505050565b5b818110156103e2576103d76000826103ab565b6001810190506103c4565b5050565b601f821115610427576103f8816102bd565b610401846102d2565b81016020851015610410578190505b61042461041c856102d2565b8301826103c3565b50505b505050565b600082821c905092915050565b600061044a6000198460080261042c565b1980831691505092915050565b60006104638383610439565b9150826002028217905092915050565b61047c82610252565b67ffffffffffffffff81111561049557610494610094565b5b61049f825461028c565b6104aa8282856103e6565b600060209050601f8311600181146104dd57600084156104cb578287015190505b6104d58582610457565b86555061053d565b601f1984166104eb866102bd565b60005b82811015610513578489015182556001820191506020850194506020810190506104ee565b86831015610530578489015161052c601f891682610439565b8355505b6001600288020188555050505b505050505050565b612cff806105546000396000f3fe6080604052600436106101cd5760003560e01c806395500d19116100f7578063ce8fcab111610095578063f2aa821811610064578063f2aa82181461067a578063f446c38f146106b7578063f4593c11146106e2578063f64bfaba1461070b576101cd565b8063ce8fcab1146105b9578063d74a375d146105c3578063dd62ed3e14610600578063f13656eb1461063d576101cd565b8063ad974f4c116100d1578063ad974f4c1461050f578063ae0e16d61461053a578063b01765b414610565578063ca9013cb14610590576101cd565b806395500d191461047c57806395d89b41146104a7578063a9059cbb146104d2576101cd565b8063313ce5671161016f5780635e73018c1161013e5780635e73018c146103be57806370a08231146103e95780637eb01269146104265780637ff9b59614610451576101cd565b8063313ce567146103235780633610724e1461034e57806338d79ad51461036a5780635a33e99214610393576101cd565b806318160ddd116101ab57806318160ddd14610265578063197a65f3146102905780631e6e1f04146102bb57806323b872dd146102e6576101cd565b80630605062f146101d257806306fdde03146101fd578063095ea7b314610228575b600080fd5b3480156101de57600080fd5b506101e7610736565b6040516101f49190611dfc565b60405180910390f35b34801561020957600080fd5b50610212610760565b60405161021f9190611ea7565b60405180910390f35b34801561023457600080fd5b5061024f600480360381019061024a9190611f30565b6107f2565b60405161025c9190611f8b565b60405180910390f35b34801561027157600080fd5b5061027a610815565b6040516102879190611fb5565b60405180910390f35b34801561029c57600080fd5b506102a561081f565b6040516102b29190611fb5565b60405180910390f35b3480156102c757600080fd5b506102d0610825565b6040516102dd9190611f8b565b60405180910390f35b3480156102f257600080fd5b5061030d60048036038101906103089190611fd0565b61083c565b60405161031a9190611f8b565b60405180910390f35b34801561032f57600080fd5b5061033861086b565b604051610345919061203f565b60405180910390f35b6103686004803603810190610363919061205a565b610874565b005b34801561037657600080fd5b50610391600480360381019061038c919061205a565b610af4565b005b34801561039f57600080fd5b506103a8610bdd565b6040516103b59190611fb5565b60405180910390f35b3480156103ca57600080fd5b506103d3610be7565b6040516103e09190611fb5565b60405180910390f35b3480156103f557600080fd5b50610410600480360381019061040b9190612087565b610bed565b60405161041d9190611fb5565b60405180910390f35b34801561043257600080fd5b5061043b610c35565b6040516104489190611f8b565b60405180910390f35b34801561045d57600080fd5b50610466610c48565b6040516104739190611fb5565b60405180910390f35b34801561048857600080fd5b50610491610c4e565b60405161049e9190611fb5565b60405180910390f35b3480156104b357600080fd5b506104bc610c58565b6040516104c99190611ea7565b60405180910390f35b3480156104de57600080fd5b506104f960048036038101906104f49190611f30565b610cea565b6040516105069190611f8b565b60405180910390f35b34801561051b57600080fd5b50610524610d0d565b6040516105319190611fb5565b60405180910390f35b34801561054657600080fd5b5061054f610d17565b60405161055c9190611fb5565b60405180910390f35b34801561057157600080fd5b5061057a610d70565b6040516105879190611fb5565b60405180910390f35b34801561059c57600080fd5b506105b760048036038101906105b291906120e0565b610d76565b005b6105c1610fdf565b005b3480156105cf57600080fd5b506105ea60048036038101906105e59190612087565b611344565b6040516105f79190611fb5565b60405180910390f35b34801561060c57600080fd5b506106276004803603810190610622919061215b565b61138d565b6040516106349190611fb5565b60405180910390f35b34801561064957600080fd5b50610664600480360381019061065f9190612087565b611414565b6040516106719190611fb5565b60405180910390f35b34801561068657600080fd5b506106a1600480360381019061069c919061205a565b61142c565b6040516106ae9190611dfc565b60405180910390f35b3480156106c357600080fd5b506106cc61146b565b6040516106d99190611dfc565b60405180910390f35b3480156106ee57600080fd5b506107096004803603810190610704919061205a565b611491565b005b34801561071757600080fd5b5061072061152b565b60405161072d9190612259565b60405180910390f35b6000600860009054906101000a900473ffffffffffffffffffffffffffffffffffffffff16905090565b60606003805461076f906122aa565b80601f016020809104026020016040519081016040528092919081815260200182805461079b906122aa565b80156107e85780601f106107bd576101008083540402835291602001916107e8565b820191906000526020600020905b8154815290600101906020018083116107cb57829003601f168201915b5050505050905090565b6000806107fd6115b9565b905061080a8185856115c1565b600191505092915050565b6000600254905090565b600b5481565b6000600d60009054906101000a900460ff16905090565b6000806108476115b9565b90506108548582856115d3565b61085f858585611668565b60019150509392505050565b60006012905090565b61087c61175c565b60006007548261088c919061230a565b90506000600654116108d3576040517f08c379a00000000000000000000000000000000000000000000000000000000081526004016108ca90612398565b60405180910390fd5b80341015610916576040517f08c379a000000000000000000000000000000000000000000000000000000000815260040161090d90612404565b60405180910390fd5b81600654101561095b576040517f08c379a000000000000000000000000000000000000000000000000000000000815260040161095290612470565b60405180910390fd5b610966303384611668565b81600960003373ffffffffffffffffffffffffffffffffffffffff1673ffffffffffffffffffffffffffffffffffffffff16815260200190815260200160002060008282546109b59190612490565b9250508190555081600660008282546109ce91906124c4565b92505081905550600860009054906101000a900473ffffffffffffffffffffffffffffffffffffffff1673ffffffffffffffffffffffffffffffffffffffff166108fc349081150290604051600060405180830381858888f19350505050158015610a3d573d6000803e3d6000fd5b5081600960003373ffffffffffffffffffffffffffffffffffffffff1673ffffffffffffffffffffffffffffffffffffffff1681526020019081526020016000205403610ae857600a339080600181540180825580915050600190039060005260206000200160009091909190916101000a81548173ffffffffffffffffffffffffffffffffffffffff021916908373ffffffffffffffffffffffffffffffffffffffff1602179055505b50610af16117a2565b50565b600860009054906101000a900473ffffffffffffffffffffffffffffffffffffffff1673ffffffffffffffffffffffffffffffffffffffff163373ffffffffffffffffffffffffffffffffffffffff1614610b84576040517f08c379a0000000000000000000000000000000000000000000000000000000008152600401610b7b9061256a565b60405180910390fd5b600d60009054906101000a900460ff16610bd3576040517f08c379a0000000000000000000000000000000000000000000000000000000008152600401610bca906125d6565b60405180910390fd5b80600b8190555050565b6000600b54905090565b600c5481565b60008060008373ffffffffffffffffffffffffffffffffffffffff1673ffffffffffffffffffffffffffffffffffffffff168152602001908152602001600020549050919050565b600d60009054906101000a900460ff1681565b60075481565b6000600c54905090565b606060048054610c67906122aa565b80601f0160208091040260200160405190810160405280929190818152602001828054610c93906122aa565b8015610ce05780601f10610cb557610100808354040283529160200191610ce0565b820191906000526020600020905b815481529060010190602001808311610cc357829003601f168201915b5050505050905090565b600080610cf56115b9565b9050610d02818585611668565b600191505092915050565b6000600654905090565b6000600d60009054906101000a900460ff16610d68576040517f08c379a0000000000000000000000000000000000000000000000000000000008152600401610d5f906125d6565b60405180910390fd5b600b54905090565b60065481565b600060065414610dbb576040517f08c379a0000000000000000000000000000000000000000000000000000000008152600401610db290612642565b60405180910390fd5b84600681905550600060065411610e07576040517f08c379a0000000000000000000000000000000000000000000000000000000008152600401610dfe906126d4565b60405180910390fd5b69d3c21bcecceda10000006006541115610e56576040517f08c379a0000000000000000000000000000000000000000000000000000000008152600401610e4d90612740565b60405180910390fd5b8360078190555060008411610ea0576040517f08c379a0000000000000000000000000000000000000000000000000000000008152600401610e97906127d2565b60405180910390fd5b82600860006101000a81548173ffffffffffffffffffffffffffffffffffffffff021916908373ffffffffffffffffffffffffffffffffffffffff160217905550600073ffffffffffffffffffffffffffffffffffffffff168373ffffffffffffffffffffffffffffffffffffffff1603610f50576040517f08c379a0000000000000000000000000000000000000000000000000000000008152600401610f479061283e565b60405180910390fd5b81600d60006101000a81548160ff021916908315150217905550610f76306006546117ac565b600d60009054906101000a900460ff1615610fd85760008111610fce576040517f08c379a0000000000000000000000000000000000000000000000000000000008152600401610fc5906128d0565b60405180910390fd5b610fd78161182e565b5b5050505050565b610fe761175c565b600d60009054906101000a900460ff16611036576040517f08c379a000000000000000000000000000000000000000000000000000000000815260040161102d906125d6565b60405180910390fd5b600860009054906101000a900473ffffffffffffffffffffffffffffffffffffffff1673ffffffffffffffffffffffffffffffffffffffff163373ffffffffffffffffffffffffffffffffffffffff16146110c6576040517f08c379a00000000000000000000000000000000000000000000000000000000081526004016110bd90612962565b60405180910390fd5b62278d00600c546110d79190612490565b421015611119576040517f08c379a0000000000000000000000000000000000000000000000000000000008152600401611110906129f4565b60405180910390fd5b6111586040518060400160405280600781526020017f56616c75653a2000000000000000000000000000000000000000000000000000815250346118d3565b6111996040518060400160405280600981526020017f4d6f6e74686c793a200000000000000000000000000000000000000000000000815250600b546118d3565b600b543410156111de576040517f08c379a00000000000000000000000000000000000000000000000000000000081526004016111d590612a86565b60405180910390fd5b6000600654905060008111611228576040517f08c379a000000000000000000000000000000000000000000000000000000000815260040161121f90612b18565b60405180910390fd5b600034905060005b600a80549050811015611330576000600a828154811061125357611252612b38565b5b9060005260206000200160009054906101000a900473ffffffffffffffffffffffffffffffffffffffff16905060008484600960008573ffffffffffffffffffffffffffffffffffffffff1673ffffffffffffffffffffffffffffffffffffffff168152602001908152602001600020546112ce919061230a565b6112d89190612b96565b90508173ffffffffffffffffffffffffffffffffffffffff166108fc829081150290604051600060405180830381858888f19350505050158015611320573d6000803e3d6000fd5b5050508080600101915050611230565b5042600c8190555050506113426117a2565b565b6000600960008373ffffffffffffffffffffffffffffffffffffffff1673ffffffffffffffffffffffffffffffffffffffff168152602001908152602001600020549050919050565b6000600160008473ffffffffffffffffffffffffffffffffffffffff1673ffffffffffffffffffffffffffffffffffffffff16815260200190815260200160002060008373ffffffffffffffffffffffffffffffffffffffff1673ffffffffffffffffffffffffffffffffffffffff16815260200190815260200160002054905092915050565b60096020528060005260406000206000915090505481565b600a818154811061143c57600080fd5b906000526020600020016000915054906101000a900473ffffffffffffffffffffffffffffffffffffffff1681565b600860009054906101000a900473ffffffffffffffffffffffffffffffffffffffff1681565b600860009054906101000a900473ffffffffffffffffffffffffffffffffffffffff1673ffffffffffffffffffffffffffffffffffffffff163373ffffffffffffffffffffffffffffffffffffffff1614611521576040517f08c379a000000000000000000000000000000000000000000000000000000000815260040161151890612c13565b60405180910390fd5b80600c8190555050565b6060600a8054806020026020016040519081016040528092919081815260200182805480156115af57602002820191906000526020600020905b8160009054906101000a900473ffffffffffffffffffffffffffffffffffffffff1673ffffffffffffffffffffffffffffffffffffffff1681526020019060010190808311611565575b5050505050905090565b600033905090565b6115ce838383600161196f565b505050565b60006115df848461138d565b90507fffffffffffffffffffffffffffffffffffffffffffffffffffffffffffffffff8110156116625781811015611652578281836040517ffb8f41b200000000000000000000000000000000000000000000000000000000815260040161164993929190612c33565b60405180910390fd5b6116618484848403600061196f565b5b50505050565b600073ffffffffffffffffffffffffffffffffffffffff168373ffffffffffffffffffffffffffffffffffffffff16036116da5760006040517f96c6fd1e0000000000000000000000000000000000000000000000000000000081526004016116d19190611dfc565b60405180910390fd5b600073ffffffffffffffffffffffffffffffffffffffff168273ffffffffffffffffffffffffffffffffffffffff160361174c5760006040517fec442f050000000000000000000000000000000000000000000000000000000081526004016117439190611dfc565b60405180910390fd5b611757838383611b46565b505050565b600260055403611798576040517f3ee5aeb500000000000000000000000000000000000000000000000000000000815260040160405180910390fd5b6002600581905550565b6001600581905550565b600073ffffffffffffffffffffffffffffffffffffffff168273ffffffffffffffffffffffffffffffffffffffff160361181e5760006040517fec442f050000000000000000000000000000000000000000000000000000000081526004016118159190611dfc565b60405180910390fd5b61182a60008383611b46565b5050565b600d60009054906101000a900460ff1661187d576040517f08c379a0000000000000000000000000000000000000000000000000000000008152600401611874906125d6565b60405180910390fd5b6000600b54146118c2576040517f08c379a00000000000000000000000000000000000000000000000000000000081526004016118b990612642565b60405180910390fd5b80600b8190555042600c8190555050565b61196b82826040516024016118e9929190612c6a565b6040516020818303038152906040527fb60e72cc000000000000000000000000000000000000000000000000000000007bffffffffffffffffffffffffffffffffffffffffffffffffffffffff19166020820180517bffffffffffffffffffffffffffffffffffffffffffffffffffffffff8381831617835250505050611d6b565b5050565b600073ffffffffffffffffffffffffffffffffffffffff168473ffffffffffffffffffffffffffffffffffffffff16036119e15760006040517fe602df050000000000000000000000000000000000000000000000000000000081526004016119d89190611dfc565b60405180910390fd5b600073ffffffffffffffffffffffffffffffffffffffff168373ffffffffffffffffffffffffffffffffffffffff1603611a535760006040517f94280d62000000000000000000000000000000000000000000000000000000008152600401611a4a9190611dfc565b60405180910390fd5b81600160008673ffffffffffffffffffffffffffffffffffffffff1673ffffffffffffffffffffffffffffffffffffffff16815260200190815260200160002060008573ffffffffffffffffffffffffffffffffffffffff1673ffffffffffffffffffffffffffffffffffffffff168152602001908152602001600020819055508015611b40578273ffffffffffffffffffffffffffffffffffffffff168473ffffffffffffffffffffffffffffffffffffffff167f8c5be1e5ebec7d5bd14f71427d1e84f3dd0314c0f7b2291e5b200ac8c7c3b92584604051611b379190611fb5565b60405180910390a35b50505050565b600073ffffffffffffffffffffffffffffffffffffffff168373ffffffffffffffffffffffffffffffffffffffff1603611b98578060026000828254611b8c9190612490565b92505081905550611c6b565b60008060008573ffffffffffffffffffffffffffffffffffffffff1673ffffffffffffffffffffffffffffffffffffffff16815260200190815260200160002054905081811015611c24578381836040517fe450d38c000000000000000000000000000000000000000000000000000000008152600401611c1b93929190612c33565b60405180910390fd5b8181036000808673ffffffffffffffffffffffffffffffffffffffff1673ffffffffffffffffffffffffffffffffffffffff16815260200190815260200160002081905550505b600073ffffffffffffffffffffffffffffffffffffffff168273ffffffffffffffffffffffffffffffffffffffff1603611cb45780600260008282540392505081905550611d01565b806000808473ffffffffffffffffffffffffffffffffffffffff1673ffffffffffffffffffffffffffffffffffffffff168152602001908152602001600020600082825401925050819055505b8173ffffffffffffffffffffffffffffffffffffffff168373ffffffffffffffffffffffffffffffffffffffff167fddf252ad1be2c89b69c2b068fc378daa952ba7f163c4a11628f55a4df523b3ef83604051611d5e9190611fb5565b60405180910390a3505050565b611d8281611d7a611d85611da6565b63ffffffff16565b50565b60006a636f6e736f6c652e6c6f679050600080835160208501845afa505050565b611db1819050919050565b611db9612c9a565b565b600073ffffffffffffffffffffffffffffffffffffffff82169050919050565b6000611de682611dbb565b9050919050565b611df681611ddb565b82525050565b6000602082019050611e116000830184611ded565b92915050565b600081519050919050565b600082825260208201905092915050565b60005b83811015611e51578082015181840152602081019050611e36565b60008484015250505050565b6000601f19601f8301169050919050565b6000611e7982611e17565b611e838185611e22565b9350611e93818560208601611e33565b611e9c81611e5d565b840191505092915050565b60006020820190508181036000830152611ec18184611e6e565b905092915050565b600080fd5b611ed781611ddb565b8114611ee257600080fd5b50565b600081359050611ef481611ece565b92915050565b6000819050919050565b611f0d81611efa565b8114611f1857600080fd5b50565b600081359050611f2a81611f04565b92915050565b60008060408385031215611f4757611f46611ec9565b5b6000611f5585828601611ee5565b9250506020611f6685828601611f1b565b9150509250929050565b60008115159050919050565b611f8581611f70565b82525050565b6000602082019050611fa06000830184611f7c565b92915050565b611faf81611efa565b82525050565b6000602082019050611fca6000830184611fa6565b92915050565b600080600060608486031215611fe957611fe8611ec9565b5b6000611ff786828701611ee5565b935050602061200886828701611ee5565b925050604061201986828701611f1b565b9150509250925092565b600060ff82169050919050565b61203981612023565b82525050565b60006020820190506120546000830184612030565b92915050565b6000602082840312156120705761206f611ec9565b5b600061207e84828501611f1b565b91505092915050565b60006020828403121561209d5761209c611ec9565b5b60006120ab84828501611ee5565b91505092915050565b6120bd81611f70565b81146120c857600080fd5b50565b6000813590506120da816120b4565b92915050565b600080600080600060a086880312156120fc576120fb611ec9565b5b600061210a88828901611f1b565b955050602061211b88828901611f1b565b945050604061212c88828901611ee5565b935050606061213d888289016120cb565b925050608061214e88828901611f1b565b9150509295509295909350565b6000806040838503121561217257612171611ec9565b5b600061218085828601611ee5565b925050602061219185828601611ee5565b9150509250929050565b600081519050919050565b600082825260208201905092915050565b6000819050602082019050919050565b6121d081611ddb565b82525050565b60006121e283836121c7565b60208301905092915050565b6000602082019050919050565b60006122068261219b565b61221081856121a6565b935061221b836121b7565b8060005b8381101561224c57815161223388826121d6565b975061223e836121ee565b92505060018101905061221f565b5085935050505092915050565b6000602082019050818103600083015261227381846121fb565b905092915050565b7f4e487b7100000000000000000000000000000000000000000000000000000000600052602260045260246000fd5b600060028204905060018216806122c257607f821691505b6020821081036122d5576122d461227b565b5b50919050565b7f4e487b7100000000000000000000000000000000000000000000000000000000600052601160045260246000fd5b600061231582611efa565b915061232083611efa565b925082820261232e81611efa565b91508282048414831517612345576123446122db565b5b5092915050565b7f496e73756666696369656e7420546f6b656e73204c6566740000000000000000600082015250565b6000612382601883611e22565b915061238d8261234c565b602082019050919050565b600060208201905081810360008301526123b181612375565b9050919050565b7f496e73756666696369656e74204554482073656e740000000000000000000000600082015250565b60006123ee601583611e22565b91506123f9826123b8565b602082019050919050565b6000602082019050818103600083015261241d816123e1565b9050919050565b7f4e6f7420656e6f75676820746f6b656e7320617661696c61626c650000000000600082015250565b600061245a601b83611e22565b915061246582612424565b602082019050919050565b600060208201905081810360008301526124898161244d565b9050919050565b600061249b82611efa565b91506124a683611efa565b92508282019050808211156124be576124bd6122db565b5b92915050565b60006124cf82611efa565b91506124da83611efa565b92508282039050818111156124f2576124f16122db565b5b92915050565b7f4f6e6c79207468652070726f7065727479206f776e65722063616e207365742060008201527f74686520696e636f6d6500000000000000000000000000000000000000000000602082015250565b6000612554602a83611e22565b915061255f826124f8565b604082019050919050565b6000602082019050818103600083015261258381612547565b9050919050565b7f54686973206973206e6f7420612072656e74616c2070726f7065727479000000600082015250565b60006125c0601d83611e22565b91506125cb8261258a565b602082019050919050565b600060208201905081810360008301526125ef816125b3565b9050919050565b7f53616c6520616c726561647920696e697469616c697a65640000000000000000600082015250565b600061262c601883611e22565b9150612637826125f6565b602082019050919050565b6000602082019050818103600083015261265b8161261f565b9050919050565b7f50726f706572747920546f6b656e20537570706c79206d75737420626520677260008201527f6561746572207468616e20300000000000000000000000000000000000000000602082015250565b60006126be602c83611e22565b91506126c982612662565b604082019050919050565b600060208201905081810360008301526126ed816126b1565b9050919050565b7f546f74616c20737570706c7920697320746f6f206c6172676500000000000000600082015250565b600061272a601983611e22565b9150612735826126f4565b602082019050919050565b600060208201905081810360008301526127598161271d565b9050919050565b7f546f6b656e207072696365206d7573742062652067726561746572207468616e60008201527f207a65726f000000000000000000000000000000000000000000000000000000602082015250565b60006127bc602583611e22565b91506127c782612760565b604082019050919050565b600060208201905081810360008301526127eb816127af565b9050919050565b7f496e76616c69642070726f7065727479206f776e657220616464726573730000600082015250565b6000612828601e83611e22565b9150612833826127f2565b602082019050919050565b600060208201905081810360008301526128578161281b565b9050919050565b7f52656e74616c20696e636f6d65206d757374206265206772656174657220746860008201527f616e207a65726f00000000000000000000000000000000000000000000000000602082015250565b60006128ba602783611e22565b91506128c58261285e565b604082019050919050565b600060208201905081810360008301526128e9816128ad565b9050919050565b7f4f6e6c79207468652070726f7065727479206f776e65722063616e206469737460008201527f72696275746520696e636f6d6500000000000000000000000000000000000000602082015250565b600061294c602d83611e22565b9150612957826128f0565b604082019050919050565b6000602082019050818103600083015261297b8161293f565b9050919050565b7f4d6f6e74686c7920696e636f6d6520646973747269627574696f6e206973206e60008201527f6f74206475652079657400000000000000000000000000000000000000000000602082015250565b60006129de602a83611e22565b91506129e982612982565b604082019050919050565b60006020820190508181036000830152612a0d816129d1565b9050919050565b7f4e6f7420656e6f756768204554482073656e7420666f7220646973747269627560008201527f74696f6e00000000000000000000000000000000000000000000000000000000602082015250565b6000612a70602483611e22565b9150612a7b82612a14565b604082019050919050565b60006020820190508181036000830152612a9f81612a63565b9050919050565b7f546f74616c20746f6b656e20737570706c792063616e6e6f74206265207a657260008201527f6f00000000000000000000000000000000000000000000000000000000000000602082015250565b6000612b02602183611e22565b9150612b0d82612aa6565b604082019050919050565b60006020820190508181036000830152612b3181612af5565b9050919050565b7f4e487b7100000000000000000000000000000000000000000000000000000000600052603260045260246000fd5b7f4e487b7100000000000000000000000000000000000000000000000000000000600052601260045260246000fd5b6000612ba182611efa565b9150612bac83611efa565b925082612bbc57612bbb612b67565b5b828204905092915050565b7f4f6e6c7920746865206f776e65722063616e2073657420746869730000000000600082015250565b6000612bfd601b83611e22565b9150612c0882612bc7565b602082019050919050565b60006020820190508181036000830152612c2c81612bf0565b9050919050565b6000606082019050612c486000830186611ded565b612c556020830185611fa6565b612c626040830184611fa6565b949350505050565b60006040820190508181036000830152612c848185611e6e565b9050612c936020830184611fa6565b9392505050565b7f4e487b7100000000000000000000000000000000000000000000000000000000600052605160045260246000fdfea26469706673582212206af6e76c6aabdac151432959a5ac64c5be9880e329341321f7e2dd1afab9689064736f6c634300081c0033",
  "linkReferences": {},
  "deployedLinkReferences": {}
}