{
  "_format": "hh-sol-artifact-1",
  "contractName": "PropertyERC20",
  "sourceName": "contracts/RentalTokenOwnership.sol",
  "abi": [
    {
      "inputs": [
        {
          "internalType": "string",
          "name": "_name",
          "type": "string"
        },
        {
          "internalType": "string",
          "name": "_symbol",
          "type": "string"
        }
      ],
      "stateMutability": "nonpayable",
      "type": "constructor"
    },
    {
      "inputs": [
        {
          "internalType": "address",
          "name": "spender",
          "type": "address"
        },
        {
          "internalType": "uint256",
          "name": "allowance",
          "type": "uint256"
        },
        {
          "internalType": "uint256",
          "name": "needed",
          "type": "uint256"
        }
      ],
      "name": "ERC20InsufficientAllowance",
      "type": "error"
    },
    {
      "inputs": [
        {
          "internalType": "address",
          "name": "sender",
          "type": "address"
        },
        {
          "internalType": "uint256",
          "name": "balance",
          "type": "uint256"
        },
        {
          "internalType": "uint256",
          "name": "needed",
          "type": "uint256"
        }
      ],
      "name": "ERC20InsufficientBalance",
      "type": "error"
    },
    {
      "inputs": [
        {
          "internalType": "address",
          "name": "approver",
          "type": "address"
        }
      ],
      "name": "ERC20InvalidApprover",
      "type": "error"
    },
    {
      "inputs": [
        {
          "internalType": "address",
          "name": "receiver",
          "type": "address"
        }
      ],
      "name": "ERC20InvalidReceiver",
      "type": "error"
    },
    {
      "inputs": [
        {
          "internalType": "address",
          "name": "sender",
          "type": "address"
        }
      ],
      "name": "ERC20InvalidSender",
      "type": "error"
    },
    {
      "inputs": [
        {
          "internalType": "address",
          "name": "spender",
          "type": "address"
        }
      ],
      "name": "ERC20InvalidSpender",
      "type": "error"
    },
    {
      "inputs": [],
      "name": "ReentrancyGuardReentrantCall",
      "type": "error"
    },
    {
      "anonymous": false,
      "inputs": [
        {
          "indexed": true,
          "internalType": "address",
          "name": "owner",
          "type": "address"
        },
        {
          "indexed": true,
          "internalType": "address",
          "name": "spender",
          "type": "address"
        },
        {
          "indexed": false,
          "internalType": "uint256",
          "name": "value",
          "type": "uint256"
        }
      ],
      "name": "Approval",
      "type": "event"
    },
    {
      "anonymous": false,
      "inputs": [
        {
          "indexed": true,
          "internalType": "address",
          "name": "from",
          "type": "address"
        },
        {
          "indexed": true,
          "internalType": "address",
          "name": "to",
          "type": "address"
        },
        {
          "indexed": false,
          "internalType": "uint256",
          "name": "value",
          "type": "uint256"
        }
      ],
      "name": "Transfer",
      "type": "event"
    },
    {
      "inputs": [
        {
          "internalType": "address",
          "name": "owner",
          "type": "address"
        },
        {
          "internalType": "address",
          "name": "spender",
          "type": "address"
        }
      ],
      "name": "allowance",
      "outputs": [
        {
          "internalType": "uint256",
          "name": "",
          "type": "uint256"
        }
      ],
      "stateMutability": "view",
      "type": "function"
    },
    {
      "inputs": [
        {
          "internalType": "address",
          "name": "spender",
          "type": "address"
        },
        {
          "internalType": "uint256",
          "name": "value",
          "type": "uint256"
        }
      ],
      "name": "approve",
      "outputs": [
        {
          "internalType": "bool",
          "name": "",
          "type": "bool"
        }
      ],
      "stateMutability": "nonpayable",
      "type": "function"
    },
    {
      "inputs": [
        {
          "internalType": "address",
          "name": "account",
          "type": "address"
        }
      ],
      "name": "balanceOf",
      "outputs": [
        {
          "internalType": "uint256",
          "name": "",
          "type": "uint256"
        }
      ],
      "stateMutability": "view",
      "type": "function"
    },
    {
      "inputs": [
        {
          "internalType": "uint256",
          "name": "_tokenAmount",
          "type": "uint256"
        }
      ],
      "name": "buyTokens",
      "outputs": [],
      "stateMutability": "payable",
      "type": "function"
    },
    {
      "inputs": [
        {
          "internalType": "address",
          "name": "",
          "type": "address"
        }
      ],
      "name": "buyerTokens",
      "outputs": [
        {
          "internalType": "uint256",
          "name": "",
          "type": "uint256"
        }
      ],
      "stateMutability": "view",
      "type": "function"
    },
    {
      "inputs": [
        {
          "internalType": "uint256",
          "name": "",
          "type": "uint256"
        }
      ],
      "name": "buyers",
      "outputs": [
        {
          "internalType": "address",
          "name": "",
          "type": "address"
        }
      ],
      "stateMutability": "view",
      "type": "function"
    },
    {
      "inputs": [],
      "name": "decimals",
      "outputs": [
        {
          "internalType": "uint8",
          "name": "",
          "type": "uint8"
        }
      ],
      "stateMutability": "view",
      "type": "function"
    },
    {
      "inputs": [],
      "name": "distributeIncome",
      "outputs": [],
      "stateMutability": "nonpayable",
      "type": "function"
    },
    {
      "inputs": [],
      "name": "getBuyers",
      "outputs": [
        {
          "internalType": "address[]",
          "name": "",
          "type": "address[]"
        }
      ],
      "stateMutability": "view",
      "type": "function"
    },
    {
      "inputs": [],
      "name": "getIsRentalProperty",
      "outputs": [
        {
          "internalType": "bool",
          "name": "",
          "type": "bool"
        }
      ],
      "stateMutability": "view",
      "type": "function"
    },
    {
      "inputs": [],
      "name": "getLastIncomeDistribution",
      "outputs": [
        {
          "internalType": "uint256",
          "name": "",
          "type": "uint256"
        }
      ],
      "stateMutability": "view",
      "type": "function"
    },
    {
      "inputs": [],
      "name": "getMonthlyIncome",
      "outputs": [
        {
          "internalType": "uint256",
          "name": "",
          "type": "uint256"
        }
      ],
      "stateMutability": "view",
      "type": "function"
    },
    {
      "inputs": [],
      "name": "getTokenSupply",
      "outputs": [
        {
          "internalType": "uint256",
          "name": "",
          "type": "uint256"
        }
      ],
      "stateMutability": "view",
      "type": "function"
    },
    {
      "inputs": [
        {
          "internalType": "address",
          "name": "buyer",
          "type": "address"
        }
      ],
      "name": "getTokensBought",
      "outputs": [
        {
          "internalType": "uint256",
          "name": "",
          "type": "uint256"
        }
      ],
      "stateMutability": "view",
      "type": "function"
    },
    {
      "inputs": [],
      "name": "getWhatRentalIncome",
      "outputs": [
        {
          "internalType": "uint256",
          "name": "",
          "type": "uint256"
        }
      ],
      "stateMutability": "view",
      "type": "function"
    },
    {
      "inputs": [
        {
          "internalType": "uint256",
          "name": "_totalSupply",
          "type": "uint256"
        },
        {
          "internalType": "uint256",
          "name": "_tokenPrice",
          "type": "uint256"
        },
        {
          "internalType": "address",
          "name": "_propertyOwner",
          "type": "address"
        },
        {
          "internalType": "bool",
          "name": "_isRentalProperty",
          "type": "bool"
        },
        {
          "internalType": "uint256",
          "name": "_monthlyIncome",
          "type": "uint256"
        }
      ],
      "name": "initializeSale",
      "outputs": [],
      "stateMutability": "nonpayable",
      "type": "function"
    },
    {
      "inputs": [],
      "name": "isRentalProperty",
      "outputs": [
        {
          "internalType": "bool",
          "name": "",
          "type": "bool"
        }
      ],
      "stateMutability": "view",
      "type": "function"
    },
    {
      "inputs": [],
      "name": "lastIncomeDistribution",
      "outputs": [
        {
          "internalType": "uint256",
          "name": "",
          "type": "uint256"
        }
      ],
      "stateMutability": "view",
      "type": "function"
    },
    {
      "inputs": [],
      "name": "monthlyIncome",
      "outputs": [
        {
          "internalType": "uint256",
          "name": "",
          "type": "uint256"
        }
      ],
      "stateMutability": "view",
      "type": "function"
    },
    {
      "inputs": [],
      "name": "name",
      "outputs": [
        {
          "internalType": "string",
          "name": "",
          "type": "string"
        }
      ],
      "stateMutability": "view",
      "type": "function"
    },
    {
      "inputs": [],
      "name": "ownerOf",
      "outputs": [
        {
          "internalType": "address",
          "name": "",
          "type": "address"
        }
      ],
      "stateMutability": "view",
      "type": "function"
    },
    {
      "inputs": [],
      "name": "propertyOwner",
      "outputs": [
        {
          "internalType": "address",
          "name": "",
          "type": "address"
        }
      ],
      "stateMutability": "view",
      "type": "function"
    },
    {
      "inputs": [],
      "name": "propertyTotalSupply",
      "outputs": [
        {
          "internalType": "uint256",
          "name": "",
          "type": "uint256"
        }
      ],
      "stateMutability": "view",
      "type": "function"
    },
    {
      "inputs": [
        {
          "internalType": "uint256",
          "name": "_newMonthlyIncome",
          "type": "uint256"
        }
      ],
      "name": "setMonthlyIncome",
      "outputs": [],
      "stateMutability": "nonpayable",
      "type": "function"
    },
    {
      "inputs": [],
      "name": "symbol",
      "outputs": [
        {
          "internalType": "string",
          "name": "",
          "type": "string"
        }
      ],
      "stateMutability": "view",
      "type": "function"
    },
    {
      "inputs": [],
      "name": "tokenPrice",
      "outputs": [
        {
          "internalType": "uint256",
          "name": "",
          "type": "uint256"
        }
      ],
      "stateMutability": "view",
      "type": "function"
    },
    {
      "inputs": [],
      "name": "totalSupply",
      "outputs": [
        {
          "internalType": "uint256",
          "name": "",
          "type": "uint256"
        }
      ],
      "stateMutability": "view",
      "type": "function"
    },
    {
      "inputs": [
        {
          "internalType": "address",
          "name": "to",
          "type": "address"
        },
        {
          "internalType": "uint256",
          "name": "value",
          "type": "uint256"
        }
      ],
      "name": "transfer",
      "outputs": [
        {
          "internalType": "bool",
          "name": "",
          "type": "bool"
        }
      ],
      "stateMutability": "nonpayable",
      "type": "function"
    },
    {
      "inputs": [
        {
          "internalType": "address",
          "name": "from",
          "type": "address"
        },
        {
          "internalType": "address",
          "name": "to",
          "type": "address"
        },
        {
          "internalType": "uint256",
          "name": "value",
          "type": "uint256"
        }
      ],
      "name": "transferFrom",
      "outputs": [
        {
          "internalType": "bool",
          "name": "",
          "type": "bool"
        }
      ],
      "stateMutability": "nonpayable",
      "type": "function"
    }
  ],
  "bytecode": "0x608060405234801561001057600080fd5b50604051612f0d380380612f0d833981810160405281019061003291906101da565b818181600390816100439190610473565b5080600490816100539190610473565b50505060016005819055505050610545565b6000604051905090565b600080fd5b600080fd5b600080fd5b600080fd5b6000601f19601f8301169050919050565b7f4e487b7100000000000000000000000000000000000000000000000000000000600052604160045260246000fd5b6100cc82610083565b810181811067ffffffffffffffff821117156100eb576100ea610094565b5b80604052505050565b60006100fe610065565b905061010a82826100c3565b919050565b600067ffffffffffffffff82111561012a57610129610094565b5b61013382610083565b9050602081019050919050565b60005b8381101561015e578082015181840152602081019050610143565b60008484015250505050565b600061017d6101788461010f565b6100f4565b9050828152602081018484840111156101995761019861007e565b5b6101a4848285610140565b509392505050565b600082601f8301126101c1576101c0610079565b5b81516101d184826020860161016a565b91505092915050565b600080604083850312156101f1576101f061006f565b5b600083015167ffffffffffffffff81111561020f5761020e610074565b5b61021b858286016101ac565b925050602083015167ffffffffffffffff81111561023c5761023b610074565b5b610248858286016101ac565b9150509250929050565b600081519050919050565b7f4e487b7100000000000000000000000000000000000000000000000000000000600052602260045260246000fd5b600060028204905060018216806102a457607f821691505b6020821081036102b7576102b661025d565b5b50919050565b60008190508160005260206000209050919050565b60006020601f8301049050919050565b600082821b905092915050565b60006008830261031f7fffffffffffffffffffffffffffffffffffffffffffffffffffffffffffffffff826102e2565b61032986836102e2565b95508019841693508086168417925050509392505050565b6000819050919050565b6000819050919050565b600061037061036b61036684610341565b61034b565b610341565b9050919050565b6000819050919050565b61038a83610355565b61039e61039682610377565b8484546102ef565b825550505050565b600090565b6103b36103a6565b6103be818484610381565b505050565b5b818110156103e2576103d76000826103ab565b6001810190506103c4565b5050565b601f821115610427576103f8816102bd565b610401846102d2565b81016020851015610410578190505b61042461041c856102d2565b8301826103c3565b50505b505050565b600082821c905092915050565b600061044a6000198460080261042c565b1980831691505092915050565b60006104638383610439565b9150826002028217905092915050565b61047c82610252565b67ffffffffffffffff81111561049557610494610094565b5b61049f825461028c565b6104aa8282856103e6565b600060209050601f8311600181146104dd57600084156104cb578287015190505b6104d58582610457565b86555061053d565b601f1984166104eb866102bd565b60005b82811015610513578489015182556001820191506020850194506020810190506104ee565b86831015610530578489015161052c601f891682610439565b8355505b6001600288020188555050505b505050505050565b6129b9806105546000396000f3fe6080604052600436106101c25760003560e01c80637ff9b596116100f7578063ca9013cb11610095578063f13656eb11610064578063f13656eb1461063f578063f2aa82181461067c578063f446c38f146106b9578063f64bfaba146106e4576101c2565b8063ca9013cb14610585578063ce8fcab1146105ae578063d74a375d146105c5578063dd62ed3e14610602576101c2565b8063a9059cbb116100d1578063a9059cbb146104c7578063ad974f4c14610504578063ae0e16d61461052f578063b01765b41461055a576101c2565b80637ff9b5961461044657806395500d191461047157806395d89b411461049c576101c2565b8063313ce567116101645780635a33e9921161013e5780635a33e992146103885780635e73018c146103b357806370a08231146103de5780637eb012691461041b576101c2565b8063313ce567146103185780633610724e1461034357806338d79ad51461035f576101c2565b806318160ddd116101a057806318160ddd1461025a578063197a65f3146102855780631e6e1f04146102b057806323b872dd146102db576101c2565b80630605062f146101c757806306fdde03146101f2578063095ea7b31461021d575b600080fd5b3480156101d357600080fd5b506101dc61070f565b6040516101e99190611b6d565b60405180910390f35b3480156101fe57600080fd5b50610207610739565b6040516102149190611c18565b60405180910390f35b34801561022957600080fd5b50610244600480360381019061023f9190611ca1565b6107cb565b6040516102519190611cfc565b60405180910390f35b34801561026657600080fd5b5061026f6107ee565b60405161027c9190611d26565b60405180910390f35b34801561029157600080fd5b5061029a6107f8565b6040516102a79190611d26565b60405180910390f35b3480156102bc57600080fd5b506102c56107fe565b6040516102d29190611cfc565b60405180910390f35b3480156102e757600080fd5b5061030260048036038101906102fd9190611d41565b610815565b60405161030f9190611cfc565b60405180910390f35b34801561032457600080fd5b5061032d610844565b60405161033a9190611db0565b60405180910390f35b61035d60048036038101906103589190611dcb565b61084d565b005b34801561036b57600080fd5b5061038660048036038101906103819190611dcb565b610a8b565b005b34801561039457600080fd5b5061039d610b74565b6040516103aa9190611d26565b60405180910390f35b3480156103bf57600080fd5b506103c8610b7e565b6040516103d59190611d26565b60405180910390f35b3480156103ea57600080fd5b5061040560048036038101906104009190611df8565b610b84565b6040516104129190611d26565b60405180910390f35b34801561042757600080fd5b50610430610bcc565b60405161043d9190611cfc565b60405180910390f35b34801561045257600080fd5b5061045b610bdf565b6040516104689190611d26565b60405180910390f35b34801561047d57600080fd5b50610486610be5565b6040516104939190611d26565b60405180910390f35b3480156104a857600080fd5b506104b1610bef565b6040516104be9190611c18565b60405180910390f35b3480156104d357600080fd5b506104ee60048036038101906104e99190611ca1565b610c81565b6040516104fb9190611cfc565b60405180910390f35b34801561051057600080fd5b50610519610ca4565b6040516105269190611d26565b60405180910390f35b34801561053b57600080fd5b50610544610cae565b6040516105519190611d26565b60405180910390f35b34801561056657600080fd5b5061056f610d07565b60405161057c9190611d26565b60405180910390f35b34801561059157600080fd5b506105ac60048036038101906105a79190611e51565b610d0d565b005b3480156105ba57600080fd5b506105c3610f97565b005b3480156105d157600080fd5b506105ec60048036038101906105e79190611df8565b61123b565b6040516105f99190611d26565b60405180910390f35b34801561060e57600080fd5b5061062960048036038101906106249190611ecc565b611284565b6040516106369190611d26565b60405180910390f35b34801561064b57600080fd5b5061066660048036038101906106619190611df8565b61130b565b6040516106739190611d26565b60405180910390f35b34801561068857600080fd5b506106a3600480360381019061069e9190611dcb565b611323565b6040516106b09190611b6d565b60405180910390f35b3480156106c557600080fd5b506106ce611362565b6040516106db9190611b6d565b60405180910390f35b3480156106f057600080fd5b506106f9611388565b6040516107069190611fca565b60405180910390f35b6000600860009054906101000a900473ffffffffffffffffffffffffffffffffffffffff16905090565b6060600380546107489061201b565b80601f01602080910402602001604051908101604052809291908181526020018280546107749061201b565b80156107c15780601f10610796576101008083540402835291602001916107c1565b820191906000526020600020905b8154815290600101906020018083116107a457829003601f168201915b5050505050905090565b6000806107d6611416565b90506107e381858561141e565b600191505092915050565b6000600254905090565b600b5481565b6000600d60009054906101000a900460ff16905090565b600080610820611416565b905061082d858285611430565b6108388585856114c5565b60019150509392505050565b60006012905090565b6108556115b9565b600060075482610865919061207b565b9050803410156108aa576040517f08c379a00000000000000000000000000000000000000000000000000000000081526004016108a190612109565b60405180910390fd5b8034111561090b57600081346108c09190612129565b90503373ffffffffffffffffffffffffffffffffffffffff166108fc829081150290604051600060405180830381858888f19350505050158015610908573d6000803e3d6000fd5b50505b6109163033846114c5565b81600960003373ffffffffffffffffffffffffffffffffffffffff1673ffffffffffffffffffffffffffffffffffffffff1681526020019081526020016000206000828254610965919061215d565b92505081905550600860009054906101000a900473ffffffffffffffffffffffffffffffffffffffff1673ffffffffffffffffffffffffffffffffffffffff166108fc349081150290604051600060405180830381858888f193505050501580156109d4573d6000803e3d6000fd5b5081600960003373ffffffffffffffffffffffffffffffffffffffff1673ffffffffffffffffffffffffffffffffffffffff1681526020019081526020016000205403610a7f57600a339080600181540180825580915050600190039060005260206000200160009091909190916101000a81548173ffffffffffffffffffffffffffffffffffffffff021916908373ffffffffffffffffffffffffffffffffffffffff1602179055505b50610a886115ff565b50565b600860009054906101000a900473ffffffffffffffffffffffffffffffffffffffff1673ffffffffffffffffffffffffffffffffffffffff163373ffffffffffffffffffffffffffffffffffffffff1614610b1b576040517f08c379a0000000000000000000000000000000000000000000000000000000008152600401610b1290612203565b60405180910390fd5b600d60009054906101000a900460ff16610b6a576040517f08c379a0000000000000000000000000000000000000000000000000000000008152600401610b619061226f565b60405180910390fd5b80600b8190555050565b6000600b54905090565b600c5481565b60008060008373ffffffffffffffffffffffffffffffffffffffff1673ffffffffffffffffffffffffffffffffffffffff168152602001908152602001600020549050919050565b600d60009054906101000a900460ff1681565b60075481565b6000600c54905090565b606060048054610bfe9061201b565b80601f0160208091040260200160405190810160405280929190818152602001828054610c2a9061201b565b8015610c775780601f10610c4c57610100808354040283529160200191610c77565b820191906000526020600020905b815481529060010190602001808311610c5a57829003601f168201915b5050505050905090565b600080610c8c611416565b9050610c998185856114c5565b600191505092915050565b6000600654905090565b6000600d60009054906101000a900460ff16610cff576040517f08c379a0000000000000000000000000000000000000000000000000000000008152600401610cf69061226f565b60405180910390fd5b600b54905090565b60065481565b600060065414610d52576040517f08c379a0000000000000000000000000000000000000000000000000000000008152600401610d49906122db565b60405180910390fd5b610d5a610844565b60ff16600a610d69919061242e565b85610d74919061207b565b600681905550600060065411610dbf576040517f08c379a0000000000000000000000000000000000000000000000000000000008152600401610db6906124eb565b60405180910390fd5b69d3c21bcecceda10000006006541115610e0e576040517f08c379a0000000000000000000000000000000000000000000000000000000008152600401610e0590612557565b60405180910390fd5b8360078190555060008411610e58576040517f08c379a0000000000000000000000000000000000000000000000000000000008152600401610e4f906125e9565b60405180910390fd5b82600860006101000a81548173ffffffffffffffffffffffffffffffffffffffff021916908373ffffffffffffffffffffffffffffffffffffffff160217905550600073ffffffffffffffffffffffffffffffffffffffff168373ffffffffffffffffffffffffffffffffffffffff1603610f08576040517f08c379a0000000000000000000000000000000000000000000000000000000008152600401610eff90612655565b60405180910390fd5b81600d60006101000a81548160ff021916908315150217905550610f2e30600654611609565b600d60009054906101000a900460ff1615610f905760008111610f86576040517f08c379a0000000000000000000000000000000000000000000000000000000008152600401610f7d906126e7565b60405180910390fd5b610f8f8161168b565b5b5050505050565b610f9f6115b9565b600d60009054906101000a900460ff16610fee576040517f08c379a0000000000000000000000000000000000000000000000000000000008152600401610fe59061226f565b60405180910390fd5b600860009054906101000a900473ffffffffffffffffffffffffffffffffffffffff1673ffffffffffffffffffffffffffffffffffffffff163373ffffffffffffffffffffffffffffffffffffffff161461107e576040517f08c379a000000000000000000000000000000000000000000000000000000000815260040161107590612779565b60405180910390fd5b62278d00600c5461108f919061215d565b4210156110d1576040517f08c379a00000000000000000000000000000000000000000000000000000000081526004016110c89061280b565b60405180910390fd5b600b54471015611116576040517f08c379a000000000000000000000000000000000000000000000000000000000815260040161110d9061289d565b60405180910390fd5b600060065490506000600b54905060005b600a80549050811015611227576000600a828154811061114a576111496128bd565b5b9060005260206000200160009054906101000a900473ffffffffffffffffffffffffffffffffffffffff16905060008484600960008573ffffffffffffffffffffffffffffffffffffffff1673ffffffffffffffffffffffffffffffffffffffff168152602001908152602001600020546111c5919061207b565b6111cf919061291b565b90508173ffffffffffffffffffffffffffffffffffffffff166108fc829081150290604051600060405180830381858888f19350505050158015611217573d6000803e3d6000fd5b5050508080600101915050611127565b5042600c8190555050506112396115ff565b565b6000600960008373ffffffffffffffffffffffffffffffffffffffff1673ffffffffffffffffffffffffffffffffffffffff168152602001908152602001600020549050919050565b6000600160008473ffffffffffffffffffffffffffffffffffffffff1673ffffffffffffffffffffffffffffffffffffffff16815260200190815260200160002060008373ffffffffffffffffffffffffffffffffffffffff1673ffffffffffffffffffffffffffffffffffffffff16815260200190815260200160002054905092915050565b60096020528060005260406000206000915090505481565b600a818154811061133357600080fd5b906000526020600020016000915054906101000a900473ffffffffffffffffffffffffffffffffffffffff1681565b600860009054906101000a900473ffffffffffffffffffffffffffffffffffffffff1681565b6060600a80548060200260200160405190810160405280929190818152602001828054801561140c57602002820191906000526020600020905b8160009054906101000a900473ffffffffffffffffffffffffffffffffffffffff1673ffffffffffffffffffffffffffffffffffffffff16815260200190600101908083116113c2575b5050505050905090565b600033905090565b61142b8383836001611730565b505050565b600061143c8484611284565b90507fffffffffffffffffffffffffffffffffffffffffffffffffffffffffffffffff8110156114bf57818110156114af578281836040517ffb8f41b20000000000000000000000000000000000000000000000000000000081526004016114a69392919061294c565b60405180910390fd5b6114be84848484036000611730565b5b50505050565b600073ffffffffffffffffffffffffffffffffffffffff168373ffffffffffffffffffffffffffffffffffffffff16036115375760006040517f96c6fd1e00000000000000000000000000000000000000000000000000000000815260040161152e9190611b6d565b60405180910390fd5b600073ffffffffffffffffffffffffffffffffffffffff168273ffffffffffffffffffffffffffffffffffffffff16036115a95760006040517fec442f050000000000000000000000000000000000000000000000000000000081526004016115a09190611b6d565b60405180910390fd5b6115b4838383611907565b505050565b6002600554036115f5576040517f3ee5aeb500000000000000000000000000000000000000000000000000000000815260040160405180910390fd5b6002600581905550565b6001600581905550565b600073ffffffffffffffffffffffffffffffffffffffff168273ffffffffffffffffffffffffffffffffffffffff160361167b5760006040517fec442f050000000000000000000000000000000000000000000000000000000081526004016116729190611b6d565b60405180910390fd5b61168760008383611907565b5050565b600d60009054906101000a900460ff166116da576040517f08c379a00000000000000000000000000000000000000000000000000000000081526004016116d19061226f565b60405180910390fd5b6000600b541461171f576040517f08c379a0000000000000000000000000000000000000000000000000000000008152600401611716906122db565b60405180910390fd5b80600b8190555042600c8190555050565b600073ffffffffffffffffffffffffffffffffffffffff168473ffffffffffffffffffffffffffffffffffffffff16036117a25760006040517fe602df050000000000000000000000000000000000000000000000000000000081526004016117999190611b6d565b60405180910390fd5b600073ffffffffffffffffffffffffffffffffffffffff168373ffffffffffffffffffffffffffffffffffffffff16036118145760006040517f94280d6200000000000000000000000000000000000000000000000000000000815260040161180b9190611b6d565b60405180910390fd5b81600160008673ffffffffffffffffffffffffffffffffffffffff1673ffffffffffffffffffffffffffffffffffffffff16815260200190815260200160002060008573ffffffffffffffffffffffffffffffffffffffff1673ffffffffffffffffffffffffffffffffffffffff168152602001908152602001600020819055508015611901578273ffffffffffffffffffffffffffffffffffffffff168473ffffffffffffffffffffffffffffffffffffffff167f8c5be1e5ebec7d5bd14f71427d1e84f3dd0314c0f7b2291e5b200ac8c7c3b925846040516118f89190611d26565b60405180910390a35b50505050565b600073ffffffffffffffffffffffffffffffffffffffff168373ffffffffffffffffffffffffffffffffffffffff160361195957806002600082825461194d919061215d565b92505081905550611a2c565b60008060008573ffffffffffffffffffffffffffffffffffffffff1673ffffffffffffffffffffffffffffffffffffffff168152602001908152602001600020549050818110156119e5578381836040517fe450d38c0000000000000000000000000000000000000000000000000000000081526004016119dc9392919061294c565b60405180910390fd5b8181036000808673ffffffffffffffffffffffffffffffffffffffff1673ffffffffffffffffffffffffffffffffffffffff16815260200190815260200160002081905550505b600073ffffffffffffffffffffffffffffffffffffffff168273ffffffffffffffffffffffffffffffffffffffff1603611a755780600260008282540392505081905550611ac2565b806000808473ffffffffffffffffffffffffffffffffffffffff1673ffffffffffffffffffffffffffffffffffffffff168152602001908152602001600020600082825401925050819055505b8173ffffffffffffffffffffffffffffffffffffffff168373ffffffffffffffffffffffffffffffffffffffff167fddf252ad1be2c89b69c2b068fc378daa952ba7f163c4a11628f55a4df523b3ef83604051611b1f9190611d26565b60405180910390a3505050565b600073ffffffffffffffffffffffffffffffffffffffff82169050919050565b6000611b5782611b2c565b9050919050565b611b6781611b4c565b82525050565b6000602082019050611b826000830184611b5e565b92915050565b600081519050919050565b600082825260208201905092915050565b60005b83811015611bc2578082015181840152602081019050611ba7565b60008484015250505050565b6000601f19601f8301169050919050565b6000611bea82611b88565b611bf48185611b93565b9350611c04818560208601611ba4565b611c0d81611bce565b840191505092915050565b60006020820190508181036000830152611c328184611bdf565b905092915050565b600080fd5b611c4881611b4c565b8114611c5357600080fd5b50565b600081359050611c6581611c3f565b92915050565b6000819050919050565b611c7e81611c6b565b8114611c8957600080fd5b50565b600081359050611c9b81611c75565b92915050565b60008060408385031215611cb857611cb7611c3a565b5b6000611cc685828601611c56565b9250506020611cd785828601611c8c565b9150509250929050565b60008115159050919050565b611cf681611ce1565b82525050565b6000602082019050611d116000830184611ced565b92915050565b611d2081611c6b565b82525050565b6000602082019050611d3b6000830184611d17565b92915050565b600080600060608486031215611d5a57611d59611c3a565b5b6000611d6886828701611c56565b9350506020611d7986828701611c56565b9250506040611d8a86828701611c8c565b9150509250925092565b600060ff82169050919050565b611daa81611d94565b82525050565b6000602082019050611dc56000830184611da1565b92915050565b600060208284031215611de157611de0611c3a565b5b6000611def84828501611c8c565b91505092915050565b600060208284031215611e0e57611e0d611c3a565b5b6000611e1c84828501611c56565b91505092915050565b611e2e81611ce1565b8114611e3957600080fd5b50565b600081359050611e4b81611e25565b92915050565b600080600080600060a08688031215611e6d57611e6c611c3a565b5b6000611e7b88828901611c8c565b9550506020611e8c88828901611c8c565b9450506040611e9d88828901611c56565b9350506060611eae88828901611e3c565b9250506080611ebf88828901611c8c565b9150509295509295909350565b60008060408385031215611ee357611ee2611c3a565b5b6000611ef185828601611c56565b9250506020611f0285828601611c56565b9150509250929050565b600081519050919050565b600082825260208201905092915050565b6000819050602082019050919050565b611f4181611b4c565b82525050565b6000611f538383611f38565b60208301905092915050565b6000602082019050919050565b6000611f7782611f0c565b611f818185611f17565b9350611f8c83611f28565b8060005b83811015611fbd578151611fa48882611f47565b9750611faf83611f5f565b925050600181019050611f90565b5085935050505092915050565b60006020820190508181036000830152611fe48184611f6c565b905092915050565b7f4e487b7100000000000000000000000000000000000000000000000000000000600052602260045260246000fd5b6000600282049050600182168061203357607f821691505b60208210810361204657612045611fec565b5b50919050565b7f4e487b7100000000000000000000000000000000000000000000000000000000600052601160045260246000fd5b600061208682611c6b565b915061209183611c6b565b925082820261209f81611c6b565b915082820484148315176120b6576120b561204c565b5b5092915050565b7f496e73756666696369656e74204554482073656e740000000000000000000000600082015250565b60006120f3601583611b93565b91506120fe826120bd565b602082019050919050565b60006020820190508181036000830152612122816120e6565b9050919050565b600061213482611c6b565b915061213f83611c6b565b92508282039050818111156121575761215661204c565b5b92915050565b600061216882611c6b565b915061217383611c6b565b925082820190508082111561218b5761218a61204c565b5b92915050565b7f4f6e6c79207468652070726f7065727479206f776e65722063616e207365742060008201527f74686520696e636f6d6500000000000000000000000000000000000000000000602082015250565b60006121ed602a83611b93565b91506121f882612191565b604082019050919050565b6000602082019050818103600083015261221c816121e0565b9050919050565b7f54686973206973206e6f7420612072656e74616c2070726f7065727479000000600082015250565b6000612259601d83611b93565b915061226482612223565b602082019050919050565b600060208201905081810360008301526122888161224c565b9050919050565b7f53616c6520616c726561647920696e697469616c697a65640000000000000000600082015250565b60006122c5601883611b93565b91506122d08261228f565b602082019050919050565b600060208201905081810360008301526122f4816122b8565b9050919050565b60008160011c9050919050565b6000808291508390505b60018511156123525780860481111561232e5761232d61204c565b5b600185161561233d5780820291505b808102905061234b856122fb565b9450612312565b94509492505050565b60008261236b5760019050612427565b816123795760009050612427565b816001811461238f5760028114612399576123c8565b6001915050612427565b60ff8411156123ab576123aa61204c565b5b8360020a9150848211156123c2576123c161204c565b5b50612427565b5060208310610133831016604e8410600b84101617156123fd5782820a9050838111156123f8576123f761204c565b5b612427565b61240a8484846001612308565b925090508184048111156124215761242061204c565b5b81810290505b9392505050565b600061243982611c6b565b915061244483611c6b565b92506124717fffffffffffffffffffffffffffffffffffffffffffffffffffffffffffffffff848461235b565b905092915050565b7f50726f706572747920546f6b656e20537570706c79206d75737420626520677260008201527f6561746572207468616e20300000000000000000000000000000000000000000602082015250565b60006124d5602c83611b93565b91506124e082612479565b604082019050919050565b60006020820190508181036000830152612504816124c8565b9050919050565b7f546f74616c20737570706c7920697320746f6f206c6172676500000000000000600082015250565b6000612541601983611b93565b915061254c8261250b565b602082019050919050565b6000602082019050818103600083015261257081612534565b9050919050565b7f546f6b656e207072696365206d7573742062652067726561746572207468616e60008201527f207a65726f000000000000000000000000000000000000000000000000000000602082015250565b60006125d3602583611b93565b91506125de82612577565b604082019050919050565b60006020820190508181036000830152612602816125c6565b9050919050565b7f496e76616c69642070726f7065727479206f776e657220616464726573730000600082015250565b600061263f601e83611b93565b915061264a82612609565b602082019050919050565b6000602082019050818103600083015261266e81612632565b9050919050565b7f52656e74616c20696e636f6d65206d757374206265206772656174657220746860008201527f616e207a65726f00000000000000000000000000000000000000000000000000602082015250565b60006126d1602783611b93565b91506126dc82612675565b604082019050919050565b60006020820190508181036000830152612700816126c4565b9050919050565b7f4f6e6c79207468652070726f7065727479206f776e65722063616e206469737460008201527f72696275746520696e636f6d6500000000000000000000000000000000000000602082015250565b6000612763602d83611b93565b915061276e82612707565b604082019050919050565b6000602082019050818103600083015261279281612756565b9050919050565b7f4d6f6e74686c7920696e636f6d6520646973747269627574696f6e206973206e60008201527f6f74206475652079657400000000000000000000000000000000000000000000602082015250565b60006127f5602a83611b93565b915061280082612799565b604082019050919050565b60006020820190508181036000830152612824816127e8565b9050919050565b7f4e6f7420656e6f7567682045544820696e2074686520636f6e7472616374207460008201527f6f20646973747269627574650000000000000000000000000000000000000000602082015250565b6000612887602c83611b93565b91506128928261282b565b604082019050919050565b600060208201905081810360008301526128b68161287a565b9050919050565b7f4e487b7100000000000000000000000000000000000000000000000000000000600052603260045260246000fd5b7f4e487b7100000000000000000000000000000000000000000000000000000000600052601260045260246000fd5b600061292682611c6b565b915061293183611c6b565b925082612941576129406128ec565b5b828204905092915050565b60006060820190506129616000830186611b5e565b61296e6020830185611d17565b61297b6040830184611d17565b94935050505056fea264697066735822122092cc25982c1eb03a858333137ace375e9c208fc35d4721ac490a5bfcbf625de864736f6c634300081c0033",
  "linkReferences": {},
  "deployedLinkReferences": {}
}